{"contracts/interfaces/paraswap/AugustusRegistry.sol":{"AugustusRegistry":{"abi":[{"inputs":[],"name":"ARBITRUM","outputs":[{"internalType":"address","name":"","type":"address"}],"stateMutability":"view","type":"function"},{"inputs":[],"name":"AVALANCHE","outputs":[{"internalType":"address","name":"","type":"address"}],"stateMutability":"view","type":"function"},{"inputs":[],"name":"BASE","outputs":[{"internalType":"address","name":"","type":"address"}],"stateMutability":"view","type":"function"},{"inputs":[],"name":"BNB","outputs":[{"internalType":"address","name":"","type":"address"}],"stateMutability":"view","type":"function"},{"inputs":[],"name":"BSC","outputs":[{"internalType":"address","name":"","type":"address"}],"stateMutability":"view","type":"function"},{"inputs":[],"name":"ETHEREUM","outputs":[{"internalType":"address","name":"","type":"address"}],"stateMutability":"view","type":"function"},{"inputs":[],"name":"OPTIMISM","outputs":[{"internalType":"address","name":"","type":"address"}],"stateMutability":"view","type":"function"},{"inputs":[],"name":"POLYGON","outputs":[{"internalType":"address","name":"","type":"address"}],"stateMutability":"view","type":"function"}],"evm":{"bytecode":{"linkReferences":{},"object":"6080806040523461001a576101dd9081610020823930815050f35b600080fdfe60806040818152600436101561001457600080fd5b600091823560e01c9081633c130daf1461014f5750806348a237841461014a57806358f7f6d21461014a57806379dd40f914610121578063b01dc0d5146100f8578063c8744dd8146100cf578063ec342ad0146100a65763f7cdf47c1461007a57600080fd5b816003193601126100a2576020905173a68bea62dc4034a689aa0f58a76681433caca6638152f35b5080fd5b50816003193601126100a25760209051737e31b336f9e8ba52ba3c4ac861b033ba90900bb38152f35b50816003193601126100a2576020905173ca35a4866747ff7a604ef7a2a7f246bb870f3ca18152f35b50816003193601126100a2576020905173dc6e2b14260f972ad4e5a31c68294fba7e7207018152f35b50816003193601126100a2576020905173fd1e5821f07f1af812bb7f3102bfd9ffb279513a8152f35b610178565b8390816003193601126100a25780736e7be86000df697facf4396efd2ae2c322165dc360209252f35b60003660031901126101a25760206040517305b4486f643914a818ed93afc07457e9074be2118152f35b600080fdfea264697066735822122072300c7f767f53ffeb8cceb24c062eabe5ddbf8250e5d1ddbcaf0ff765f4597864736f6c63430008140033","opcodes":"PUSH1 0x80 DUP1 PUSH1 0x40 MSTORE CALLVALUE PUSH2 0x1A JUMPI PUSH2 0x1DD SWAP1 DUP2 PUSH2 0x20 DUP3 CODECOPY ADDRESS DUP2 POP POP RETURN JUMPDEST PUSH1 0x0 DUP1 REVERT INVALID PUSH1 0x80 PUSH1 0x40 DUP2 DUP2 MSTORE PUSH1 0x4 CALLDATASIZE LT ISZERO PUSH2 0x14 JUMPI PUSH1 0x0 DUP1 REVERT JUMPDEST PUSH1 0x0 SWAP2 DUP3 CALLDATALOAD PUSH1 0xE0 SHR SWAP1 DUP2 PUSH4 0x3C130DAF EQ PUSH2 0x14F JUMPI POP DUP1 PUSH4 0x48A23784 EQ PUSH2 0x14A JUMPI DUP1 PUSH4 0x58F7F6D2 EQ PUSH2 0x14A JUMPI DUP1 PUSH4 0x79DD40F9 EQ PUSH2 0x121 JUMPI DUP1 PUSH4 0xB01DC0D5 EQ PUSH2 0xF8 JUMPI DUP1 PUSH4 0xC8744DD8 EQ PUSH2 0xCF JUMPI DUP1 PUSH4 0xEC342AD0 EQ PUSH2 0xA6 JUMPI PUSH4 0xF7CDF47C EQ PUSH2 0x7A JUMPI PUSH1 0x0 DUP1 REVERT JUMPDEST DUP2 PUSH1 0x3 NOT CALLDATASIZE ADD SLT PUSH2 0xA2 JUMPI PUSH1 0x20 SWAP1 MLOAD PUSH20 0xA68BEA62DC4034A689AA0F58A76681433CACA663 DUP2 MSTORE RETURN JUMPDEST POP DUP1 REVERT JUMPDEST POP DUP2 PUSH1 0x3 NOT CALLDATASIZE ADD SLT PUSH2 0xA2 JUMPI PUSH1 0x20 SWAP1 MLOAD PUSH20 0x7E31B336F9E8BA52BA3C4AC861B033BA90900BB3 DUP2 MSTORE RETURN JUMPDEST POP DUP2 PUSH1 0x3 NOT CALLDATASIZE ADD SLT PUSH2 0xA2 JUMPI PUSH1 0x20 SWAP1 MLOAD PUSH20 0xCA35A4866747FF7A604EF7A2A7F246BB870F3CA1 DUP2 MSTORE RETURN JUMPDEST POP DUP2 PUSH1 0x3 NOT CALLDATASIZE ADD SLT PUSH2 0xA2 JUMPI PUSH1 0x20 SWAP1 MLOAD PUSH20 0xDC6E2B14260F972AD4E5A31C68294FBA7E720701 DUP2 MSTORE RETURN JUMPDEST POP DUP2 PUSH1 0x3 NOT CALLDATASIZE ADD SLT PUSH2 0xA2 JUMPI PUSH1 0x20 SWAP1 MLOAD PUSH20 0xFD1E5821F07F1AF812BB7F3102BFD9FFB279513A DUP2 MSTORE RETURN JUMPDEST PUSH2 0x178 JUMP JUMPDEST DUP4 SWAP1 DUP2 PUSH1 0x3 NOT CALLDATASIZE ADD SLT PUSH2 0xA2 JUMPI DUP1 PUSH20 0x6E7BE86000DF697FACF4396EFD2AE2C322165DC3 PUSH1 0x20 SWAP3 MSTORE RETURN JUMPDEST PUSH1 0x0 CALLDATASIZE PUSH1 0x3 NOT ADD SLT PUSH2 0x1A2 JUMPI PUSH1 0x20 PUSH1 0x40 MLOAD PUSH20 0x5B4486F643914A818ED93AFC07457E9074BE211 DUP2 MSTORE RETURN JUMPDEST PUSH1 0x0 DUP1 REVERT INVALID LOG2 PUSH5 0x6970667358 0x22 SLT KECCAK256 PUSH19 0x300C7F767F53FFEB8CCEB24C062EABE5DDBF82 POP 0xE5 0xD1 0xDD 0xBC 0xAF 0xF 0xF7 PUSH6 0xF4597864736F PUSH13 0x63430008140033000000000000 "},"methodIdentifiers":{"ARBITRUM()":"b01dc0d5","AVALANCHE()":"79dd40f9","BASE()":"ec342ad0","BNB()":"58f7f6d2","BSC()":"48a23784","ETHEREUM()":"f7cdf47c","OPTIMISM()":"3c130daf","POLYGON()":"c8744dd8"}}}}}