{"contracts/AaveUniswapBase.sol":{"AaveUniswapBase":{"abi":[{"inputs":[{"internalType":"address","name":"lendingPoolAddressesProviderAddress","type":"address"},{"internalType":"address","name":"uniswapRouterAddress","type":"address"}],"stateMutability":"nonpayable","type":"constructor"},{"inputs":[],"name":"ADDRESSES_PROVIDER","outputs":[{"internalType":"contract IPoolAddressesProvider","name":"","type":"address"}],"stateMutability":"view","type":"function"},{"inputs":[],"name":"LENDING_POOL","outputs":[{"internalType":"contract IPool","name":"","type":"address"}],"stateMutability":"view","type":"function"},{"inputs":[],"name":"UNISWAP_ROUTER","outputs":[{"internalType":"contract ISwapRouter","name":"","type":"address"}],"stateMutability":"view","type":"function"},{"inputs":[],"name":"UNISWAP_ROUTER_ADDRESS","outputs":[{"internalType":"address","name":"","type":"address"}],"stateMutability":"view","type":"function"},{"inputs":[{"internalType":"address","name":"asset","type":"address"}],"name":"getAaveAssetReserveData","outputs":[{"components":[{"components":[{"internalType":"uint256","name":"data","type":"uint256"}],"internalType":"struct DataTypes.ReserveConfigurationMap","name":"configuration","type":"tuple"},{"internalType":"uint128","name":"liquidityIndex","type":"uint128"},{"internalType":"uint128","name":"currentLiquidityRate","type":"uint128"},{"internalType":"uint128","name":"variableBorrowIndex","type":"uint128"},{"internalType":"uint128","name":"currentVariableBorrowRate","type":"uint128"},{"internalType":"uint128","name":"currentStableBorrowRate","type":"uint128"},{"internalType":"uint40","name":"lastUpdateTimestamp","type":"uint40"},{"internalType":"uint16","name":"id","type":"uint16"},{"internalType":"address","name":"aTokenAddress","type":"address"},{"internalType":"address","name":"stableDebtTokenAddress","type":"address"},{"internalType":"address","name":"variableDebtTokenAddress","type":"address"},{"internalType":"address","name":"interestRateStrategyAddress","type":"address"},{"internalType":"uint128","name":"accruedToTreasury","type":"uint128"},{"internalType":"uint128","name":"unbacked","type":"uint128"},{"internalType":"uint128","name":"isolationModeTotalDebt","type":"uint128"}],"internalType":"struct DataTypes.ReserveData","name":"","type":"tuple"}],"stateMutability":"view","type":"function"}],"evm":{"bytecode":{"linkReferences":{},"object":"60e03461009957601f61068738819003918201601f19168301916001600160401b0383118484101761009e57808492604094855283398101031261009957610052602061004b836100b4565b92016100b4565b6001600160a01b0391821660805290811660a05260c0526040516105be90816100c9823960805181818161042101526104f8015260a05181606e015260c051816103de0152f35b600080fd5b634e487b7160e01b600052604160045260246000fd5b51906001600160a01b03821682036100995756fe60806040818152600436101561001457600080fd5b60009160e08335811c9182630542975c1461040d5750816379b36943146103c9578163923daa2a146100ce57508063b4dcfc77146100a15763d82649201461005b57600080fd5b3461009d578160031936011261009d57517f00000000000000000000000000000000000000000000000000000000000000006001600160a01b03168152602090f35b5080fd5b503461009d578160031936011261009d576020906100bd6104da565b90516001600160a01b039091168152f35b919050346103c557602091826003193601126103c1576001600160a01b03600435818116949192869186900361009d5784519361010a85610450565b855161011581610483565b8381528552828486015282868601528260608601528260808601528260a08601528260c0860152828286015261010090838287015261012090848288015261014085818901526101609286848a01526101809487868b01526101a09688888c0152886101c0809c0152846101876104da565b169c8c519d8e916335ea6a7560e01b835260048301526101e09e8f91815a91602492fa998a156103b6579961026a575b508b8b9c9d9e509a999a51809d8a515182526001600160801b039c8d818d015116908301528c818c0151169101528c60608c818c0151169101528c60808c818c0151169101528c60a08c818c0151169101528c60c064ffffffffff818c01511691015261ffff818a015116908d0152838189015116908c0152828188015116908b0152818187015116908a0152818501511690880152848184015116908701528381830151169086015201511690820152f35b809199508d803d106103af575b610281818361049f565b810103908d82126103ab578a8d519261029984610450565b126103ab578c516102a981610483565b8151815282526102ba8b8201610574565b8b8301526102c98d8201610574565b8d8301526102d960608201610574565b60608301526102ea60808201610574565b60808301526102fb60a08201610574565b60a083015260c081015164ffffffffff811681036103a75760c08301528981015161ffff811681036103a7578c9d9e9f509b61039891819c9d8c8501526103438582016104c1565b858501526103528682016104c1565b868501526103618782016104c1565b878501526103708982016104c1565b8985015261037f8a8201610574565b8a85015261038e8b8201610574565b8b85015201610574565b8a820152978d9c9b9a996101b7565b8f80fd5b8e80fd5b503d610277565b8d51903d90823e3d90fd5b8380fd5b8280fd5b50503461009d578160031936011261009d57517f00000000000000000000000000000000000000000000000000000000000000006001600160a01b03168152602090f35b84903461009d578160031936011261009d577f00000000000000000000000000000000000000000000000000000000000000006001600160a01b03168152602090f35b6101e0810190811067ffffffffffffffff82111761046d57604052565b634e487b7160e01b600052604160045260246000fd5b6020810190811067ffffffffffffffff82111761046d57604052565b90601f8019910116810190811067ffffffffffffffff82111761046d57604052565b51906001600160a01b03821682036104d557565b600080fd5b60405163026b1d5f60e01b81526001600160a01b03906020816004817f000000000000000000000000000000000000000000000000000000000000000086165afa9081156105685760009161052e57501690565b906020823d8211610560575b816105476020938361049f565b8101031261055d5750610559906104c1565b1690565b80fd5b3d915061053a565b6040513d6000823e3d90fd5b51906001600160801b03821682036104d55756fea26469706673582212207375c56948d7f90651483a4833b866733bdc3804861056e8fefa11ce84285c9064736f6c63430008140033","opcodes":"PUSH1 0xE0 CALLVALUE PUSH2 0x99 JUMPI PUSH1 0x1F PUSH2 0x687 CODESIZE DUP2 SWAP1 SUB SWAP2 DUP3 ADD PUSH1 0x1F NOT AND DUP4 ADD SWAP2 PUSH1 0x1 PUSH1 0x1 PUSH1 0x40 SHL SUB DUP4 GT DUP5 DUP5 LT OR PUSH2 0x9E JUMPI DUP1 DUP5 SWAP3 PUSH1 0x40 SWAP5 DUP6 MSTORE DUP4 CODECOPY DUP2 ADD SUB SLT PUSH2 0x99 JUMPI PUSH2 0x52 PUSH1 0x20 PUSH2 0x4B DUP4 PUSH2 0xB4 JUMP JUMPDEST SWAP3 ADD PUSH2 0xB4 JUMP JUMPDEST PUSH1 0x1 PUSH1 0x1 PUSH1 0xA0 SHL SUB SWAP2 DUP3 AND PUSH1 0x80 MSTORE SWAP1 DUP2 AND PUSH1 0xA0 MSTORE PUSH1 0xC0 MSTORE PUSH1 0x40 MLOAD PUSH2 0x5BE SWAP1 DUP2 PUSH2 0xC9 DUP3 CODECOPY PUSH1 0x80 MLOAD DUP2 DUP2 DUP2 PUSH2 0x421 ADD MSTORE PUSH2 0x4F8 ADD MSTORE PUSH1 0xA0 MLOAD DUP2 PUSH1 0x6E ADD MSTORE PUSH1 0xC0 MLOAD DUP2 PUSH2 0x3DE ADD MSTORE RETURN JUMPDEST PUSH1 0x0 DUP1 REVERT JUMPDEST PUSH4 0x4E487B71 PUSH1 0xE0 SHL PUSH1 0x0 MSTORE PUSH1 0x41 PUSH1 0x4 MSTORE PUSH1 0x24 PUSH1 0x0 REVERT JUMPDEST MLOAD SWAP1 PUSH1 0x1 PUSH1 0x1 PUSH1 0xA0 SHL SUB DUP3 AND DUP3 SUB PUSH2 0x99 JUMPI JUMP INVALID PUSH1 0x80 PUSH1 0x40 DUP2 DUP2 MSTORE PUSH1 0x4 CALLDATASIZE LT ISZERO PUSH2 0x14 JUMPI PUSH1 0x0 DUP1 REVERT JUMPDEST PUSH1 0x0 SWAP2 PUSH1 0xE0 DUP4 CALLDATALOAD DUP2 SHR SWAP2 DUP3 PUSH4 0x542975C EQ PUSH2 0x40D JUMPI POP DUP2 PUSH4 0x79B36943 EQ PUSH2 0x3C9 JUMPI DUP2 PUSH4 0x923DAA2A EQ PUSH2 0xCE JUMPI POP DUP1 PUSH4 0xB4DCFC77 EQ PUSH2 0xA1 JUMPI PUSH4 0xD8264920 EQ PUSH2 0x5B JUMPI PUSH1 0x0 DUP1 REVERT JUMPDEST CALLVALUE PUSH2 0x9D JUMPI DUP2 PUSH1 0x3 NOT CALLDATASIZE ADD SLT PUSH2 0x9D JUMPI MLOAD PUSH32 0x0 PUSH1 0x1 PUSH1 0x1 PUSH1 0xA0 SHL SUB AND DUP2 MSTORE PUSH1 0x20 SWAP1 RETURN JUMPDEST POP DUP1 REVERT JUMPDEST POP CALLVALUE PUSH2 0x9D JUMPI DUP2 PUSH1 0x3 NOT CALLDATASIZE ADD SLT PUSH2 0x9D JUMPI PUSH1 0x20 SWAP1 PUSH2 0xBD PUSH2 0x4DA JUMP JUMPDEST SWAP1 MLOAD PUSH1 0x1 PUSH1 0x1 PUSH1 0xA0 SHL SUB SWAP1 SWAP2 AND DUP2 MSTORE RETURN JUMPDEST SWAP2 SWAP1 POP CALLVALUE PUSH2 0x3C5 JUMPI PUSH1 0x20 SWAP2 DUP3 PUSH1 0x3 NOT CALLDATASIZE ADD SLT PUSH2 0x3C1 JUMPI PUSH1 0x1 PUSH1 0x1 PUSH1 0xA0 SHL SUB PUSH1 0x4 CALLDATALOAD DUP2 DUP2 AND SWAP5 SWAP2 SWAP3 DUP7 SWAP2 DUP7 SWAP1 SUB PUSH2 0x9D JUMPI DUP5 MLOAD SWAP4 PUSH2 0x10A DUP6 PUSH2 0x450 JUMP JUMPDEST DUP6 MLOAD PUSH2 0x115 DUP2 PUSH2 0x483 JUMP JUMPDEST DUP4 DUP2 MSTORE DUP6 MSTORE DUP3 DUP5 DUP7 ADD MSTORE DUP3 DUP7 DUP7 ADD MSTORE DUP3 PUSH1 0x60 DUP7 ADD MSTORE DUP3 PUSH1 0x80 DUP7 ADD MSTORE DUP3 PUSH1 0xA0 DUP7 ADD MSTORE DUP3 PUSH1 0xC0 DUP7 ADD MSTORE DUP3 DUP3 DUP7 ADD MSTORE PUSH2 0x100 SWAP1 DUP4 DUP3 DUP8 ADD MSTORE PUSH2 0x120 SWAP1 DUP5 DUP3 DUP9 ADD MSTORE PUSH2 0x140 DUP6 DUP2 DUP10 ADD MSTORE PUSH2 0x160 SWAP3 DUP7 DUP5 DUP11 ADD MSTORE PUSH2 0x180 SWAP5 DUP8 DUP7 DUP12 ADD MSTORE PUSH2 0x1A0 SWAP7 DUP9 DUP9 DUP13 ADD MSTORE DUP9 PUSH2 0x1C0 DUP1 SWAP13 ADD MSTORE DUP5 PUSH2 0x187 PUSH2 0x4DA JUMP JUMPDEST AND SWAP13 DUP13 MLOAD SWAP14 DUP15 SWAP2 PUSH4 0x35EA6A75 PUSH1 0xE0 SHL DUP4 MSTORE PUSH1 0x4 DUP4 ADD MSTORE PUSH2 0x1E0 SWAP15 DUP16 SWAP2 DUP2 GAS SWAP2 PUSH1 0x24 SWAP3 STATICCALL SWAP10 DUP11 ISZERO PUSH2 0x3B6 JUMPI SWAP10 PUSH2 0x26A JUMPI JUMPDEST POP DUP12 DUP12 SWAP13 SWAP14 SWAP15 POP SWAP11 SWAP10 SWAP11 MLOAD DUP1 SWAP14 DUP11 MLOAD MLOAD DUP3 MSTORE PUSH1 0x1 PUSH1 0x1 PUSH1 0x80 SHL SUB SWAP13 DUP14 DUP2 DUP14 ADD MLOAD AND SWAP1 DUP4 ADD MSTORE DUP13 DUP2 DUP13 ADD MLOAD AND SWAP2 ADD MSTORE DUP13 PUSH1 0x60 DUP13 DUP2 DUP13 ADD MLOAD AND SWAP2 ADD MSTORE DUP13 PUSH1 0x80 DUP13 DUP2 DUP13 ADD MLOAD AND SWAP2 ADD MSTORE DUP13 PUSH1 0xA0 DUP13 DUP2 DUP13 ADD MLOAD AND SWAP2 ADD MSTORE DUP13 PUSH1 0xC0 PUSH5 0xFFFFFFFFFF DUP2 DUP13 ADD MLOAD AND SWAP2 ADD MSTORE PUSH2 0xFFFF DUP2 DUP11 ADD MLOAD AND SWAP1 DUP14 ADD MSTORE DUP4 DUP2 DUP10 ADD MLOAD AND SWAP1 DUP13 ADD MSTORE DUP3 DUP2 DUP9 ADD MLOAD AND SWAP1 DUP12 ADD MSTORE DUP2 DUP2 DUP8 ADD MLOAD AND SWAP1 DUP11 ADD MSTORE DUP2 DUP6 ADD MLOAD AND SWAP1 DUP9 ADD MSTORE DUP5 DUP2 DUP5 ADD MLOAD AND SWAP1 DUP8 ADD MSTORE DUP4 DUP2 DUP4 ADD MLOAD AND SWAP1 DUP7 ADD MSTORE ADD MLOAD AND SWAP1 DUP3 ADD MSTORE RETURN JUMPDEST DUP1 SWAP2 SWAP10 POP DUP14 DUP1 RETURNDATASIZE LT PUSH2 0x3AF JUMPI JUMPDEST PUSH2 0x281 DUP2 DUP4 PUSH2 0x49F JUMP JUMPDEST DUP2 ADD SUB SWAP1 DUP14 DUP3 SLT PUSH2 0x3AB JUMPI DUP11 DUP14 MLOAD SWAP3 PUSH2 0x299 DUP5 PUSH2 0x450 JUMP JUMPDEST SLT PUSH2 0x3AB JUMPI DUP13 MLOAD PUSH2 0x2A9 DUP2 PUSH2 0x483 JUMP JUMPDEST DUP2 MLOAD DUP2 MSTORE DUP3 MSTORE PUSH2 0x2BA DUP12 DUP3 ADD PUSH2 0x574 JUMP JUMPDEST DUP12 DUP4 ADD MSTORE PUSH2 0x2C9 DUP14 DUP3 ADD PUSH2 0x574 JUMP JUMPDEST DUP14 DUP4 ADD MSTORE PUSH2 0x2D9 PUSH1 0x60 DUP3 ADD PUSH2 0x574 JUMP JUMPDEST PUSH1 0x60 DUP4 ADD MSTORE PUSH2 0x2EA PUSH1 0x80 DUP3 ADD PUSH2 0x574 JUMP JUMPDEST PUSH1 0x80 DUP4 ADD MSTORE PUSH2 0x2FB PUSH1 0xA0 DUP3 ADD PUSH2 0x574 JUMP JUMPDEST PUSH1 0xA0 DUP4 ADD MSTORE PUSH1 0xC0 DUP2 ADD MLOAD PUSH5 0xFFFFFFFFFF DUP2 AND DUP2 SUB PUSH2 0x3A7 JUMPI PUSH1 0xC0 DUP4 ADD MSTORE DUP10 DUP2 ADD MLOAD PUSH2 0xFFFF DUP2 AND DUP2 SUB PUSH2 0x3A7 JUMPI DUP13 SWAP14 SWAP15 SWAP16 POP SWAP12 PUSH2 0x398 SWAP2 DUP2 SWAP13 SWAP14 DUP13 DUP6 ADD MSTORE PUSH2 0x343 DUP6 DUP3 ADD PUSH2 0x4C1 JUMP JUMPDEST DUP6 DUP6 ADD MSTORE PUSH2 0x352 DUP7 DUP3 ADD PUSH2 0x4C1 JUMP JUMPDEST DUP7 DUP6 ADD MSTORE PUSH2 0x361 DUP8 DUP3 ADD PUSH2 0x4C1 JUMP JUMPDEST DUP8 DUP6 ADD MSTORE PUSH2 0x370 DUP10 DUP3 ADD PUSH2 0x4C1 JUMP JUMPDEST DUP10 DUP6 ADD MSTORE PUSH2 0x37F DUP11 DUP3 ADD PUSH2 0x574 JUMP JUMPDEST DUP11 DUP6 ADD MSTORE PUSH2 0x38E DUP12 DUP3 ADD PUSH2 0x574 JUMP JUMPDEST DUP12 DUP6 ADD MSTORE ADD PUSH2 0x574 JUMP JUMPDEST DUP11 DUP3 ADD MSTORE SWAP8 DUP14 SWAP13 SWAP12 SWAP11 SWAP10 PUSH2 0x1B7 JUMP JUMPDEST DUP16 DUP1 REVERT JUMPDEST DUP15 DUP1 REVERT JUMPDEST POP RETURNDATASIZE PUSH2 0x277 JUMP JUMPDEST DUP14 MLOAD SWAP1 RETURNDATASIZE SWAP1 DUP3 RETURNDATACOPY RETURNDATASIZE SWAP1 REVERT JUMPDEST DUP4 DUP1 REVERT JUMPDEST DUP3 DUP1 REVERT JUMPDEST POP POP CALLVALUE PUSH2 0x9D JUMPI DUP2 PUSH1 0x3 NOT CALLDATASIZE ADD SLT PUSH2 0x9D JUMPI MLOAD PUSH32 0x0 PUSH1 0x1 PUSH1 0x1 PUSH1 0xA0 SHL SUB AND DUP2 MSTORE PUSH1 0x20 SWAP1 RETURN JUMPDEST DUP5 SWAP1 CALLVALUE PUSH2 0x9D JUMPI DUP2 PUSH1 0x3 NOT CALLDATASIZE ADD SLT PUSH2 0x9D JUMPI PUSH32 0x0 PUSH1 0x1 PUSH1 0x1 PUSH1 0xA0 SHL SUB AND DUP2 MSTORE PUSH1 0x20 SWAP1 RETURN JUMPDEST PUSH2 0x1E0 DUP2 ADD SWAP1 DUP2 LT PUSH8 0xFFFFFFFFFFFFFFFF DUP3 GT OR PUSH2 0x46D JUMPI PUSH1 0x40 MSTORE JUMP JUMPDEST PUSH4 0x4E487B71 PUSH1 0xE0 SHL PUSH1 0x0 MSTORE PUSH1 0x41 PUSH1 0x4 MSTORE PUSH1 0x24 PUSH1 0x0 REVERT JUMPDEST PUSH1 0x20 DUP2 ADD SWAP1 DUP2 LT PUSH8 0xFFFFFFFFFFFFFFFF DUP3 GT OR PUSH2 0x46D JUMPI PUSH1 0x40 MSTORE JUMP JUMPDEST SWAP1 PUSH1 0x1F DUP1 NOT SWAP2 ADD AND DUP2 ADD SWAP1 DUP2 LT PUSH8 0xFFFFFFFFFFFFFFFF DUP3 GT OR PUSH2 0x46D JUMPI PUSH1 0x40 MSTORE JUMP JUMPDEST MLOAD SWAP1 PUSH1 0x1 PUSH1 0x1 PUSH1 0xA0 SHL SUB DUP3 AND DUP3 SUB PUSH2 0x4D5 JUMPI JUMP JUMPDEST PUSH1 0x0 DUP1 REVERT JUMPDEST PUSH1 0x40 MLOAD PUSH4 0x26B1D5F PUSH1 0xE0 SHL DUP2 MSTORE PUSH1 0x1 PUSH1 0x1 PUSH1 0xA0 SHL SUB SWAP1 PUSH1 0x20 DUP2 PUSH1 0x4 DUP2 PUSH32 0x0 DUP7 AND GAS STATICCALL SWAP1 DUP2 ISZERO PUSH2 0x568 JUMPI PUSH1 0x0 SWAP2 PUSH2 0x52E JUMPI POP AND SWAP1 JUMP JUMPDEST SWAP1 PUSH1 0x20 DUP3 RETURNDATASIZE DUP3 GT PUSH2 0x560 JUMPI JUMPDEST DUP2 PUSH2 0x547 PUSH1 0x20 SWAP4 DUP4 PUSH2 0x49F JUMP JUMPDEST DUP2 ADD SUB SLT PUSH2 0x55D JUMPI POP PUSH2 0x559 SWAP1 PUSH2 0x4C1 JUMP JUMPDEST AND SWAP1 JUMP JUMPDEST DUP1 REVERT JUMPDEST RETURNDATASIZE SWAP2 POP PUSH2 0x53A JUMP JUMPDEST PUSH1 0x40 MLOAD RETURNDATASIZE PUSH1 0x0 DUP3 RETURNDATACOPY RETURNDATASIZE SWAP1 REVERT JUMPDEST MLOAD SWAP1 PUSH1 0x1 PUSH1 0x1 PUSH1 0x80 SHL SUB DUP3 AND DUP3 SUB PUSH2 0x4D5 JUMPI JUMP INVALID LOG2 PUSH5 0x6970667358 0x22 SLT KECCAK256 PUSH20 0x75C56948D7F90651483A4833B866733BDC380486 LT JUMP 0xE8 INVALID STATICCALL GT 0xCE DUP5 0x28 0x5C SWAP1 PUSH5 0x736F6C6343 STOP ADDMOD EQ STOP CALLER "},"methodIdentifiers":{"ADDRESSES_PROVIDER()":"0542975c","LENDING_POOL()":"b4dcfc77","UNISWAP_ROUTER()":"d8264920","UNISWAP_ROUTER_ADDRESS()":"79b36943","getAaveAssetReserveData(address)":"923daa2a"}}}}}