{"contracts/AaveUniswapBase.sol":{"AaveUniswapBase":{"abi":[{"inputs":[{"internalType":"address","name":"lendingPoolAddressesProviderAddress","type":"address"},{"internalType":"address","name":"uniswapRouterAddress","type":"address"}],"stateMutability":"nonpayable","type":"constructor"},{"inputs":[],"name":"ADDRESSES_PROVIDER","outputs":[{"internalType":"contract IPoolAddressesProvider","name":"","type":"address"}],"stateMutability":"view","type":"function"},{"inputs":[],"name":"LENDING_POOL","outputs":[{"internalType":"contract IPool","name":"","type":"address"}],"stateMutability":"view","type":"function"},{"inputs":[],"name":"UNISWAP_ROUTER","outputs":[{"internalType":"contract ISwapRouter","name":"","type":"address"}],"stateMutability":"view","type":"function"},{"inputs":[],"name":"UNISWAP_ROUTER_ADDRESS","outputs":[{"internalType":"address","name":"","type":"address"}],"stateMutability":"view","type":"function"},{"inputs":[{"internalType":"address","name":"asset","type":"address"}],"name":"getAaveAssetReserveData","outputs":[{"components":[{"components":[{"internalType":"uint256","name":"data","type":"uint256"}],"internalType":"struct DataTypes.ReserveConfigurationMap","name":"configuration","type":"tuple"},{"internalType":"uint128","name":"liquidityIndex","type":"uint128"},{"internalType":"uint128","name":"currentLiquidityRate","type":"uint128"},{"internalType":"uint128","name":"variableBorrowIndex","type":"uint128"},{"internalType":"uint128","name":"currentVariableBorrowRate","type":"uint128"},{"internalType":"uint128","name":"currentStableBorrowRate","type":"uint128"},{"internalType":"uint40","name":"lastUpdateTimestamp","type":"uint40"},{"internalType":"uint16","name":"id","type":"uint16"},{"internalType":"address","name":"aTokenAddress","type":"address"},{"internalType":"address","name":"stableDebtTokenAddress","type":"address"},{"internalType":"address","name":"variableDebtTokenAddress","type":"address"},{"internalType":"address","name":"interestRateStrategyAddress","type":"address"},{"internalType":"uint128","name":"accruedToTreasury","type":"uint128"},{"internalType":"uint128","name":"unbacked","type":"uint128"},{"internalType":"uint128","name":"isolationModeTotalDebt","type":"uint128"}],"internalType":"struct DataTypes.ReserveData","name":"","type":"tuple"}],"stateMutability":"view","type":"function"}],"evm":{"bytecode":{"linkReferences":{},"object":"60e060405234801561001057600080fd5b50604051610d06380380610d0683398181016040528101906100329190610138565b8173ffffffffffffffffffffffffffffffffffffffff1660808173ffffffffffffffffffffffffffffffffffffffff16815250508073ffffffffffffffffffffffffffffffffffffffff1660a08173ffffffffffffffffffffffffffffffffffffffff16815250508073ffffffffffffffffffffffffffffffffffffffff1660c08173ffffffffffffffffffffffffffffffffffffffff16815250505050610178565b600080fd5b600073ffffffffffffffffffffffffffffffffffffffff82169050919050565b6000610105826100da565b9050919050565b610115816100fa565b811461012057600080fd5b50565b6000815190506101328161010c565b92915050565b6000806040838503121561014f5761014e6100d5565b5b600061015d85828601610123565b925050602061016e85828601610123565b9150509250929050565b60805160a05160c051610b586101ae600039600061012a0152600061027a01526000818161010601526101e20152610b586000f3fe608060405234801561001057600080fd5b50600436106100575760003560e01c80630542975c1461005c57806379b369431461007a578063923daa2a14610098578063b4dcfc77146100c8578063d8264920146100e6575b600080fd5b610064610104565b604051610071919061049d565b60405180910390f35b610082610128565b60405161008f91906104d9565b60405180910390f35b6100b260048036038101906100ad919061052f565b61014c565b6040516100bf919061073d565b60405180910390f35b6100d06101dd565b6040516100dd919061077a565b60405180910390f35b6100ee610278565b6040516100fb91906107b6565b60405180910390f35b7f000000000000000000000000000000000000000000000000000000000000000081565b7f000000000000000000000000000000000000000000000000000000000000000081565b61015461029c565b61015c6101dd565b73ffffffffffffffffffffffffffffffffffffffff166335ea6a75836040518263ffffffff1660e01b815260040161019491906104d9565b6101e060405180830381865afa1580156101b2573d6000803e3d6000fd5b505050506040513d601f19601f820116820180604052508101906101d69190610ac7565b9050919050565b6000807f000000000000000000000000000000000000000000000000000000000000000073ffffffffffffffffffffffffffffffffffffffff1663026b1d5f6040518163ffffffff1660e01b8152600401602060405180830381865afa15801561024b573d6000803e3d6000fd5b505050506040513d601f19601f8201168201806040525081019061026f9190610af5565b90508091505090565b7f000000000000000000000000000000000000000000000000000000000000000081565b604051806101e001604052806102b061040b565b815260200160006fffffffffffffffffffffffffffffffff16815260200160006fffffffffffffffffffffffffffffffff16815260200160006fffffffffffffffffffffffffffffffff16815260200160006fffffffffffffffffffffffffffffffff16815260200160006fffffffffffffffffffffffffffffffff168152602001600064ffffffffff168152602001600061ffff168152602001600073ffffffffffffffffffffffffffffffffffffffff168152602001600073ffffffffffffffffffffffffffffffffffffffff168152602001600073ffffffffffffffffffffffffffffffffffffffff168152602001600073ffffffffffffffffffffffffffffffffffffffff16815260200160006fffffffffffffffffffffffffffffffff16815260200160006fffffffffffffffffffffffffffffffff16815260200160006fffffffffffffffffffffffffffffffff1681525090565b6040518060200160405280600081525090565b600073ffffffffffffffffffffffffffffffffffffffff82169050919050565b6000819050919050565b600061046361045e6104598461041e565b61043e565b61041e565b9050919050565b600061047582610448565b9050919050565b60006104878261046a565b9050919050565b6104978161047c565b82525050565b60006020820190506104b2600083018461048e565b92915050565b60006104c38261041e565b9050919050565b6104d3816104b8565b82525050565b60006020820190506104ee60008301846104ca565b92915050565b6000604051905090565b600080fd5b61050c816104b8565b811461051757600080fd5b50565b60008135905061052981610503565b92915050565b600060208284031215610545576105446104fe565b5b60006105538482850161051a565b91505092915050565b6000819050919050565b61056f8161055c565b82525050565b60208201600082015161058b6000850182610566565b50505050565b60006fffffffffffffffffffffffffffffffff82169050919050565b6105b681610591565b82525050565b600064ffffffffff82169050919050565b6105d6816105bc565b82525050565b600061ffff82169050919050565b6105f3816105dc565b82525050565b610602816104b8565b82525050565b6101e08201600082015161061f6000850182610575565b50602082015161063260208501826105ad565b50604082015161064560408501826105ad565b50606082015161065860608501826105ad565b50608082015161066b60808501826105ad565b5060a082015161067e60a08501826105ad565b5060c082015161069160c08501826105cd565b5060e08201516106a460e08501826105ea565b506101008201516106b96101008501826105f9565b506101208201516106ce6101208501826105f9565b506101408201516106e36101408501826105f9565b506101608201516106f86101608501826105f9565b5061018082015161070d6101808501826105ad565b506101a08201516107226101a08501826105ad565b506101c08201516107376101c08501826105ad565b50505050565b60006101e0820190506107536000830184610608565b92915050565b60006107648261046a565b9050919050565b61077481610759565b82525050565b600060208201905061078f600083018461076b565b92915050565b60006107a08261046a565b9050919050565b6107b081610795565b82525050565b60006020820190506107cb60008301846107a7565b92915050565b600080fd5b6000601f19601f8301169050919050565b7f4e487b7100000000000000000000000000000000000000000000000000000000600052604160045260246000fd5b61081f826107d6565b810181811067ffffffffffffffff8211171561083e5761083d6107e7565b5b80604052505050565b60006108516104f4565b905061085d8282610816565b919050565b61086b8161055c565b811461087657600080fd5b50565b60008151905061088881610862565b92915050565b6000602082840312156108a4576108a36107d1565b5b6108ae6020610847565b905060006108be84828501610879565b60008301525092915050565b6108d381610591565b81146108de57600080fd5b50565b6000815190506108f0816108ca565b92915050565b6108ff816105bc565b811461090a57600080fd5b50565b60008151905061091c816108f6565b92915050565b61092b816105dc565b811461093657600080fd5b50565b60008151905061094881610922565b92915050565b60008151905061095d81610503565b92915050565b60006101e0828403121561097a576109796107d1565b5b6109856101e0610847565b905060006109958482850161088e565b60008301525060206109a9848285016108e1565b60208301525060406109bd848285016108e1565b60408301525060606109d1848285016108e1565b60608301525060806109e5848285016108e1565b60808301525060a06109f9848285016108e1565b60a08301525060c0610a0d8482850161090d565b60c08301525060e0610a2184828501610939565b60e083015250610100610a368482850161094e565b61010083015250610120610a4c8482850161094e565b61012083015250610140610a628482850161094e565b61014083015250610160610a788482850161094e565b61016083015250610180610a8e848285016108e1565b610180830152506101a0610aa4848285016108e1565b6101a0830152506101c0610aba848285016108e1565b6101c08301525092915050565b60006101e08284031215610ade57610add6104fe565b5b6000610aec84828501610963565b91505092915050565b600060208284031215610b0b57610b0a6104fe565b5b6000610b198482850161094e565b9150509291505056fea2646970667358221220494f882d22d5ee2df4b1d0e3c33195f4ae30e00de1ce4072389568934be4994864736f6c63430008180033","opcodes":"PUSH1 0xE0 PUSH1 0x40 MSTORE CALLVALUE DUP1 ISZERO PUSH2 0x10 JUMPI PUSH1 0x0 DUP1 REVERT JUMPDEST POP PUSH1 0x40 MLOAD PUSH2 0xD06 CODESIZE SUB DUP1 PUSH2 0xD06 DUP4 CODECOPY DUP2 DUP2 ADD PUSH1 0x40 MSTORE DUP2 ADD SWAP1 PUSH2 0x32 SWAP2 SWAP1 PUSH2 0x138 JUMP JUMPDEST DUP2 PUSH20 0xFFFFFFFFFFFFFFFFFFFFFFFFFFFFFFFFFFFFFFFF AND PUSH1 0x80 DUP2 PUSH20 0xFFFFFFFFFFFFFFFFFFFFFFFFFFFFFFFFFFFFFFFF AND DUP2 MSTORE POP POP DUP1 PUSH20 0xFFFFFFFFFFFFFFFFFFFFFFFFFFFFFFFFFFFFFFFF AND PUSH1 0xA0 DUP2 PUSH20 0xFFFFFFFFFFFFFFFFFFFFFFFFFFFFFFFFFFFFFFFF AND DUP2 MSTORE POP POP DUP1 PUSH20 0xFFFFFFFFFFFFFFFFFFFFFFFFFFFFFFFFFFFFFFFF AND PUSH1 0xC0 DUP2 PUSH20 0xFFFFFFFFFFFFFFFFFFFFFFFFFFFFFFFFFFFFFFFF AND DUP2 MSTORE POP POP POP POP PUSH2 0x178 JUMP JUMPDEST PUSH1 0x0 DUP1 REVERT JUMPDEST PUSH1 0x0 PUSH20 0xFFFFFFFFFFFFFFFFFFFFFFFFFFFFFFFFFFFFFFFF DUP3 AND SWAP1 POP SWAP2 SWAP1 POP JUMP JUMPDEST PUSH1 0x0 PUSH2 0x105 DUP3 PUSH2 0xDA JUMP JUMPDEST SWAP1 POP SWAP2 SWAP1 POP JUMP JUMPDEST PUSH2 0x115 DUP2 PUSH2 0xFA JUMP JUMPDEST DUP2 EQ PUSH2 0x120 JUMPI PUSH1 0x0 DUP1 REVERT JUMPDEST POP JUMP JUMPDEST PUSH1 0x0 DUP2 MLOAD SWAP1 POP PUSH2 0x132 DUP2 PUSH2 0x10C JUMP JUMPDEST SWAP3 SWAP2 POP POP JUMP JUMPDEST PUSH1 0x0 DUP1 PUSH1 0x40 DUP4 DUP6 SUB SLT ISZERO PUSH2 0x14F JUMPI PUSH2 0x14E PUSH2 0xD5 JUMP JUMPDEST JUMPDEST PUSH1 0x0 PUSH2 0x15D DUP6 DUP3 DUP7 ADD PUSH2 0x123 JUMP JUMPDEST SWAP3 POP POP PUSH1 0x20 PUSH2 0x16E DUP6 DUP3 DUP7 ADD PUSH2 0x123 JUMP JUMPDEST SWAP2 POP POP SWAP3 POP SWAP3 SWAP1 POP JUMP JUMPDEST PUSH1 0x80 MLOAD PUSH1 0xA0 MLOAD PUSH1 0xC0 MLOAD PUSH2 0xB58 PUSH2 0x1AE PUSH1 0x0 CODECOPY PUSH1 0x0 PUSH2 0x12A ADD MSTORE PUSH1 0x0 PUSH2 0x27A ADD MSTORE PUSH1 0x0 DUP2 DUP2 PUSH2 0x106 ADD MSTORE PUSH2 0x1E2 ADD MSTORE PUSH2 0xB58 PUSH1 0x0 RETURN INVALID PUSH1 0x80 PUSH1 0x40 MSTORE CALLVALUE DUP1 ISZERO PUSH2 0x10 JUMPI PUSH1 0x0 DUP1 REVERT JUMPDEST POP PUSH1 0x4 CALLDATASIZE LT PUSH2 0x57 JUMPI PUSH1 0x0 CALLDATALOAD PUSH1 0xE0 SHR DUP1 PUSH4 0x542975C EQ PUSH2 0x5C JUMPI DUP1 PUSH4 0x79B36943 EQ PUSH2 0x7A JUMPI DUP1 PUSH4 0x923DAA2A EQ PUSH2 0x98 JUMPI DUP1 PUSH4 0xB4DCFC77 EQ PUSH2 0xC8 JUMPI DUP1 PUSH4 0xD8264920 EQ PUSH2 0xE6 JUMPI JUMPDEST PUSH1 0x0 DUP1 REVERT JUMPDEST PUSH2 0x64 PUSH2 0x104 JUMP JUMPDEST PUSH1 0x40 MLOAD PUSH2 0x71 SWAP2 SWAP1 PUSH2 0x49D JUMP JUMPDEST PUSH1 0x40 MLOAD DUP1 SWAP2 SUB SWAP1 RETURN JUMPDEST PUSH2 0x82 PUSH2 0x128 JUMP JUMPDEST PUSH1 0x40 MLOAD PUSH2 0x8F SWAP2 SWAP1 PUSH2 0x4D9 JUMP JUMPDEST PUSH1 0x40 MLOAD DUP1 SWAP2 SUB SWAP1 RETURN JUMPDEST PUSH2 0xB2 PUSH1 0x4 DUP1 CALLDATASIZE SUB DUP2 ADD SWAP1 PUSH2 0xAD SWAP2 SWAP1 PUSH2 0x52F JUMP JUMPDEST PUSH2 0x14C JUMP JUMPDEST PUSH1 0x40 MLOAD PUSH2 0xBF SWAP2 SWAP1 PUSH2 0x73D JUMP JUMPDEST PUSH1 0x40 MLOAD DUP1 SWAP2 SUB SWAP1 RETURN JUMPDEST PUSH2 0xD0 PUSH2 0x1DD JUMP JUMPDEST PUSH1 0x40 MLOAD PUSH2 0xDD SWAP2 SWAP1 PUSH2 0x77A JUMP JUMPDEST PUSH1 0x40 MLOAD DUP1 SWAP2 SUB SWAP1 RETURN JUMPDEST PUSH2 0xEE PUSH2 0x278 JUMP JUMPDEST PUSH1 0x40 MLOAD PUSH2 0xFB SWAP2 SWAP1 PUSH2 0x7B6 JUMP JUMPDEST PUSH1 0x40 MLOAD DUP1 SWAP2 SUB SWAP1 RETURN JUMPDEST PUSH32 0x0 DUP2 JUMP JUMPDEST PUSH32 0x0 DUP2 JUMP JUMPDEST PUSH2 0x154 PUSH2 0x29C JUMP JUMPDEST PUSH2 0x15C PUSH2 0x1DD JUMP JUMPDEST PUSH20 0xFFFFFFFFFFFFFFFFFFFFFFFFFFFFFFFFFFFFFFFF AND PUSH4 0x35EA6A75 DUP4 PUSH1 0x40 MLOAD DUP3 PUSH4 0xFFFFFFFF AND PUSH1 0xE0 SHL DUP2 MSTORE PUSH1 0x4 ADD PUSH2 0x194 SWAP2 SWAP1 PUSH2 0x4D9 JUMP JUMPDEST PUSH2 0x1E0 PUSH1 0x40 MLOAD DUP1 DUP4 SUB DUP2 DUP7 GAS STATICCALL ISZERO DUP1 ISZERO PUSH2 0x1B2 JUMPI RETURNDATASIZE PUSH1 0x0 DUP1 RETURNDATACOPY RETURNDATASIZE PUSH1 0x0 REVERT JUMPDEST POP POP POP POP PUSH1 0x40 MLOAD RETURNDATASIZE PUSH1 0x1F NOT PUSH1 0x1F DUP3 ADD AND DUP3 ADD DUP1 PUSH1 0x40 MSTORE POP DUP2 ADD SWAP1 PUSH2 0x1D6 SWAP2 SWAP1 PUSH2 0xAC7 JUMP JUMPDEST SWAP1 POP SWAP2 SWAP1 POP JUMP JUMPDEST PUSH1 0x0 DUP1 PUSH32 0x0 PUSH20 0xFFFFFFFFFFFFFFFFFFFFFFFFFFFFFFFFFFFFFFFF AND PUSH4 0x26B1D5F PUSH1 0x40 MLOAD DUP2 PUSH4 0xFFFFFFFF AND PUSH1 0xE0 SHL DUP2 MSTORE PUSH1 0x4 ADD PUSH1 0x20 PUSH1 0x40 MLOAD DUP1 DUP4 SUB DUP2 DUP7 GAS STATICCALL ISZERO DUP1 ISZERO PUSH2 0x24B JUMPI RETURNDATASIZE PUSH1 0x0 DUP1 RETURNDATACOPY RETURNDATASIZE PUSH1 0x0 REVERT JUMPDEST POP POP POP POP PUSH1 0x40 MLOAD RETURNDATASIZE PUSH1 0x1F NOT PUSH1 0x1F DUP3 ADD AND DUP3 ADD DUP1 PUSH1 0x40 MSTORE POP DUP2 ADD SWAP1 PUSH2 0x26F SWAP2 SWAP1 PUSH2 0xAF5 JUMP JUMPDEST SWAP1 POP DUP1 SWAP2 POP POP SWAP1 JUMP JUMPDEST PUSH32 0x0 DUP2 JUMP JUMPDEST PUSH1 0x40 MLOAD DUP1 PUSH2 0x1E0 ADD PUSH1 0x40 MSTORE DUP1 PUSH2 0x2B0 PUSH2 0x40B JUMP JUMPDEST DUP2 MSTORE PUSH1 0x20 ADD PUSH1 0x0 PUSH16 0xFFFFFFFFFFFFFFFFFFFFFFFFFFFFFFFF AND DUP2 MSTORE PUSH1 0x20 ADD PUSH1 0x0 PUSH16 0xFFFFFFFFFFFFFFFFFFFFFFFFFFFFFFFF AND DUP2 MSTORE PUSH1 0x20 ADD PUSH1 0x0 PUSH16 0xFFFFFFFFFFFFFFFFFFFFFFFFFFFFFFFF AND DUP2 MSTORE PUSH1 0x20 ADD PUSH1 0x0 PUSH16 0xFFFFFFFFFFFFFFFFFFFFFFFFFFFFFFFF AND DUP2 MSTORE PUSH1 0x20 ADD PUSH1 0x0 PUSH16 0xFFFFFFFFFFFFFFFFFFFFFFFFFFFFFFFF AND DUP2 MSTORE PUSH1 0x20 ADD PUSH1 0x0 PUSH5 0xFFFFFFFFFF AND DUP2 MSTORE PUSH1 0x20 ADD PUSH1 0x0 PUSH2 0xFFFF AND DUP2 MSTORE PUSH1 0x20 ADD PUSH1 0x0 PUSH20 0xFFFFFFFFFFFFFFFFFFFFFFFFFFFFFFFFFFFFFFFF AND DUP2 MSTORE PUSH1 0x20 ADD PUSH1 0x0 PUSH20 0xFFFFFFFFFFFFFFFFFFFFFFFFFFFFFFFFFFFFFFFF AND DUP2 MSTORE PUSH1 0x20 ADD PUSH1 0x0 PUSH20 0xFFFFFFFFFFFFFFFFFFFFFFFFFFFFFFFFFFFFFFFF AND DUP2 MSTORE PUSH1 0x20 ADD PUSH1 0x0 PUSH20 0xFFFFFFFFFFFFFFFFFFFFFFFFFFFFFFFFFFFFFFFF AND DUP2 MSTORE PUSH1 0x20 ADD PUSH1 0x0 PUSH16 0xFFFFFFFFFFFFFFFFFFFFFFFFFFFFFFFF AND DUP2 MSTORE PUSH1 0x20 ADD PUSH1 0x0 PUSH16 0xFFFFFFFFFFFFFFFFFFFFFFFFFFFFFFFF AND DUP2 MSTORE PUSH1 0x20 ADD PUSH1 0x0 PUSH16 0xFFFFFFFFFFFFFFFFFFFFFFFFFFFFFFFF AND DUP2 MSTORE POP SWAP1 JUMP JUMPDEST PUSH1 0x40 MLOAD DUP1 PUSH1 0x20 ADD PUSH1 0x40 MSTORE DUP1 PUSH1 0x0 DUP2 MSTORE POP SWAP1 JUMP JUMPDEST PUSH1 0x0 PUSH20 0xFFFFFFFFFFFFFFFFFFFFFFFFFFFFFFFFFFFFFFFF DUP3 AND SWAP1 POP SWAP2 SWAP1 POP JUMP JUMPDEST PUSH1 0x0 DUP2 SWAP1 POP SWAP2 SWAP1 POP JUMP JUMPDEST PUSH1 0x0 PUSH2 0x463 PUSH2 0x45E PUSH2 0x459 DUP5 PUSH2 0x41E JUMP JUMPDEST PUSH2 0x43E JUMP JUMPDEST PUSH2 0x41E JUMP JUMPDEST SWAP1 POP SWAP2 SWAP1 POP JUMP JUMPDEST PUSH1 0x0 PUSH2 0x475 DUP3 PUSH2 0x448 JUMP JUMPDEST SWAP1 POP SWAP2 SWAP1 POP JUMP JUMPDEST PUSH1 0x0 PUSH2 0x487 DUP3 PUSH2 0x46A JUMP JUMPDEST SWAP1 POP SWAP2 SWAP1 POP JUMP JUMPDEST PUSH2 0x497 DUP2 PUSH2 0x47C JUMP JUMPDEST DUP3 MSTORE POP POP JUMP JUMPDEST PUSH1 0x0 PUSH1 0x20 DUP3 ADD SWAP1 POP PUSH2 0x4B2 PUSH1 0x0 DUP4 ADD DUP5 PUSH2 0x48E JUMP JUMPDEST SWAP3 SWAP2 POP POP JUMP JUMPDEST PUSH1 0x0 PUSH2 0x4C3 DUP3 PUSH2 0x41E JUMP JUMPDEST SWAP1 POP SWAP2 SWAP1 POP JUMP JUMPDEST PUSH2 0x4D3 DUP2 PUSH2 0x4B8 JUMP JUMPDEST DUP3 MSTORE POP POP JUMP JUMPDEST PUSH1 0x0 PUSH1 0x20 DUP3 ADD SWAP1 POP PUSH2 0x4EE PUSH1 0x0 DUP4 ADD DUP5 PUSH2 0x4CA JUMP JUMPDEST SWAP3 SWAP2 POP POP JUMP JUMPDEST PUSH1 0x0 PUSH1 0x40 MLOAD SWAP1 POP SWAP1 JUMP JUMPDEST PUSH1 0x0 DUP1 REVERT JUMPDEST PUSH2 0x50C DUP2 PUSH2 0x4B8 JUMP JUMPDEST DUP2 EQ PUSH2 0x517 JUMPI PUSH1 0x0 DUP1 REVERT JUMPDEST POP JUMP JUMPDEST PUSH1 0x0 DUP2 CALLDATALOAD SWAP1 POP PUSH2 0x529 DUP2 PUSH2 0x503 JUMP JUMPDEST SWAP3 SWAP2 POP POP JUMP JUMPDEST PUSH1 0x0 PUSH1 0x20 DUP3 DUP5 SUB SLT ISZERO PUSH2 0x545 JUMPI PUSH2 0x544 PUSH2 0x4FE JUMP JUMPDEST JUMPDEST PUSH1 0x0 PUSH2 0x553 DUP5 DUP3 DUP6 ADD PUSH2 0x51A JUMP JUMPDEST SWAP2 POP POP SWAP3 SWAP2 POP POP JUMP JUMPDEST PUSH1 0x0 DUP2 SWAP1 POP SWAP2 SWAP1 POP JUMP JUMPDEST PUSH2 0x56F DUP2 PUSH2 0x55C JUMP JUMPDEST DUP3 MSTORE POP POP JUMP JUMPDEST PUSH1 0x20 DUP3 ADD PUSH1 0x0 DUP3 ADD MLOAD PUSH2 0x58B PUSH1 0x0 DUP6 ADD DUP3 PUSH2 0x566 JUMP JUMPDEST POP POP POP POP JUMP JUMPDEST PUSH1 0x0 PUSH16 0xFFFFFFFFFFFFFFFFFFFFFFFFFFFFFFFF DUP3 AND SWAP1 POP SWAP2 SWAP1 POP JUMP JUMPDEST PUSH2 0x5B6 DUP2 PUSH2 0x591 JUMP JUMPDEST DUP3 MSTORE POP POP JUMP JUMPDEST PUSH1 0x0 PUSH5 0xFFFFFFFFFF DUP3 AND SWAP1 POP SWAP2 SWAP1 POP JUMP JUMPDEST PUSH2 0x5D6 DUP2 PUSH2 0x5BC JUMP JUMPDEST DUP3 MSTORE POP POP JUMP JUMPDEST PUSH1 0x0 PUSH2 0xFFFF DUP3 AND SWAP1 POP SWAP2 SWAP1 POP JUMP JUMPDEST PUSH2 0x5F3 DUP2 PUSH2 0x5DC JUMP JUMPDEST DUP3 MSTORE POP POP JUMP JUMPDEST PUSH2 0x602 DUP2 PUSH2 0x4B8 JUMP JUMPDEST DUP3 MSTORE POP POP JUMP JUMPDEST PUSH2 0x1E0 DUP3 ADD PUSH1 0x0 DUP3 ADD MLOAD PUSH2 0x61F PUSH1 0x0 DUP6 ADD DUP3 PUSH2 0x575 JUMP JUMPDEST POP PUSH1 0x20 DUP3 ADD MLOAD PUSH2 0x632 PUSH1 0x20 DUP6 ADD DUP3 PUSH2 0x5AD JUMP JUMPDEST POP PUSH1 0x40 DUP3 ADD MLOAD PUSH2 0x645 PUSH1 0x40 DUP6 ADD DUP3 PUSH2 0x5AD JUMP JUMPDEST POP PUSH1 0x60 DUP3 ADD MLOAD PUSH2 0x658 PUSH1 0x60 DUP6 ADD DUP3 PUSH2 0x5AD JUMP JUMPDEST POP PUSH1 0x80 DUP3 ADD MLOAD PUSH2 0x66B PUSH1 0x80 DUP6 ADD DUP3 PUSH2 0x5AD JUMP JUMPDEST POP PUSH1 0xA0 DUP3 ADD MLOAD PUSH2 0x67E PUSH1 0xA0 DUP6 ADD DUP3 PUSH2 0x5AD JUMP JUMPDEST POP PUSH1 0xC0 DUP3 ADD MLOAD PUSH2 0x691 PUSH1 0xC0 DUP6 ADD DUP3 PUSH2 0x5CD JUMP JUMPDEST POP PUSH1 0xE0 DUP3 ADD MLOAD PUSH2 0x6A4 PUSH1 0xE0 DUP6 ADD DUP3 PUSH2 0x5EA JUMP JUMPDEST POP PUSH2 0x100 DUP3 ADD MLOAD PUSH2 0x6B9 PUSH2 0x100 DUP6 ADD DUP3 PUSH2 0x5F9 JUMP JUMPDEST POP PUSH2 0x120 DUP3 ADD MLOAD PUSH2 0x6CE PUSH2 0x120 DUP6 ADD DUP3 PUSH2 0x5F9 JUMP JUMPDEST POP PUSH2 0x140 DUP3 ADD MLOAD PUSH2 0x6E3 PUSH2 0x140 DUP6 ADD DUP3 PUSH2 0x5F9 JUMP JUMPDEST POP PUSH2 0x160 DUP3 ADD MLOAD PUSH2 0x6F8 PUSH2 0x160 DUP6 ADD DUP3 PUSH2 0x5F9 JUMP JUMPDEST POP PUSH2 0x180 DUP3 ADD MLOAD PUSH2 0x70D PUSH2 0x180 DUP6 ADD DUP3 PUSH2 0x5AD JUMP JUMPDEST POP PUSH2 0x1A0 DUP3 ADD MLOAD PUSH2 0x722 PUSH2 0x1A0 DUP6 ADD DUP3 PUSH2 0x5AD JUMP JUMPDEST POP PUSH2 0x1C0 DUP3 ADD MLOAD PUSH2 0x737 PUSH2 0x1C0 DUP6 ADD DUP3 PUSH2 0x5AD JUMP JUMPDEST POP POP POP POP JUMP JUMPDEST PUSH1 0x0 PUSH2 0x1E0 DUP3 ADD SWAP1 POP PUSH2 0x753 PUSH1 0x0 DUP4 ADD DUP5 PUSH2 0x608 JUMP JUMPDEST SWAP3 SWAP2 POP POP JUMP JUMPDEST PUSH1 0x0 PUSH2 0x764 DUP3 PUSH2 0x46A JUMP JUMPDEST SWAP1 POP SWAP2 SWAP1 POP JUMP JUMPDEST PUSH2 0x774 DUP2 PUSH2 0x759 JUMP JUMPDEST DUP3 MSTORE POP POP JUMP JUMPDEST PUSH1 0x0 PUSH1 0x20 DUP3 ADD SWAP1 POP PUSH2 0x78F PUSH1 0x0 DUP4 ADD DUP5 PUSH2 0x76B JUMP JUMPDEST SWAP3 SWAP2 POP POP JUMP JUMPDEST PUSH1 0x0 PUSH2 0x7A0 DUP3 PUSH2 0x46A JUMP JUMPDEST SWAP1 POP SWAP2 SWAP1 POP JUMP JUMPDEST PUSH2 0x7B0 DUP2 PUSH2 0x795 JUMP JUMPDEST DUP3 MSTORE POP POP JUMP JUMPDEST PUSH1 0x0 PUSH1 0x20 DUP3 ADD SWAP1 POP PUSH2 0x7CB PUSH1 0x0 DUP4 ADD DUP5 PUSH2 0x7A7 JUMP JUMPDEST SWAP3 SWAP2 POP POP JUMP JUMPDEST PUSH1 0x0 DUP1 REVERT JUMPDEST PUSH1 0x0 PUSH1 0x1F NOT PUSH1 0x1F DUP4 ADD AND SWAP1 POP SWAP2 SWAP1 POP JUMP JUMPDEST PUSH32 0x4E487B7100000000000000000000000000000000000000000000000000000000 PUSH1 0x0 MSTORE PUSH1 0x41 PUSH1 0x4 MSTORE PUSH1 0x24 PUSH1 0x0 REVERT JUMPDEST PUSH2 0x81F DUP3 PUSH2 0x7D6 JUMP JUMPDEST DUP2 ADD DUP2 DUP2 LT PUSH8 0xFFFFFFFFFFFFFFFF DUP3 GT OR ISZERO PUSH2 0x83E JUMPI PUSH2 0x83D PUSH2 0x7E7 JUMP JUMPDEST JUMPDEST DUP1 PUSH1 0x40 MSTORE POP POP POP JUMP JUMPDEST PUSH1 0x0 PUSH2 0x851 PUSH2 0x4F4 JUMP JUMPDEST SWAP1 POP PUSH2 0x85D DUP3 DUP3 PUSH2 0x816 JUMP JUMPDEST SWAP2 SWAP1 POP JUMP JUMPDEST PUSH2 0x86B DUP2 PUSH2 0x55C JUMP JUMPDEST DUP2 EQ PUSH2 0x876 JUMPI PUSH1 0x0 DUP1 REVERT JUMPDEST POP JUMP JUMPDEST PUSH1 0x0 DUP2 MLOAD SWAP1 POP PUSH2 0x888 DUP2 PUSH2 0x862 JUMP JUMPDEST SWAP3 SWAP2 POP POP JUMP JUMPDEST PUSH1 0x0 PUSH1 0x20 DUP3 DUP5 SUB SLT ISZERO PUSH2 0x8A4 JUMPI PUSH2 0x8A3 PUSH2 0x7D1 JUMP JUMPDEST JUMPDEST PUSH2 0x8AE PUSH1 0x20 PUSH2 0x847 JUMP JUMPDEST SWAP1 POP PUSH1 0x0 PUSH2 0x8BE DUP5 DUP3 DUP6 ADD PUSH2 0x879 JUMP JUMPDEST PUSH1 0x0 DUP4 ADD MSTORE POP SWAP3 SWAP2 POP POP JUMP JUMPDEST PUSH2 0x8D3 DUP2 PUSH2 0x591 JUMP JUMPDEST DUP2 EQ PUSH2 0x8DE JUMPI PUSH1 0x0 DUP1 REVERT JUMPDEST POP JUMP JUMPDEST PUSH1 0x0 DUP2 MLOAD SWAP1 POP PUSH2 0x8F0 DUP2 PUSH2 0x8CA JUMP JUMPDEST SWAP3 SWAP2 POP POP JUMP JUMPDEST PUSH2 0x8FF DUP2 PUSH2 0x5BC JUMP JUMPDEST DUP2 EQ PUSH2 0x90A JUMPI PUSH1 0x0 DUP1 REVERT JUMPDEST POP JUMP JUMPDEST PUSH1 0x0 DUP2 MLOAD SWAP1 POP PUSH2 0x91C DUP2 PUSH2 0x8F6 JUMP JUMPDEST SWAP3 SWAP2 POP POP JUMP JUMPDEST PUSH2 0x92B DUP2 PUSH2 0x5DC JUMP JUMPDEST DUP2 EQ PUSH2 0x936 JUMPI PUSH1 0x0 DUP1 REVERT JUMPDEST POP JUMP JUMPDEST PUSH1 0x0 DUP2 MLOAD SWAP1 POP PUSH2 0x948 DUP2 PUSH2 0x922 JUMP JUMPDEST SWAP3 SWAP2 POP POP JUMP JUMPDEST PUSH1 0x0 DUP2 MLOAD SWAP1 POP PUSH2 0x95D DUP2 PUSH2 0x503 JUMP JUMPDEST SWAP3 SWAP2 POP POP JUMP JUMPDEST PUSH1 0x0 PUSH2 0x1E0 DUP3 DUP5 SUB SLT ISZERO PUSH2 0x97A JUMPI PUSH2 0x979 PUSH2 0x7D1 JUMP JUMPDEST JUMPDEST PUSH2 0x985 PUSH2 0x1E0 PUSH2 0x847 JUMP JUMPDEST SWAP1 POP PUSH1 0x0 PUSH2 0x995 DUP5 DUP3 DUP6 ADD PUSH2 0x88E JUMP JUMPDEST PUSH1 0x0 DUP4 ADD MSTORE POP PUSH1 0x20 PUSH2 0x9A9 DUP5 DUP3 DUP6 ADD PUSH2 0x8E1 JUMP JUMPDEST PUSH1 0x20 DUP4 ADD MSTORE POP PUSH1 0x40 PUSH2 0x9BD DUP5 DUP3 DUP6 ADD PUSH2 0x8E1 JUMP JUMPDEST PUSH1 0x40 DUP4 ADD MSTORE POP PUSH1 0x60 PUSH2 0x9D1 DUP5 DUP3 DUP6 ADD PUSH2 0x8E1 JUMP JUMPDEST PUSH1 0x60 DUP4 ADD MSTORE POP PUSH1 0x80 PUSH2 0x9E5 DUP5 DUP3 DUP6 ADD PUSH2 0x8E1 JUMP JUMPDEST PUSH1 0x80 DUP4 ADD MSTORE POP PUSH1 0xA0 PUSH2 0x9F9 DUP5 DUP3 DUP6 ADD PUSH2 0x8E1 JUMP JUMPDEST PUSH1 0xA0 DUP4 ADD MSTORE POP PUSH1 0xC0 PUSH2 0xA0D DUP5 DUP3 DUP6 ADD PUSH2 0x90D JUMP JUMPDEST PUSH1 0xC0 DUP4 ADD MSTORE POP PUSH1 0xE0 PUSH2 0xA21 DUP5 DUP3 DUP6 ADD PUSH2 0x939 JUMP JUMPDEST PUSH1 0xE0 DUP4 ADD MSTORE POP PUSH2 0x100 PUSH2 0xA36 DUP5 DUP3 DUP6 ADD PUSH2 0x94E JUMP JUMPDEST PUSH2 0x100 DUP4 ADD MSTORE POP PUSH2 0x120 PUSH2 0xA4C DUP5 DUP3 DUP6 ADD PUSH2 0x94E JUMP JUMPDEST PUSH2 0x120 DUP4 ADD MSTORE POP PUSH2 0x140 PUSH2 0xA62 DUP5 DUP3 DUP6 ADD PUSH2 0x94E JUMP JUMPDEST PUSH2 0x140 DUP4 ADD MSTORE POP PUSH2 0x160 PUSH2 0xA78 DUP5 DUP3 DUP6 ADD PUSH2 0x94E JUMP JUMPDEST PUSH2 0x160 DUP4 ADD MSTORE POP PUSH2 0x180 PUSH2 0xA8E DUP5 DUP3 DUP6 ADD PUSH2 0x8E1 JUMP JUMPDEST PUSH2 0x180 DUP4 ADD MSTORE POP PUSH2 0x1A0 PUSH2 0xAA4 DUP5 DUP3 DUP6 ADD PUSH2 0x8E1 JUMP JUMPDEST PUSH2 0x1A0 DUP4 ADD MSTORE POP PUSH2 0x1C0 PUSH2 0xABA DUP5 DUP3 DUP6 ADD PUSH2 0x8E1 JUMP JUMPDEST PUSH2 0x1C0 DUP4 ADD MSTORE POP SWAP3 SWAP2 POP POP JUMP JUMPDEST PUSH1 0x0 PUSH2 0x1E0 DUP3 DUP5 SUB SLT ISZERO PUSH2 0xADE JUMPI PUSH2 0xADD PUSH2 0x4FE JUMP JUMPDEST JUMPDEST PUSH1 0x0 PUSH2 0xAEC DUP5 DUP3 DUP6 ADD PUSH2 0x963 JUMP JUMPDEST SWAP2 POP POP SWAP3 SWAP2 POP POP JUMP JUMPDEST PUSH1 0x0 PUSH1 0x20 DUP3 DUP5 SUB SLT ISZERO PUSH2 0xB0B JUMPI PUSH2 0xB0A PUSH2 0x4FE JUMP JUMPDEST JUMPDEST PUSH1 0x0 PUSH2 0xB19 DUP5 DUP3 DUP6 ADD PUSH2 0x94E JUMP JUMPDEST SWAP2 POP POP SWAP3 SWAP2 POP POP JUMP INVALID LOG2 PUSH5 0x6970667358 0x22 SLT KECCAK256 BLOBHASH 0x4F DUP9 0x2D 0x22 0xD5 0xEE 0x2D DELEGATECALL 0xB1 0xD0 0xE3 0xC3 BALANCE SWAP6 DELEGATECALL 0xAE ADDRESS 0xE0 0xD 0xE1 0xCE BLOCKHASH PUSH19 0x389568934BE4994864736F6C63430008180033 "},"methodIdentifiers":{"ADDRESSES_PROVIDER()":"0542975c","LENDING_POOL()":"b4dcfc77","UNISWAP_ROUTER()":"d8264920","UNISWAP_ROUTER_ADDRESS()":"79b36943","getAaveAssetReserveData(address)":"923daa2a"}}}}}