{"contracts/interfaces/paraswap/AugustusRegistry.sol":{"AugustusRegistry":{"abi":[{"inputs":[],"name":"ARBITRUM","outputs":[{"internalType":"address","name":"","type":"address"}],"stateMutability":"view","type":"function"},{"inputs":[],"name":"AVALANCHE","outputs":[{"internalType":"address","name":"","type":"address"}],"stateMutability":"view","type":"function"},{"inputs":[],"name":"BASE","outputs":[{"internalType":"address","name":"","type":"address"}],"stateMutability":"view","type":"function"},{"inputs":[],"name":"BNB","outputs":[{"internalType":"address","name":"","type":"address"}],"stateMutability":"view","type":"function"},{"inputs":[],"name":"BSC","outputs":[{"internalType":"address","name":"","type":"address"}],"stateMutability":"view","type":"function"},{"inputs":[],"name":"ETHEREUM","outputs":[{"internalType":"address","name":"","type":"address"}],"stateMutability":"view","type":"function"},{"inputs":[],"name":"OPTIMISM","outputs":[{"internalType":"address","name":"","type":"address"}],"stateMutability":"view","type":"function"},{"inputs":[],"name":"POLYGON","outputs":[{"internalType":"address","name":"","type":"address"}],"stateMutability":"view","type":"function"}],"evm":{"bytecode":{"linkReferences":{},"object":"6102d9610053600b82828239805160001a607314610046577f4e487b7100000000000000000000000000000000000000000000000000000000600052600060045260246000fd5b30600052607381538281f3fe73000000000000000000000000000000000000000030146080604052600436106100925760003560e01c8063b01dc0d511610065578063b01dc0d51461010f578063c8744dd81461012d578063ec342ad01461014b578063f7cdf47c1461016957610092565b80633c130daf1461009757806348a23784146100b557806358f7f6d2146100d357806379dd40f9146100f1575b600080fd5b61009f610187565b6040516100ac9190610288565b60405180910390f35b6100bd61019f565b6040516100ca9190610288565b60405180910390f35b6100db6101b7565b6040516100e89190610288565b60405180910390f35b6100f96101cf565b6040516101069190610288565b60405180910390f35b6101176101e7565b6040516101249190610288565b60405180910390f35b6101356101ff565b6040516101429190610288565b60405180910390f35b610153610217565b6040516101609190610288565b60405180910390f35b61017161022f565b60405161017e9190610288565b60405180910390f35b736e7be86000df697facf4396efd2ae2c322165dc381565b7305b4486f643914a818ed93afc07457e9074be21181565b7305b4486f643914a818ed93afc07457e9074be21181565b73fd1e5821f07f1af812bb7f3102bfd9ffb279513a81565b73dc6e2b14260f972ad4e5a31c68294fba7e72070181565b73ca35a4866747ff7a604ef7a2a7f246bb870f3ca181565b737e31b336f9e8ba52ba3c4ac861b033ba90900bb381565b73a68bea62dc4034a689aa0f58a76681433caca66381565b600073ffffffffffffffffffffffffffffffffffffffff82169050919050565b600061027282610247565b9050919050565b61028281610267565b82525050565b600060208201905061029d6000830184610279565b9291505056fea2646970667358221220ea6680e10b481ebcf697b176bc1c02e92b3ecd66b6d2908d4ff5ecbbbfc0708964736f6c63430008180033","opcodes":"PUSH2 0x2D9 PUSH2 0x53 PUSH1 0xB DUP3 DUP3 DUP3 CODECOPY DUP1 MLOAD PUSH1 0x0 BYTE PUSH1 0x73 EQ PUSH2 0x46 JUMPI PUSH32 0x4E487B7100000000000000000000000000000000000000000000000000000000 PUSH1 0x0 MSTORE PUSH1 0x0 PUSH1 0x4 MSTORE PUSH1 0x24 PUSH1 0x0 REVERT JUMPDEST ADDRESS PUSH1 0x0 MSTORE PUSH1 0x73 DUP2 MSTORE8 DUP3 DUP2 RETURN INVALID PUSH20 0x0 ADDRESS EQ PUSH1 0x80 PUSH1 0x40 MSTORE PUSH1 0x4 CALLDATASIZE LT PUSH2 0x92 JUMPI PUSH1 0x0 CALLDATALOAD PUSH1 0xE0 SHR DUP1 PUSH4 0xB01DC0D5 GT PUSH2 0x65 JUMPI DUP1 PUSH4 0xB01DC0D5 EQ PUSH2 0x10F JUMPI DUP1 PUSH4 0xC8744DD8 EQ PUSH2 0x12D JUMPI DUP1 PUSH4 0xEC342AD0 EQ PUSH2 0x14B JUMPI DUP1 PUSH4 0xF7CDF47C EQ PUSH2 0x169 JUMPI PUSH2 0x92 JUMP JUMPDEST DUP1 PUSH4 0x3C130DAF EQ PUSH2 0x97 JUMPI DUP1 PUSH4 0x48A23784 EQ PUSH2 0xB5 JUMPI DUP1 PUSH4 0x58F7F6D2 EQ PUSH2 0xD3 JUMPI DUP1 PUSH4 0x79DD40F9 EQ PUSH2 0xF1 JUMPI JUMPDEST PUSH1 0x0 DUP1 REVERT JUMPDEST PUSH2 0x9F PUSH2 0x187 JUMP JUMPDEST PUSH1 0x40 MLOAD PUSH2 0xAC SWAP2 SWAP1 PUSH2 0x288 JUMP JUMPDEST PUSH1 0x40 MLOAD DUP1 SWAP2 SUB SWAP1 RETURN JUMPDEST PUSH2 0xBD PUSH2 0x19F JUMP JUMPDEST PUSH1 0x40 MLOAD PUSH2 0xCA SWAP2 SWAP1 PUSH2 0x288 JUMP JUMPDEST PUSH1 0x40 MLOAD DUP1 SWAP2 SUB SWAP1 RETURN JUMPDEST PUSH2 0xDB PUSH2 0x1B7 JUMP JUMPDEST PUSH1 0x40 MLOAD PUSH2 0xE8 SWAP2 SWAP1 PUSH2 0x288 JUMP JUMPDEST PUSH1 0x40 MLOAD DUP1 SWAP2 SUB SWAP1 RETURN JUMPDEST PUSH2 0xF9 PUSH2 0x1CF JUMP JUMPDEST PUSH1 0x40 MLOAD PUSH2 0x106 SWAP2 SWAP1 PUSH2 0x288 JUMP JUMPDEST PUSH1 0x40 MLOAD DUP1 SWAP2 SUB SWAP1 RETURN JUMPDEST PUSH2 0x117 PUSH2 0x1E7 JUMP JUMPDEST PUSH1 0x40 MLOAD PUSH2 0x124 SWAP2 SWAP1 PUSH2 0x288 JUMP JUMPDEST PUSH1 0x40 MLOAD DUP1 SWAP2 SUB SWAP1 RETURN JUMPDEST PUSH2 0x135 PUSH2 0x1FF JUMP JUMPDEST PUSH1 0x40 MLOAD PUSH2 0x142 SWAP2 SWAP1 PUSH2 0x288 JUMP JUMPDEST PUSH1 0x40 MLOAD DUP1 SWAP2 SUB SWAP1 RETURN JUMPDEST PUSH2 0x153 PUSH2 0x217 JUMP JUMPDEST PUSH1 0x40 MLOAD PUSH2 0x160 SWAP2 SWAP1 PUSH2 0x288 JUMP JUMPDEST PUSH1 0x40 MLOAD DUP1 SWAP2 SUB SWAP1 RETURN JUMPDEST PUSH2 0x171 PUSH2 0x22F JUMP JUMPDEST PUSH1 0x40 MLOAD PUSH2 0x17E SWAP2 SWAP1 PUSH2 0x288 JUMP JUMPDEST PUSH1 0x40 MLOAD DUP1 SWAP2 SUB SWAP1 RETURN JUMPDEST PUSH20 0x6E7BE86000DF697FACF4396EFD2AE2C322165DC3 DUP2 JUMP JUMPDEST PUSH20 0x5B4486F643914A818ED93AFC07457E9074BE211 DUP2 JUMP JUMPDEST PUSH20 0x5B4486F643914A818ED93AFC07457E9074BE211 DUP2 JUMP JUMPDEST PUSH20 0xFD1E5821F07F1AF812BB7F3102BFD9FFB279513A DUP2 JUMP JUMPDEST PUSH20 0xDC6E2B14260F972AD4E5A31C68294FBA7E720701 DUP2 JUMP JUMPDEST PUSH20 0xCA35A4866747FF7A604EF7A2A7F246BB870F3CA1 DUP2 JUMP JUMPDEST PUSH20 0x7E31B336F9E8BA52BA3C4AC861B033BA90900BB3 DUP2 JUMP JUMPDEST PUSH20 0xA68BEA62DC4034A689AA0F58A76681433CACA663 DUP2 JUMP JUMPDEST PUSH1 0x0 PUSH20 0xFFFFFFFFFFFFFFFFFFFFFFFFFFFFFFFFFFFFFFFF DUP3 AND SWAP1 POP SWAP2 SWAP1 POP JUMP JUMPDEST PUSH1 0x0 PUSH2 0x272 DUP3 PUSH2 0x247 JUMP JUMPDEST SWAP1 POP SWAP2 SWAP1 POP JUMP JUMPDEST PUSH2 0x282 DUP2 PUSH2 0x267 JUMP JUMPDEST DUP3 MSTORE POP POP JUMP JUMPDEST PUSH1 0x0 PUSH1 0x20 DUP3 ADD SWAP1 POP PUSH2 0x29D PUSH1 0x0 DUP4 ADD DUP5 PUSH2 0x279 JUMP JUMPDEST SWAP3 SWAP2 POP POP JUMP INVALID LOG2 PUSH5 0x6970667358 0x22 SLT KECCAK256 0xEA PUSH7 0x80E10B481EBCF6 SWAP8 0xB1 PUSH23 0xBC1C02E92B3ECD66B6D2908D4FF5ECBBBFC0708964736F PUSH13 0x63430008180033000000000000 "},"methodIdentifiers":{"ARBITRUM()":"b01dc0d5","AVALANCHE()":"79dd40f9","BASE()":"ec342ad0","BNB()":"58f7f6d2","BSC()":"48a23784","ETHEREUM()":"f7cdf47c","OPTIMISM()":"3c130daf","POLYGON()":"c8744dd8"}}}}}