{"contracts/AaveApe.sol":{"AaveApe":{"abi":[{"inputs":[{"internalType":"address","name":"lendingPoolAddressesProviderAddress","type":"address"},{"internalType":"address","name":"uniswapRouterAddress","type":"address"}],"stateMutability":"nonpayable","type":"constructor"},{"anonymous":false,"inputs":[{"indexed":false,"internalType":"address","name":"ape","type":"address"},{"indexed":false,"internalType":"string","name":"action","type":"string"},{"indexed":false,"internalType":"address","name":"apeAsset","type":"address"},{"indexed":false,"internalType":"address","name":"borrowAsset","type":"address"},{"indexed":false,"internalType":"uint256","name":"borrowAmount","type":"uint256"},{"indexed":false,"internalType":"uint256","name":"apeAmount","type":"uint256"},{"indexed":false,"internalType":"uint256","name":"interestRateMode","type":"uint256"}],"name":"Ape","type":"event"},{"inputs":[],"name":"ADDRESSES_PROVIDER","outputs":[{"internalType":"contract IPoolAddressesProvider","name":"","type":"address"}],"stateMutability":"view","type":"function"},{"inputs":[],"name":"LENDING_POOL","outputs":[{"internalType":"contract IPool","name":"","type":"address"}],"stateMutability":"view","type":"function"},{"inputs":[],"name":"UNISWAP_ROUTER","outputs":[{"internalType":"contract ISwapRouter","name":"","type":"address"}],"stateMutability":"view","type":"function"},{"inputs":[],"name":"UNISWAP_ROUTER_ADDRESS","outputs":[{"internalType":"address","name":"","type":"address"}],"stateMutability":"view","type":"function"},{"inputs":[],"name":"factory","outputs":[{"internalType":"contract IUniswapV3Factory","name":"","type":"address"}],"stateMutability":"view","type":"function"},{"inputs":[{"internalType":"address","name":"apeAsset","type":"address"},{"internalType":"address","name":"borrowAsset","type":"address"},{"internalType":"uint256","name":"borrowAmount","type":"uint256"},{"internalType":"uint256","name":"interestRateMode","type":"uint256"}],"name":"flashApe","outputs":[{"internalType":"bool","name":"","type":"bool"}],"stateMutability":"nonpayable","type":"function"},{"inputs":[{"internalType":"address","name":"apeAsset","type":"address"},{"internalType":"address","name":"borrowAsset","type":"address"},{"internalType":"uint256","name":"borrowAmountToRepay","type":"uint256"},{"internalType":"uint256","name":"interestRateMode","type":"uint256"}],"name":"flashUnwind","outputs":[],"stateMutability":"nonpayable","type":"function"},{"inputs":[{"internalType":"address","name":"asset","type":"address"}],"name":"getAaveAssetReserveData","outputs":[{"components":[{"components":[{"internalType":"uint256","name":"data","type":"uint256"}],"internalType":"struct DataTypes.ReserveConfigurationMap","name":"configuration","type":"tuple"},{"internalType":"uint128","name":"liquidityIndex","type":"uint128"},{"internalType":"uint128","name":"currentLiquidityRate","type":"uint128"},{"internalType":"uint128","name":"variableBorrowIndex","type":"uint128"},{"internalType":"uint128","name":"currentVariableBorrowRate","type":"uint128"},{"internalType":"uint128","name":"currentStableBorrowRate","type":"uint128"},{"internalType":"uint40","name":"lastUpdateTimestamp","type":"uint40"},{"internalType":"uint16","name":"id","type":"uint16"},{"internalType":"address","name":"aTokenAddress","type":"address"},{"internalType":"address","name":"stableDebtTokenAddress","type":"address"},{"internalType":"address","name":"variableDebtTokenAddress","type":"address"},{"internalType":"address","name":"interestRateStrategyAddress","type":"address"},{"internalType":"uint128","name":"accruedToTreasury","type":"uint128"},{"internalType":"uint128","name":"unbacked","type":"uint128"},{"internalType":"uint128","name":"isolationModeTotalDebt","type":"uint128"}],"internalType":"struct DataTypes.ReserveData","name":"","type":"tuple"}],"stateMutability":"view","type":"function"},{"inputs":[{"internalType":"address","name":"token0","type":"address"},{"internalType":"address","name":"token1","type":"address"}],"name":"getBestPool","outputs":[{"internalType":"contract IUniswapV3Pool","name":"bestPool","type":"address"}],"stateMutability":"view","type":"function"},{"inputs":[{"internalType":"int256","name":"amount0Delta","type":"int256"},{"internalType":"int256","name":"amount1Delta","type":"int256"},{"internalType":"bytes","name":"data","type":"bytes"}],"name":"uniswapV3SwapCallback","outputs":[],"stateMutability":"nonpayable","type":"function"},{"inputs":[{"internalType":"uint256","name":"","type":"uint256"}],"name":"v3Fees","outputs":[{"internalType":"uint24","name":"","type":"uint24"}],"stateMutability":"view","type":"function"}],"evm":{"bytecode":{"linkReferences":{},"object":"60e034620001495762001ee9906001600160401b03601f38849003908101601f191683019082821184831017620001335780849160409687948552833981010312620001495762000050826200014e565b6200005f60208094016200014e565b6001600160a01b03918216608090815291811660a05260c0528351919082019081118282101762000133578352606481526101f482820152610bb883820152612710606082015260009182905b60048210620001075750505060005551611d8590816200016482396080518181816101bf01528181610555015281816114b901528181611a0001528181611a970152611aeb015260a051816107e7015260c0518161142f0152f35b9091928160019161ffff8651169062ffffff6003878102901b92831b921b1916179401920190620000ac565b634e487b7160e01b600052604160045260246000fd5b600080fd5b51906001600160a01b0382168203620001495756fe608080604052600436101561001357600080fd5b600090813560e01c9081630542975c146114a55750806363b78f6d1461145e57806379b3694314611419578063923daa2a146113255780639b6604d214610c0a578063a11b452814610bcc578063b3f7a16614610872578063b4dcfc7714610845578063c45a015514610816578063d8264920146107d15763fa461e331461009a57600080fd5b346107ce5760603660031901126107ce576004359060449182359267ffffffffffffffff8085116107c657366023860112156107c65784600401359081116107c65784019360249436868201116107ca578160e09103126107c6576101008582016114fe565b5061010c82820161193c565b5060649161011b8383016114fe565b91610128608482016114fe565b9360a48201359761014760e461014060c486016114fe565b940161193c565b966001600160a01b0395861696861693861690898113156107bd57955b8661016d578980f35b6101756119e2565b981561050957899a604051996370a0823160e01b8b523060048c015260209a8b8187818b5afa9081156104fe578d916104cd575b5060405163026b1d5f60e01b8152978c896004817f000000000000000000000000000000000000000000000000000000000000000089165afa988915610483578e998e918b91610490575b5060405163095ea7b360e01b81526001600160a01b03909116600482015260248101849052998a908180604481015b0391855af1928315610483578e998e9461043d575b5090856084921699604051958694859363573ade8160e01b855260048501528a8401528c830152878a8301528a5af18015610432576103fe575b508392918a948a926101006102868c611b21565b0151169160405196879384926323b872dd60e01b8452600484015230878401528b8b8401525af180156103f357889487948b926103b2575b506040519687958694631a4ca37b60e21b86528b600487015285015230908401525af180156103a757610374575b5060405163a9059cbb60e01b8152336004820152602481019190915292829184916044918391905af1801561036957610331575b50505b803880808080808080808980f35b81813d8311610362575b6103458183611674565b8101031261035e5761035690611741565b503880610320565b5080fd5b503d61033b565b6040513d85823e3d90fd5b83809295503d83116103a0575b61038b8183611674565b8101031261039b578392386102ec565b600080fd5b503d610381565b6040513d87823e3d90fd5b95869195508092503d83116103ec575b6103cc8183611674565b810103126103e8578886936103e18a96611741565b50386102be565b8880fd5b503d6103c2565b6040513d8b823e3d90fd5b8980929b50949392943d831161042b575b6104198183611674565b8101031261039b579091899838610272565b503d61040f565b6040513d8d823e3d90fd5b84819592939b503d831161047c575b6104568183611674565b81010312610478578d98856084928f9561046f90611741565b50919250610238565b8d80fd5b503d61044c565b8e604051903d90823e3d90fd5b9a505089813d83116104c6575b6104a78183611674565b81010312610478578c828f6104be6102239c611696565b91509a6101f4565b503d61049d565b809d508c8092503d83116104f7575b6104e68183611674565b8101031261039b578c9b51386101a9565b503d6104dc565b6040513d8f823e3d90fd5b9794919290939596996040519889966370a0823160e01b88523060048901528c888760209d8e935afa9788156107b2578c9861077f575b5060405163026b1d5f60e01b81528b816004817f000000000000000000000000000000000000000000000000000000000000000087165afa80156104fe57898f8f928f938091610742575b60405163095ea7b360e01b81526001600160a01b039092166004830152602482019390935293508391829081604481015b03925af180156104fe5761070a575b501695863b15610706576040519b63617ba03760e01b8d5260048d0152848c015284838c015289828c0152898b608481838a5af180156106fb576106e7575b899a50853b156106e35787958a95868994819460a4976040519d8e9a8b9963a415bcad60e01b8b5260048b015289015287015285015260848401525af180156103a757849386916106c3575b505060405163a9059cbb60e01b8152336004820152602481019190915293849160449183915af180156103695761068f575b5050610323565b81813d83116106bc575b6106a38183611674565b8101031261035e576106b490611741565b503880610688565b503d610699565b6106d091929394506115f4565b6106de579082918438610656565b505050fd5b8980fd5b9890996106f3906115f4565b97899061060a565b6040513d8c823e3d90fd5b8a80fd5b8b81813d831161073b575b61071f8183611674565b810103126107375761073090611741565b50386105cb565b8c80fd5b503d610715565b5050505081813d8311610778575b61075a8183611674565b81010312610737578b898f8f6107726105bc95611696565b9061058b565b503d610750565b9097508a81813d83116107ab575b6107978183611674565b810103126107a757519638610540565b8b80fd5b503d61078d565b6040513d8e823e3d90fd5b50813595610164565b8380fd5b8480fd5b80fd5b50346107ce57806003193601126107ce576040517f00000000000000000000000000000000000000000000000000000000000000006001600160a01b03168152602090f35b50346107ce57806003193601126107ce576020604051731f98431c8ad98523631ae4a59f267346ea31f9848152f35b50346107ce57806003193601126107ce5760206108606119e2565b6040516001600160a01b039091168152f35b50346107ce5761088136611512565b9193908015610b7857600183148015610b6e575b61089e90611578565b6001600160a01b0390816108b287876117b1565b1694604051630dfe168160e01b815260209788826004818b5afa918215610b63579189939186938892610b20575b5083169586911614956040600188149283600014610b0457846401000276a4915b8c8451988901528a84890152169a8b60608801528860808801528a60a0880152878460c09b338d8b01528160e08b015260e08a5261093e8a611657565b61095e86519a8b9687958694630251596160e31b865230600487016116c0565b03925af1928315610af757879082958395610abd575b50906024916109816119e2565b1660405192838092632fe4a15f60e21b82523360048301525afa8015610ab2578290610a7a575b670de0b6b3a764000091501115610a405791610120979593917fed1a51b9740a2824e026a65b28e087347ef688d1217fe8b53e01f358b23402289997959350600014610a385750915b6040519533875260e08a880152600860e088015267666c61736841706560c01b61010088015260408701526060860152608085015260a0840152820152a160405160018152f35b9050916109f1565b60405162461bcd60e51b8152600481018b905260126024820152716865616c746820666163746f72203c20312160701b6044820152606490fd5b508781813d8311610aab575b610a908183611674565b8101031261035e5760a0670de0b6b3a76400009101516109a8565b503d610a86565b6040513d84823e3d90fd5b6024929650610ae591955060403d604011610af0575b610add8183611674565b8101906116aa565b959095949091610974565b503d610ad3565b50604051903d90823e3d90fd5b8473fffd8963efd1fc6a506488495d951d5263988d2591610901565b9294839194508092503d8311610b5c575b610b3b8183611674565b81010312610b585791849182610b518b95611696565b91906108e0565b8580fd5b503d610b31565b6040513d88823e3d90fd5b5060028314610895565b60405162461bcd60e51b815260206004820152602660248201527f626f72726f7720616d6f756e742073686f756c6420626520677265617465722060448201526507468616e20360d41b6064820152608490fd5b50346107ce5760203660031901126107ce576004359060048210156107ce57602062ffffff610bfa8461154b565b9190546040519260031b1c168152f35b50346107ce57610c1936611512565b81929493919280156112d2576001821480156112c8575b610c3990611578565b6001600160a01b03610c49611acd565b6040516328dd2d0160e01b8082526001600160a01b0387166004830152336024830152939290916101209183916044918391165afa908115611022578790889261129c575b501561125e5715611219576101206001600160a01b03610cac611acd565b6040519485526001600160a01b038a16600486015233602486015284916044918391165afa918215610b6357869087936111dc575b5091600284146111d4575b50811561119c578110611194575b50610d0585836117b1565b94602460206001600160a01b03610100610d1e87611b21565b015116604051928380926370a0823160e01b82523360048301525afa908115610b63578691611162575b50602460206001600160a01b03610d5d611a79565b60405163b3596f0760e01b81526001600160a01b038916600482015293849290918391165afa801561102257879061112b575b602491506101406001600160a01b03610da7611acd565b604051633e15014160e01b81526001600160a01b038a16600482015294859290918391165afa9182156111205788926110f3575b5090916024919060206001600160a01b03610df4611a79565b60405163b3596f0760e01b81526001600160a01b038916600482015295869290918391165afa9283156103f35789936110be575b50602491906101406001600160a01b03610e40611acd565b604051633e15014160e01b81526001600160a01b038a16600482015295869290918391165afa9283156106fb5792610ea292610e9c92610ea796958d93611078575b50610e9691610e90916119ab565b916119d4565b906119ab565b936119d4565b6119ab565b908115611064570484811061105c575b506001600160a01b03818116908416109360018503611041576401000276a4965b600160ff1b821461102d57604080516001600160a01b03928316602082018190528183018990528784166060830152928516608082015260a081018690523360c0820152600160e08083019190915281529798610f5d98919290610f3b83611657565b8a8451809b81958294630251596160e31b84528d8a86039030600487016116c0565b03925af1958615611022577fed1a51b9740a2824e026a65b28e087347ef688d1217fe8b53e01f358b2340228966101209689928a92610ffe575b50610ff65750915b6040805133815260e060208201819052600b908201526a199b185cda155b9dda5b9960aa1b6101008201526001600160a01b039687169181019190915294166060850152608084015260a083015260c0820152a180f35b905091610f9f565b90925061101a915060403d604011610af057610add8183611674565b909138610f97565b6040513d89823e3d90fd5b634e487b7160e01b87526011600452602487fd5b73fffd8963efd1fc6a506488495d951d5263988d2596610ed8565b935038610eb7565b634e487b7160e01b87526012600452602487fd5b610e90919350916110a5610e96936101403d610140116110b7575b61109d8183611674565b810190611949565b50505050505050505093915091610e82565b503d611093565b9092506020813d6020116110eb575b816110da60209383611674565b810103126103e85751916024610e28565b3d91506110cd565b60249250611111906101403d610140116110b75761109d8183611674565b50505050505050505091610ddb565b6040513d8a823e3d90fd5b506020813d60201161115a575b8161114560209383611674565b810103126111565760249051610d90565b8680fd5b3d9150611138565b90506020813d60201161118c575b8161117d60209383611674565b81010312610b58575138610d48565b3d9150611170565b925038610cfa565b60405162461bcd60e51b815260206004820152601060248201526f6e6f2064656274206f6e20416176652160801b6044820152606490fd5b915038610cec565b90506112039192506101203d61012011611212575b6111fb8183611674565b81019061174e565b50505050505092915038610ce1565b503d6111f1565b60405162461bcd60e51b815260206004820152601b60248201527f617065206173736574206973206e6f7420636f6c6c61746572616c00000000006044820152606490fd5b60405162461bcd60e51b815260206004820152601660248201527506170652061737365742062616c616e636520697320360541b6044820152606490fd5b90506112b991506101203d61012011611212576111fb8183611674565b97965050505050505038610c8e565b5060028214610c30565b60405162461bcd60e51b815260206004820152602560248201527f726570617920616d6f756e742073686f756c6420626520677265617465722074604482015264068616e20360dc1b6064820152608490fd5b50346107ce5760203660031901126107ce576101e061134a6113456114e8565b611b21565b6040519080515182526001600160801b038060208301511660208401528060408301511660408401528060608301511660608401528060808301511660808401528060a08301511660a084015264ffffffffff60c08301511660c084015261ffff60e08301511660e084015260018060a01b0361010081818501511690850152610120818185015116908501526101408181850151169085015261016090818401511690840152610180818184015116908401526101a0818184015116908401526101c0809201511690820152f35b50346107ce57806003193601126107ce576040517f00000000000000000000000000000000000000000000000000000000000000006001600160a01b03168152602090f35b50346107ce5760403660031901126107ce576114786114e8565b602435916001600160a01b03919082841684036107ce575060209261149c916117b1565b60405191168152f35b90503461035e578160031936011261035e577f00000000000000000000000000000000000000000000000000000000000000006001600160a01b03168152602090f35b600435906001600160a01b038216820361039b57565b35906001600160a01b038216820361039b57565b608090600319011261039b576001600160a01b0390600435828116810361039b5791602435908116810361039b57906044359060643590565b906004821015611562576003600a80840493060290565b634e487b7160e01b600052603260045260246000fd5b1561157f57565b60405162461bcd60e51b815260206004820152604160248201527f696e746572657374526174654d6f6465206d757374206265203120666f72207360448201527f7461626c652072617465206f72203220666f72207661726961626c65207261746064820152606560f81b608482015260a490fd5b67ffffffffffffffff811161160857604052565b634e487b7160e01b600052604160045260246000fd5b6101e0810190811067ffffffffffffffff82111761160857604052565b6020810190811067ffffffffffffffff82111761160857604052565b610100810190811067ffffffffffffffff82111761160857604052565b90601f8019910116810190811067ffffffffffffffff82111761160857604052565b51906001600160a01b038216820361039b57565b919082604091031261039b576020825192015190565b93909195949260018060a01b038093168552602096151587860152604085015216606083015260a060808301528051908160a084015260005b82811061171b57505060c09293506000838284010152601f8019910116010190565b81810186015184820160c0015285016116f9565b519064ffffffffff8216820361039b57565b5190811515820361039b57565b908161012091031261039b5780519160208201519160408101519160608201519160808101519160a08201519160c08101519161179a61010061179360e0850161172f565b9301611741565b90565b51906001600160801b038216820361039b57565b6000928392839190825b600480821015611933576117ce8261154b565b90549160409162ffffff835194630b4c774160e11b865260018060a01b0392838c1685880152838916602488015260031b1c1660448501526020938481606481731f98431c8ad98523631ae4a59f267346ea31f9845afa908115611929578b916118f4575b50169283156118eb578083518093630d34328160e11b825281875afa9283156118e2575089926118a8575b50506001600160801b038082169087161061189c575b50505b6000198114611888576001016117bb565b634e487b7160e01b86526011600452602486fd5b90975093503880611874565b90809250813d83116118db575b6118bf8183611674565b810103126118d7576118d09061179d565b388061185e565b8780fd5b503d6118b5565b513d8b823e3d90fd5b50505050611877565b90508481813d8311611922575b61190b8183611674565b810103126107065761191c90611696565b38611833565b503d611901565b84513d8d823e3d90fd5b50505092505050565b3590811515820361039b57565b91908261014091031261039b5781519160208101519160408201519160608101519160808201519161197d60a08201611741565b9161198a60c08301611741565b9161199760e08201611741565b9161179a6101206117936101008501611741565b818102929181159184041417156119be57565b634e487b7160e01b600052601160045260246000fd5b604d81116119be57600a0a90565b60405163026b1d5f60e01b81526001600160a01b03906020816004817f000000000000000000000000000000000000000000000000000000000000000086165afa908115611a6d57600091611a3657501690565b906020823d8211611a65575b81611a4f60209383611674565b810103126107ce5750611a6190611696565b1690565b3d9150611a42565b6040513d6000823e3d90fd5b604051631f94a27560e31b81526001600160a01b03906020816004817f000000000000000000000000000000000000000000000000000000000000000086165afa908115611a6d57600091611a3657501690565b60405163e860accb60e01b81526001600160a01b03906020816004817f000000000000000000000000000000000000000000000000000000000000000086165afa908115611a6d57600091611a3657501690565b6040908151611b2f8161161e565b825191611b3b8361163b565b600092838152825282602083015282848301528260608301528260808301528260a08301528260c08301528260e08301526101008381840152610120848185015261014085818601526101609086828701526101809287848801526101a0948886890152886101c08099015260018060a01b039889611bb86119e2565b168b519a8b996335ea6a7560e01b8b521660048a01528860246101e09c8d935afa9a8b15611d4557819b611bf5575b505050505050505050505090565b90919293949596978a819a9b9c503d8d11611d3e575b611c158183611674565b8101039a8b1261035e57602081519b611c2d8d61161e565b1261035e578051611c3d8161163b565b895181528b52611c4f60208a0161179d565b60208c0152611c5f818a0161179d565b908b0152611c6f6060890161179d565b60608b0152611c806080890161179d565b60808b0152611c9160a0890161179d565b60a08b0152611ca260c0890161172f565b60c08b015260e08801519061ffff821682036107ce575091611d2a979593918997959360e08c0152611cd5818801611696565b908b0152611ce4818701611696565b908a0152611cf3818601611696565b90890152611d02818501611696565b90880152611d1181840161179d565b90870152611d2081830161179d565b908601520161179d565b908201523880808080808080808080611be7565b503d611c0b565b51903d90823e3d90fdfea264697066735822122061b2216c3012f25f2107d611fadf8a8c164a215a8f644ad7e6a8148e7933a64a64736f6c63430008140033","opcodes":"PUSH1 0xE0 CALLVALUE PUSH3 0x149 JUMPI PUSH3 0x1EE9 SWAP1 PUSH1 0x1 PUSH1 0x1 PUSH1 0x40 SHL SUB PUSH1 0x1F CODESIZE DUP5 SWAP1 SUB SWAP1 DUP2 ADD PUSH1 0x1F NOT AND DUP4 ADD SWAP1 DUP3 DUP3 GT DUP5 DUP4 LT OR PUSH3 0x133 JUMPI DUP1 DUP5 SWAP2 PUSH1 0x40 SWAP7 DUP8 SWAP5 DUP6 MSTORE DUP4 CODECOPY DUP2 ADD SUB SLT PUSH3 0x149 JUMPI PUSH3 0x50 DUP3 PUSH3 0x14E JUMP JUMPDEST PUSH3 0x5F PUSH1 0x20 DUP1 SWAP5 ADD PUSH3 0x14E JUMP JUMPDEST PUSH1 0x1 PUSH1 0x1 PUSH1 0xA0 SHL SUB SWAP2 DUP3 AND PUSH1 0x80 SWAP1 DUP2 MSTORE SWAP2 DUP2 AND PUSH1 0xA0 MSTORE PUSH1 0xC0 MSTORE DUP4 MLOAD SWAP2 SWAP1 DUP3 ADD SWAP1 DUP2 GT DUP3 DUP3 LT OR PUSH3 0x133 JUMPI DUP4 MSTORE PUSH1 0x64 DUP2 MSTORE PUSH2 0x1F4 DUP3 DUP3 ADD MSTORE PUSH2 0xBB8 DUP4 DUP3 ADD MSTORE PUSH2 0x2710 PUSH1 0x60 DUP3 ADD MSTORE PUSH1 0x0 SWAP2 DUP3 SWAP1 JUMPDEST PUSH1 0x4 DUP3 LT PUSH3 0x107 JUMPI POP POP POP PUSH1 0x0 SSTORE MLOAD PUSH2 0x1D85 SWAP1 DUP2 PUSH3 0x164 DUP3 CODECOPY PUSH1 0x80 MLOAD DUP2 DUP2 DUP2 PUSH2 0x1BF ADD MSTORE DUP2 DUP2 PUSH2 0x555 ADD MSTORE DUP2 DUP2 PUSH2 0x14B9 ADD MSTORE DUP2 DUP2 PUSH2 0x1A00 ADD MSTORE DUP2 DUP2 PUSH2 0x1A97 ADD MSTORE PUSH2 0x1AEB ADD MSTORE PUSH1 0xA0 MLOAD DUP2 PUSH2 0x7E7 ADD MSTORE PUSH1 0xC0 MLOAD DUP2 PUSH2 0x142F ADD MSTORE RETURN JUMPDEST SWAP1 SWAP2 SWAP3 DUP2 PUSH1 0x1 SWAP2 PUSH2 0xFFFF DUP7 MLOAD AND SWAP1 PUSH3 0xFFFFFF PUSH1 0x3 DUP8 DUP2 MUL SWAP1 SHL SWAP3 DUP4 SHL SWAP3 SHL NOT AND OR SWAP5 ADD SWAP3 ADD SWAP1 PUSH3 0xAC JUMP JUMPDEST PUSH4 0x4E487B71 PUSH1 0xE0 SHL PUSH1 0x0 MSTORE PUSH1 0x41 PUSH1 0x4 MSTORE PUSH1 0x24 PUSH1 0x0 REVERT JUMPDEST PUSH1 0x0 DUP1 REVERT JUMPDEST MLOAD SWAP1 PUSH1 0x1 PUSH1 0x1 PUSH1 0xA0 SHL SUB DUP3 AND DUP3 SUB PUSH3 0x149 JUMPI JUMP INVALID PUSH1 0x80 DUP1 PUSH1 0x40 MSTORE PUSH1 0x4 CALLDATASIZE LT ISZERO PUSH2 0x13 JUMPI PUSH1 0x0 DUP1 REVERT JUMPDEST PUSH1 0x0 SWAP1 DUP2 CALLDATALOAD PUSH1 0xE0 SHR SWAP1 DUP2 PUSH4 0x542975C EQ PUSH2 0x14A5 JUMPI POP DUP1 PUSH4 0x63B78F6D EQ PUSH2 0x145E JUMPI DUP1 PUSH4 0x79B36943 EQ PUSH2 0x1419 JUMPI DUP1 PUSH4 0x923DAA2A EQ PUSH2 0x1325 JUMPI DUP1 PUSH4 0x9B6604D2 EQ PUSH2 0xC0A JUMPI DUP1 PUSH4 0xA11B4528 EQ PUSH2 0xBCC JUMPI DUP1 PUSH4 0xB3F7A166 EQ PUSH2 0x872 JUMPI DUP1 PUSH4 0xB4DCFC77 EQ PUSH2 0x845 JUMPI DUP1 PUSH4 0xC45A0155 EQ PUSH2 0x816 JUMPI DUP1 PUSH4 0xD8264920 EQ PUSH2 0x7D1 JUMPI PUSH4 0xFA461E33 EQ PUSH2 0x9A JUMPI PUSH1 0x0 DUP1 REVERT JUMPDEST CALLVALUE PUSH2 0x7CE JUMPI PUSH1 0x60 CALLDATASIZE PUSH1 0x3 NOT ADD SLT PUSH2 0x7CE JUMPI PUSH1 0x4 CALLDATALOAD SWAP1 PUSH1 0x44 SWAP2 DUP3 CALLDATALOAD SWAP3 PUSH8 0xFFFFFFFFFFFFFFFF DUP1 DUP6 GT PUSH2 0x7C6 JUMPI CALLDATASIZE PUSH1 0x23 DUP7 ADD SLT ISZERO PUSH2 0x7C6 JUMPI DUP5 PUSH1 0x4 ADD CALLDATALOAD SWAP1 DUP2 GT PUSH2 0x7C6 JUMPI DUP5 ADD SWAP4 PUSH1 0x24 SWAP5 CALLDATASIZE DUP7 DUP3 ADD GT PUSH2 0x7CA JUMPI DUP2 PUSH1 0xE0 SWAP2 SUB SLT PUSH2 0x7C6 JUMPI PUSH2 0x100 DUP6 DUP3 ADD PUSH2 0x14FE JUMP JUMPDEST POP PUSH2 0x10C DUP3 DUP3 ADD PUSH2 0x193C JUMP JUMPDEST POP PUSH1 0x64 SWAP2 PUSH2 0x11B DUP4 DUP4 ADD PUSH2 0x14FE JUMP JUMPDEST SWAP2 PUSH2 0x128 PUSH1 0x84 DUP3 ADD PUSH2 0x14FE JUMP JUMPDEST SWAP4 PUSH1 0xA4 DUP3 ADD CALLDATALOAD SWAP8 PUSH2 0x147 PUSH1 0xE4 PUSH2 0x140 PUSH1 0xC4 DUP7 ADD PUSH2 0x14FE JUMP JUMPDEST SWAP5 ADD PUSH2 0x193C JUMP JUMPDEST SWAP7 PUSH1 0x1 PUSH1 0x1 PUSH1 0xA0 SHL SUB SWAP6 DUP7 AND SWAP7 DUP7 AND SWAP4 DUP7 AND SWAP1 DUP10 DUP2 SGT ISZERO PUSH2 0x7BD JUMPI SWAP6 JUMPDEST DUP7 PUSH2 0x16D JUMPI DUP10 DUP1 RETURN JUMPDEST PUSH2 0x175 PUSH2 0x19E2 JUMP JUMPDEST SWAP9 ISZERO PUSH2 0x509 JUMPI DUP10 SWAP11 PUSH1 0x40 MLOAD SWAP10 PUSH4 0x70A08231 PUSH1 0xE0 SHL DUP12 MSTORE ADDRESS PUSH1 0x4 DUP13 ADD MSTORE PUSH1 0x20 SWAP11 DUP12 DUP2 DUP8 DUP2 DUP12 GAS STATICCALL SWAP1 DUP2 ISZERO PUSH2 0x4FE JUMPI DUP14 SWAP2 PUSH2 0x4CD JUMPI JUMPDEST POP PUSH1 0x40 MLOAD PUSH4 0x26B1D5F PUSH1 0xE0 SHL DUP2 MSTORE SWAP8 DUP13 DUP10 PUSH1 0x4 DUP2 PUSH32 0x0 DUP10 AND GAS STATICCALL SWAP9 DUP10 ISZERO PUSH2 0x483 JUMPI DUP15 SWAP10 DUP15 SWAP2 DUP12 SWAP2 PUSH2 0x490 JUMPI JUMPDEST POP PUSH1 0x40 MLOAD PUSH4 0x95EA7B3 PUSH1 0xE0 SHL DUP2 MSTORE PUSH1 0x1 PUSH1 0x1 PUSH1 0xA0 SHL SUB SWAP1 SWAP2 AND PUSH1 0x4 DUP3 ADD MSTORE PUSH1 0x24 DUP2 ADD DUP5 SWAP1 MSTORE SWAP10 DUP11 SWAP1 DUP2 DUP1 PUSH1 0x44 DUP2 ADD JUMPDEST SUB SWAP2 DUP6 GAS CALL SWAP3 DUP4 ISZERO PUSH2 0x483 JUMPI DUP15 SWAP10 DUP15 SWAP5 PUSH2 0x43D JUMPI JUMPDEST POP SWAP1 DUP6 PUSH1 0x84 SWAP3 AND SWAP10 PUSH1 0x40 MLOAD SWAP6 DUP7 SWAP5 DUP6 SWAP4 PUSH4 0x573ADE81 PUSH1 0xE0 SHL DUP6 MSTORE PUSH1 0x4 DUP6 ADD MSTORE DUP11 DUP5 ADD MSTORE DUP13 DUP4 ADD MSTORE DUP8 DUP11 DUP4 ADD MSTORE DUP11 GAS CALL DUP1 ISZERO PUSH2 0x432 JUMPI PUSH2 0x3FE JUMPI JUMPDEST POP DUP4 SWAP3 SWAP2 DUP11 SWAP5 DUP11 SWAP3 PUSH2 0x100 PUSH2 0x286 DUP13 PUSH2 0x1B21 JUMP JUMPDEST ADD MLOAD AND SWAP2 PUSH1 0x40 MLOAD SWAP7 DUP8 SWAP4 DUP5 SWAP3 PUSH4 0x23B872DD PUSH1 0xE0 SHL DUP5 MSTORE PUSH1 0x4 DUP5 ADD MSTORE ADDRESS DUP8 DUP5 ADD MSTORE DUP12 DUP12 DUP5 ADD MSTORE GAS CALL DUP1 ISZERO PUSH2 0x3F3 JUMPI DUP9 SWAP5 DUP8 SWAP5 DUP12 SWAP3 PUSH2 0x3B2 JUMPI JUMPDEST POP PUSH1 0x40 MLOAD SWAP7 DUP8 SWAP6 DUP7 SWAP5 PUSH4 0x1A4CA37B PUSH1 0xE2 SHL DUP7 MSTORE DUP12 PUSH1 0x4 DUP8 ADD MSTORE DUP6 ADD MSTORE ADDRESS SWAP1 DUP5 ADD MSTORE GAS CALL DUP1 ISZERO PUSH2 0x3A7 JUMPI PUSH2 0x374 JUMPI JUMPDEST POP PUSH1 0x40 MLOAD PUSH4 0xA9059CBB PUSH1 0xE0 SHL DUP2 MSTORE CALLER PUSH1 0x4 DUP3 ADD MSTORE PUSH1 0x24 DUP2 ADD SWAP2 SWAP1 SWAP2 MSTORE SWAP3 DUP3 SWAP2 DUP5 SWAP2 PUSH1 0x44 SWAP2 DUP4 SWAP2 SWAP1 GAS CALL DUP1 ISZERO PUSH2 0x369 JUMPI PUSH2 0x331 JUMPI JUMPDEST POP POP JUMPDEST DUP1 CODESIZE DUP1 DUP1 DUP1 DUP1 DUP1 DUP1 DUP1 DUP1 DUP10 DUP1 RETURN JUMPDEST DUP2 DUP2 RETURNDATASIZE DUP4 GT PUSH2 0x362 JUMPI JUMPDEST PUSH2 0x345 DUP2 DUP4 PUSH2 0x1674 JUMP JUMPDEST DUP2 ADD SUB SLT PUSH2 0x35E JUMPI PUSH2 0x356 SWAP1 PUSH2 0x1741 JUMP JUMPDEST POP CODESIZE DUP1 PUSH2 0x320 JUMP JUMPDEST POP DUP1 REVERT JUMPDEST POP RETURNDATASIZE PUSH2 0x33B JUMP JUMPDEST PUSH1 0x40 MLOAD RETURNDATASIZE DUP6 DUP3 RETURNDATACOPY RETURNDATASIZE SWAP1 REVERT JUMPDEST DUP4 DUP1 SWAP3 SWAP6 POP RETURNDATASIZE DUP4 GT PUSH2 0x3A0 JUMPI JUMPDEST PUSH2 0x38B DUP2 DUP4 PUSH2 0x1674 JUMP JUMPDEST DUP2 ADD SUB SLT PUSH2 0x39B JUMPI DUP4 SWAP3 CODESIZE PUSH2 0x2EC JUMP JUMPDEST PUSH1 0x0 DUP1 REVERT JUMPDEST POP RETURNDATASIZE PUSH2 0x381 JUMP JUMPDEST PUSH1 0x40 MLOAD RETURNDATASIZE DUP8 DUP3 RETURNDATACOPY RETURNDATASIZE SWAP1 REVERT JUMPDEST SWAP6 DUP7 SWAP2 SWAP6 POP DUP1 SWAP3 POP RETURNDATASIZE DUP4 GT PUSH2 0x3EC JUMPI JUMPDEST PUSH2 0x3CC DUP2 DUP4 PUSH2 0x1674 JUMP JUMPDEST DUP2 ADD SUB SLT PUSH2 0x3E8 JUMPI DUP9 DUP7 SWAP4 PUSH2 0x3E1 DUP11 SWAP7 PUSH2 0x1741 JUMP JUMPDEST POP CODESIZE PUSH2 0x2BE JUMP JUMPDEST DUP9 DUP1 REVERT JUMPDEST POP RETURNDATASIZE PUSH2 0x3C2 JUMP JUMPDEST PUSH1 0x40 MLOAD RETURNDATASIZE DUP12 DUP3 RETURNDATACOPY RETURNDATASIZE SWAP1 REVERT JUMPDEST DUP10 DUP1 SWAP3 SWAP12 POP SWAP5 SWAP4 SWAP3 SWAP5 RETURNDATASIZE DUP4 GT PUSH2 0x42B JUMPI JUMPDEST PUSH2 0x419 DUP2 DUP4 PUSH2 0x1674 JUMP JUMPDEST DUP2 ADD SUB SLT PUSH2 0x39B JUMPI SWAP1 SWAP2 DUP10 SWAP9 CODESIZE PUSH2 0x272 JUMP JUMPDEST POP RETURNDATASIZE PUSH2 0x40F JUMP JUMPDEST PUSH1 0x40 MLOAD RETURNDATASIZE DUP14 DUP3 RETURNDATACOPY RETURNDATASIZE SWAP1 REVERT JUMPDEST DUP5 DUP2 SWAP6 SWAP3 SWAP4 SWAP12 POP RETURNDATASIZE DUP4 GT PUSH2 0x47C JUMPI JUMPDEST PUSH2 0x456 DUP2 DUP4 PUSH2 0x1674 JUMP JUMPDEST DUP2 ADD SUB SLT PUSH2 0x478 JUMPI DUP14 SWAP9 DUP6 PUSH1 0x84 SWAP3 DUP16 SWAP6 PUSH2 0x46F SWAP1 PUSH2 0x1741 JUMP JUMPDEST POP SWAP2 SWAP3 POP PUSH2 0x238 JUMP JUMPDEST DUP14 DUP1 REVERT JUMPDEST POP RETURNDATASIZE PUSH2 0x44C JUMP JUMPDEST DUP15 PUSH1 0x40 MLOAD SWAP1 RETURNDATASIZE SWAP1 DUP3 RETURNDATACOPY RETURNDATASIZE SWAP1 REVERT JUMPDEST SWAP11 POP POP DUP10 DUP2 RETURNDATASIZE DUP4 GT PUSH2 0x4C6 JUMPI JUMPDEST PUSH2 0x4A7 DUP2 DUP4 PUSH2 0x1674 JUMP JUMPDEST DUP2 ADD SUB SLT PUSH2 0x478 JUMPI DUP13 DUP3 DUP16 PUSH2 0x4BE PUSH2 0x223 SWAP13 PUSH2 0x1696 JUMP JUMPDEST SWAP2 POP SWAP11 PUSH2 0x1F4 JUMP JUMPDEST POP RETURNDATASIZE PUSH2 0x49D JUMP JUMPDEST DUP1 SWAP14 POP DUP13 DUP1 SWAP3 POP RETURNDATASIZE DUP4 GT PUSH2 0x4F7 JUMPI JUMPDEST PUSH2 0x4E6 DUP2 DUP4 PUSH2 0x1674 JUMP JUMPDEST DUP2 ADD SUB SLT PUSH2 0x39B JUMPI DUP13 SWAP12 MLOAD CODESIZE PUSH2 0x1A9 JUMP JUMPDEST POP RETURNDATASIZE PUSH2 0x4DC JUMP JUMPDEST PUSH1 0x40 MLOAD RETURNDATASIZE DUP16 DUP3 RETURNDATACOPY RETURNDATASIZE SWAP1 REVERT JUMPDEST SWAP8 SWAP5 SWAP2 SWAP3 SWAP1 SWAP4 SWAP6 SWAP7 SWAP10 PUSH1 0x40 MLOAD SWAP9 DUP10 SWAP7 PUSH4 0x70A08231 PUSH1 0xE0 SHL DUP9 MSTORE ADDRESS PUSH1 0x4 DUP10 ADD MSTORE DUP13 DUP9 DUP8 PUSH1 0x20 SWAP14 DUP15 SWAP4 GAS STATICCALL SWAP8 DUP9 ISZERO PUSH2 0x7B2 JUMPI DUP13 SWAP9 PUSH2 0x77F JUMPI JUMPDEST POP PUSH1 0x40 MLOAD PUSH4 0x26B1D5F PUSH1 0xE0 SHL DUP2 MSTORE DUP12 DUP2 PUSH1 0x4 DUP2 PUSH32 0x0 DUP8 AND GAS STATICCALL DUP1 ISZERO PUSH2 0x4FE JUMPI DUP10 DUP16 DUP16 SWAP3 DUP16 SWAP4 DUP1 SWAP2 PUSH2 0x742 JUMPI JUMPDEST PUSH1 0x40 MLOAD PUSH4 0x95EA7B3 PUSH1 0xE0 SHL DUP2 MSTORE PUSH1 0x1 PUSH1 0x1 PUSH1 0xA0 SHL SUB SWAP1 SWAP3 AND PUSH1 0x4 DUP4 ADD MSTORE PUSH1 0x24 DUP3 ADD SWAP4 SWAP1 SWAP4 MSTORE SWAP4 POP DUP4 SWAP2 DUP3 SWAP1 DUP2 PUSH1 0x44 DUP2 ADD JUMPDEST SUB SWAP3 GAS CALL DUP1 ISZERO PUSH2 0x4FE JUMPI PUSH2 0x70A JUMPI JUMPDEST POP AND SWAP6 DUP7 EXTCODESIZE ISZERO PUSH2 0x706 JUMPI PUSH1 0x40 MLOAD SWAP12 PUSH4 0x617BA037 PUSH1 0xE0 SHL DUP14 MSTORE PUSH1 0x4 DUP14 ADD MSTORE DUP5 DUP13 ADD MSTORE DUP5 DUP4 DUP13 ADD MSTORE DUP10 DUP3 DUP13 ADD MSTORE DUP10 DUP12 PUSH1 0x84 DUP2 DUP4 DUP11 GAS CALL DUP1 ISZERO PUSH2 0x6FB JUMPI PUSH2 0x6E7 JUMPI JUMPDEST DUP10 SWAP11 POP DUP6 EXTCODESIZE ISZERO PUSH2 0x6E3 JUMPI DUP8 SWAP6 DUP11 SWAP6 DUP7 DUP10 SWAP5 DUP2 SWAP5 PUSH1 0xA4 SWAP8 PUSH1 0x40 MLOAD SWAP14 DUP15 SWAP11 DUP12 SWAP10 PUSH4 0xA415BCAD PUSH1 0xE0 SHL DUP12 MSTORE PUSH1 0x4 DUP12 ADD MSTORE DUP10 ADD MSTORE DUP8 ADD MSTORE DUP6 ADD MSTORE PUSH1 0x84 DUP5 ADD MSTORE GAS CALL DUP1 ISZERO PUSH2 0x3A7 JUMPI DUP5 SWAP4 DUP7 SWAP2 PUSH2 0x6C3 JUMPI JUMPDEST POP POP PUSH1 0x40 MLOAD PUSH4 0xA9059CBB PUSH1 0xE0 SHL DUP2 MSTORE CALLER PUSH1 0x4 DUP3 ADD MSTORE PUSH1 0x24 DUP2 ADD SWAP2 SWAP1 SWAP2 MSTORE SWAP4 DUP5 SWAP2 PUSH1 0x44 SWAP2 DUP4 SWAP2 GAS CALL DUP1 ISZERO PUSH2 0x369 JUMPI PUSH2 0x68F JUMPI JUMPDEST POP POP PUSH2 0x323 JUMP JUMPDEST DUP2 DUP2 RETURNDATASIZE DUP4 GT PUSH2 0x6BC JUMPI JUMPDEST PUSH2 0x6A3 DUP2 DUP4 PUSH2 0x1674 JUMP JUMPDEST DUP2 ADD SUB SLT PUSH2 0x35E JUMPI PUSH2 0x6B4 SWAP1 PUSH2 0x1741 JUMP JUMPDEST POP CODESIZE DUP1 PUSH2 0x688 JUMP JUMPDEST POP RETURNDATASIZE PUSH2 0x699 JUMP JUMPDEST PUSH2 0x6D0 SWAP2 SWAP3 SWAP4 SWAP5 POP PUSH2 0x15F4 JUMP JUMPDEST PUSH2 0x6DE JUMPI SWAP1 DUP3 SWAP2 DUP5 CODESIZE PUSH2 0x656 JUMP JUMPDEST POP POP POP REVERT JUMPDEST DUP10 DUP1 REVERT JUMPDEST SWAP9 SWAP1 SWAP10 PUSH2 0x6F3 SWAP1 PUSH2 0x15F4 JUMP JUMPDEST SWAP8 DUP10 SWAP1 PUSH2 0x60A JUMP JUMPDEST PUSH1 0x40 MLOAD RETURNDATASIZE DUP13 DUP3 RETURNDATACOPY RETURNDATASIZE SWAP1 REVERT JUMPDEST DUP11 DUP1 REVERT JUMPDEST DUP12 DUP2 DUP2 RETURNDATASIZE DUP4 GT PUSH2 0x73B JUMPI JUMPDEST PUSH2 0x71F DUP2 DUP4 PUSH2 0x1674 JUMP JUMPDEST DUP2 ADD SUB SLT PUSH2 0x737 JUMPI PUSH2 0x730 SWAP1 PUSH2 0x1741 JUMP JUMPDEST POP CODESIZE PUSH2 0x5CB JUMP JUMPDEST DUP13 DUP1 REVERT JUMPDEST POP RETURNDATASIZE PUSH2 0x715 JUMP JUMPDEST POP POP POP POP DUP2 DUP2 RETURNDATASIZE DUP4 GT PUSH2 0x778 JUMPI JUMPDEST PUSH2 0x75A DUP2 DUP4 PUSH2 0x1674 JUMP JUMPDEST DUP2 ADD SUB SLT PUSH2 0x737 JUMPI DUP12 DUP10 DUP16 DUP16 PUSH2 0x772 PUSH2 0x5BC SWAP6 PUSH2 0x1696 JUMP JUMPDEST SWAP1 PUSH2 0x58B JUMP JUMPDEST POP RETURNDATASIZE PUSH2 0x750 JUMP JUMPDEST SWAP1 SWAP8 POP DUP11 DUP2 DUP2 RETURNDATASIZE DUP4 GT PUSH2 0x7AB JUMPI JUMPDEST PUSH2 0x797 DUP2 DUP4 PUSH2 0x1674 JUMP JUMPDEST DUP2 ADD SUB SLT PUSH2 0x7A7 JUMPI MLOAD SWAP7 CODESIZE PUSH2 0x540 JUMP JUMPDEST DUP12 DUP1 REVERT JUMPDEST POP RETURNDATASIZE PUSH2 0x78D JUMP JUMPDEST PUSH1 0x40 MLOAD RETURNDATASIZE DUP15 DUP3 RETURNDATACOPY RETURNDATASIZE SWAP1 REVERT JUMPDEST POP DUP2 CALLDATALOAD SWAP6 PUSH2 0x164 JUMP JUMPDEST DUP4 DUP1 REVERT JUMPDEST DUP5 DUP1 REVERT JUMPDEST DUP1 REVERT JUMPDEST POP CALLVALUE PUSH2 0x7CE JUMPI DUP1 PUSH1 0x3 NOT CALLDATASIZE ADD SLT PUSH2 0x7CE JUMPI PUSH1 0x40 MLOAD PUSH32 0x0 PUSH1 0x1 PUSH1 0x1 PUSH1 0xA0 SHL SUB AND DUP2 MSTORE PUSH1 0x20 SWAP1 RETURN JUMPDEST POP CALLVALUE PUSH2 0x7CE JUMPI DUP1 PUSH1 0x3 NOT CALLDATASIZE ADD SLT PUSH2 0x7CE JUMPI PUSH1 0x20 PUSH1 0x40 MLOAD PUSH20 0x1F98431C8AD98523631AE4A59F267346EA31F984 DUP2 MSTORE RETURN JUMPDEST POP CALLVALUE PUSH2 0x7CE JUMPI DUP1 PUSH1 0x3 NOT CALLDATASIZE ADD SLT PUSH2 0x7CE JUMPI PUSH1 0x20 PUSH2 0x860 PUSH2 0x19E2 JUMP JUMPDEST PUSH1 0x40 MLOAD PUSH1 0x1 PUSH1 0x1 PUSH1 0xA0 SHL SUB SWAP1 SWAP2 AND DUP2 MSTORE RETURN JUMPDEST POP CALLVALUE PUSH2 0x7CE JUMPI PUSH2 0x881 CALLDATASIZE PUSH2 0x1512 JUMP JUMPDEST SWAP2 SWAP4 SWAP1 DUP1 ISZERO PUSH2 0xB78 JUMPI PUSH1 0x1 DUP4 EQ DUP1 ISZERO PUSH2 0xB6E JUMPI JUMPDEST PUSH2 0x89E SWAP1 PUSH2 0x1578 JUMP JUMPDEST PUSH1 0x1 PUSH1 0x1 PUSH1 0xA0 SHL SUB SWAP1 DUP2 PUSH2 0x8B2 DUP8 DUP8 PUSH2 0x17B1 JUMP JUMPDEST AND SWAP5 PUSH1 0x40 MLOAD PUSH4 0xDFE1681 PUSH1 0xE0 SHL DUP2 MSTORE PUSH1 0x20 SWAP8 DUP9 DUP3 PUSH1 0x4 DUP2 DUP12 GAS STATICCALL SWAP2 DUP3 ISZERO PUSH2 0xB63 JUMPI SWAP2 DUP10 SWAP4 SWAP2 DUP7 SWAP4 DUP9 SWAP3 PUSH2 0xB20 JUMPI JUMPDEST POP DUP4 AND SWAP6 DUP7 SWAP2 AND EQ SWAP6 PUSH1 0x40 PUSH1 0x1 DUP9 EQ SWAP3 DUP4 PUSH1 0x0 EQ PUSH2 0xB04 JUMPI DUP5 PUSH5 0x1000276A4 SWAP2 JUMPDEST DUP13 DUP5 MLOAD SWAP9 DUP10 ADD MSTORE DUP11 DUP5 DUP10 ADD MSTORE AND SWAP11 DUP12 PUSH1 0x60 DUP9 ADD MSTORE DUP9 PUSH1 0x80 DUP9 ADD MSTORE DUP11 PUSH1 0xA0 DUP9 ADD MSTORE DUP8 DUP5 PUSH1 0xC0 SWAP12 CALLER DUP14 DUP12 ADD MSTORE DUP2 PUSH1 0xE0 DUP12 ADD MSTORE PUSH1 0xE0 DUP11 MSTORE PUSH2 0x93E DUP11 PUSH2 0x1657 JUMP JUMPDEST PUSH2 0x95E DUP7 MLOAD SWAP11 DUP12 SWAP7 DUP8 SWAP6 DUP7 SWAP5 PUSH4 0x2515961 PUSH1 0xE3 SHL DUP7 MSTORE ADDRESS PUSH1 0x4 DUP8 ADD PUSH2 0x16C0 JUMP JUMPDEST SUB SWAP3 GAS CALL SWAP3 DUP4 ISZERO PUSH2 0xAF7 JUMPI DUP8 SWAP1 DUP3 SWAP6 DUP4 SWAP6 PUSH2 0xABD JUMPI JUMPDEST POP SWAP1 PUSH1 0x24 SWAP2 PUSH2 0x981 PUSH2 0x19E2 JUMP JUMPDEST AND PUSH1 0x40 MLOAD SWAP3 DUP4 DUP1 SWAP3 PUSH4 0x2FE4A15F PUSH1 0xE2 SHL DUP3 MSTORE CALLER PUSH1 0x4 DUP4 ADD MSTORE GAS STATICCALL DUP1 ISZERO PUSH2 0xAB2 JUMPI DUP3 SWAP1 PUSH2 0xA7A JUMPI JUMPDEST PUSH8 0xDE0B6B3A7640000 SWAP2 POP GT ISZERO PUSH2 0xA40 JUMPI SWAP2 PUSH2 0x120 SWAP8 SWAP6 SWAP4 SWAP2 PUSH32 0xED1A51B9740A2824E026A65B28E087347EF688D1217FE8B53E01F358B2340228 SWAP10 SWAP8 SWAP6 SWAP4 POP PUSH1 0x0 EQ PUSH2 0xA38 JUMPI POP SWAP2 JUMPDEST PUSH1 0x40 MLOAD SWAP6 CALLER DUP8 MSTORE PUSH1 0xE0 DUP11 DUP9 ADD MSTORE PUSH1 0x8 PUSH1 0xE0 DUP9 ADD MSTORE PUSH8 0x666C617368417065 PUSH1 0xC0 SHL PUSH2 0x100 DUP9 ADD MSTORE PUSH1 0x40 DUP8 ADD MSTORE PUSH1 0x60 DUP7 ADD MSTORE PUSH1 0x80 DUP6 ADD MSTORE PUSH1 0xA0 DUP5 ADD MSTORE DUP3 ADD MSTORE LOG1 PUSH1 0x40 MLOAD PUSH1 0x1 DUP2 MSTORE RETURN JUMPDEST SWAP1 POP SWAP2 PUSH2 0x9F1 JUMP JUMPDEST PUSH1 0x40 MLOAD PUSH3 0x461BCD PUSH1 0xE5 SHL DUP2 MSTORE PUSH1 0x4 DUP2 ADD DUP12 SWAP1 MSTORE PUSH1 0x12 PUSH1 0x24 DUP3 ADD MSTORE PUSH18 0x6865616C746820666163746F72203C203121 PUSH1 0x70 SHL PUSH1 0x44 DUP3 ADD MSTORE PUSH1 0x64 SWAP1 REVERT JUMPDEST POP DUP8 DUP2 DUP2 RETURNDATASIZE DUP4 GT PUSH2 0xAAB JUMPI JUMPDEST PUSH2 0xA90 DUP2 DUP4 PUSH2 0x1674 JUMP JUMPDEST DUP2 ADD SUB SLT PUSH2 0x35E JUMPI PUSH1 0xA0 PUSH8 0xDE0B6B3A7640000 SWAP2 ADD MLOAD PUSH2 0x9A8 JUMP JUMPDEST POP RETURNDATASIZE PUSH2 0xA86 JUMP JUMPDEST PUSH1 0x40 MLOAD RETURNDATASIZE DUP5 DUP3 RETURNDATACOPY RETURNDATASIZE SWAP1 REVERT JUMPDEST PUSH1 0x24 SWAP3 SWAP7 POP PUSH2 0xAE5 SWAP2 SWAP6 POP PUSH1 0x40 RETURNDATASIZE PUSH1 0x40 GT PUSH2 0xAF0 JUMPI JUMPDEST PUSH2 0xADD DUP2 DUP4 PUSH2 0x1674 JUMP JUMPDEST DUP2 ADD SWAP1 PUSH2 0x16AA JUMP JUMPDEST SWAP6 SWAP1 SWAP6 SWAP5 SWAP1 SWAP2 PUSH2 0x974 JUMP JUMPDEST POP RETURNDATASIZE PUSH2 0xAD3 JUMP JUMPDEST POP PUSH1 0x40 MLOAD SWAP1 RETURNDATASIZE SWAP1 DUP3 RETURNDATACOPY RETURNDATASIZE SWAP1 REVERT JUMPDEST DUP5 PUSH20 0xFFFD8963EFD1FC6A506488495D951D5263988D25 SWAP2 PUSH2 0x901 JUMP JUMPDEST SWAP3 SWAP5 DUP4 SWAP2 SWAP5 POP DUP1 SWAP3 POP RETURNDATASIZE DUP4 GT PUSH2 0xB5C JUMPI JUMPDEST PUSH2 0xB3B DUP2 DUP4 PUSH2 0x1674 JUMP JUMPDEST DUP2 ADD SUB SLT PUSH2 0xB58 JUMPI SWAP2 DUP5 SWAP2 DUP3 PUSH2 0xB51 DUP12 SWAP6 PUSH2 0x1696 JUMP JUMPDEST SWAP2 SWAP1 PUSH2 0x8E0 JUMP JUMPDEST DUP6 DUP1 REVERT JUMPDEST POP RETURNDATASIZE PUSH2 0xB31 JUMP JUMPDEST PUSH1 0x40 MLOAD RETURNDATASIZE DUP9 DUP3 RETURNDATACOPY RETURNDATASIZE SWAP1 REVERT JUMPDEST POP PUSH1 0x2 DUP4 EQ PUSH2 0x895 JUMP JUMPDEST PUSH1 0x40 MLOAD PUSH3 0x461BCD PUSH1 0xE5 SHL DUP2 MSTORE PUSH1 0x20 PUSH1 0x4 DUP3 ADD MSTORE PUSH1 0x26 PUSH1 0x24 DUP3 ADD MSTORE PUSH32 0x626F72726F7720616D6F756E742073686F756C64206265206772656174657220 PUSH1 0x44 DUP3 ADD MSTORE PUSH6 0x7468616E203 PUSH1 0xD4 SHL PUSH1 0x64 DUP3 ADD MSTORE PUSH1 0x84 SWAP1 REVERT JUMPDEST POP CALLVALUE PUSH2 0x7CE JUMPI PUSH1 0x20 CALLDATASIZE PUSH1 0x3 NOT ADD SLT PUSH2 0x7CE JUMPI PUSH1 0x4 CALLDATALOAD SWAP1 PUSH1 0x4 DUP3 LT ISZERO PUSH2 0x7CE JUMPI PUSH1 0x20 PUSH3 0xFFFFFF PUSH2 0xBFA DUP5 PUSH2 0x154B JUMP JUMPDEST SWAP2 SWAP1 SLOAD PUSH1 0x40 MLOAD SWAP3 PUSH1 0x3 SHL SHR AND DUP2 MSTORE RETURN JUMPDEST POP CALLVALUE PUSH2 0x7CE JUMPI PUSH2 0xC19 CALLDATASIZE PUSH2 0x1512 JUMP JUMPDEST DUP2 SWAP3 SWAP5 SWAP4 SWAP2 SWAP3 DUP1 ISZERO PUSH2 0x12D2 JUMPI PUSH1 0x1 DUP3 EQ DUP1 ISZERO PUSH2 0x12C8 JUMPI JUMPDEST PUSH2 0xC39 SWAP1 PUSH2 0x1578 JUMP JUMPDEST PUSH1 0x1 PUSH1 0x1 PUSH1 0xA0 SHL SUB PUSH2 0xC49 PUSH2 0x1ACD JUMP JUMPDEST PUSH1 0x40 MLOAD PUSH4 0x28DD2D01 PUSH1 0xE0 SHL DUP1 DUP3 MSTORE PUSH1 0x1 PUSH1 0x1 PUSH1 0xA0 SHL SUB DUP8 AND PUSH1 0x4 DUP4 ADD MSTORE CALLER PUSH1 0x24 DUP4 ADD MSTORE SWAP4 SWAP3 SWAP1 SWAP2 PUSH2 0x120 SWAP2 DUP4 SWAP2 PUSH1 0x44 SWAP2 DUP4 SWAP2 AND GAS STATICCALL SWAP1 DUP2 ISZERO PUSH2 0x1022 JUMPI DUP8 SWAP1 DUP9 SWAP3 PUSH2 0x129C JUMPI JUMPDEST POP ISZERO PUSH2 0x125E JUMPI ISZERO PUSH2 0x1219 JUMPI PUSH2 0x120 PUSH1 0x1 PUSH1 0x1 PUSH1 0xA0 SHL SUB PUSH2 0xCAC PUSH2 0x1ACD JUMP JUMPDEST PUSH1 0x40 MLOAD SWAP5 DUP6 MSTORE PUSH1 0x1 PUSH1 0x1 PUSH1 0xA0 SHL SUB DUP11 AND PUSH1 0x4 DUP7 ADD MSTORE CALLER PUSH1 0x24 DUP7 ADD MSTORE DUP5 SWAP2 PUSH1 0x44 SWAP2 DUP4 SWAP2 AND GAS STATICCALL SWAP2 DUP3 ISZERO PUSH2 0xB63 JUMPI DUP7 SWAP1 DUP8 SWAP4 PUSH2 0x11DC JUMPI JUMPDEST POP SWAP2 PUSH1 0x2 DUP5 EQ PUSH2 0x11D4 JUMPI JUMPDEST POP DUP2 ISZERO PUSH2 0x119C JUMPI DUP2 LT PUSH2 0x1194 JUMPI JUMPDEST POP PUSH2 0xD05 DUP6 DUP4 PUSH2 0x17B1 JUMP JUMPDEST SWAP5 PUSH1 0x24 PUSH1 0x20 PUSH1 0x1 PUSH1 0x1 PUSH1 0xA0 SHL SUB PUSH2 0x100 PUSH2 0xD1E DUP8 PUSH2 0x1B21 JUMP JUMPDEST ADD MLOAD AND PUSH1 0x40 MLOAD SWAP3 DUP4 DUP1 SWAP3 PUSH4 0x70A08231 PUSH1 0xE0 SHL DUP3 MSTORE CALLER PUSH1 0x4 DUP4 ADD MSTORE GAS STATICCALL SWAP1 DUP2 ISZERO PUSH2 0xB63 JUMPI DUP7 SWAP2 PUSH2 0x1162 JUMPI JUMPDEST POP PUSH1 0x24 PUSH1 0x20 PUSH1 0x1 PUSH1 0x1 PUSH1 0xA0 SHL SUB PUSH2 0xD5D PUSH2 0x1A79 JUMP JUMPDEST PUSH1 0x40 MLOAD PUSH4 0xB3596F07 PUSH1 0xE0 SHL DUP2 MSTORE PUSH1 0x1 PUSH1 0x1 PUSH1 0xA0 SHL SUB DUP10 AND PUSH1 0x4 DUP3 ADD MSTORE SWAP4 DUP5 SWAP3 SWAP1 SWAP2 DUP4 SWAP2 AND GAS STATICCALL DUP1 ISZERO PUSH2 0x1022 JUMPI DUP8 SWAP1 PUSH2 0x112B JUMPI JUMPDEST PUSH1 0x24 SWAP2 POP PUSH2 0x140 PUSH1 0x1 PUSH1 0x1 PUSH1 0xA0 SHL SUB PUSH2 0xDA7 PUSH2 0x1ACD JUMP JUMPDEST PUSH1 0x40 MLOAD PUSH4 0x3E150141 PUSH1 0xE0 SHL DUP2 MSTORE PUSH1 0x1 PUSH1 0x1 PUSH1 0xA0 SHL SUB DUP11 AND PUSH1 0x4 DUP3 ADD MSTORE SWAP5 DUP6 SWAP3 SWAP1 SWAP2 DUP4 SWAP2 AND GAS STATICCALL SWAP2 DUP3 ISZERO PUSH2 0x1120 JUMPI DUP9 SWAP3 PUSH2 0x10F3 JUMPI JUMPDEST POP SWAP1 SWAP2 PUSH1 0x24 SWAP2 SWAP1 PUSH1 0x20 PUSH1 0x1 PUSH1 0x1 PUSH1 0xA0 SHL SUB PUSH2 0xDF4 PUSH2 0x1A79 JUMP JUMPDEST PUSH1 0x40 MLOAD PUSH4 0xB3596F07 PUSH1 0xE0 SHL DUP2 MSTORE PUSH1 0x1 PUSH1 0x1 PUSH1 0xA0 SHL SUB DUP10 AND PUSH1 0x4 DUP3 ADD MSTORE SWAP6 DUP7 SWAP3 SWAP1 SWAP2 DUP4 SWAP2 AND GAS STATICCALL SWAP3 DUP4 ISZERO PUSH2 0x3F3 JUMPI DUP10 SWAP4 PUSH2 0x10BE JUMPI JUMPDEST POP PUSH1 0x24 SWAP2 SWAP1 PUSH2 0x140 PUSH1 0x1 PUSH1 0x1 PUSH1 0xA0 SHL SUB PUSH2 0xE40 PUSH2 0x1ACD JUMP JUMPDEST PUSH1 0x40 MLOAD PUSH4 0x3E150141 PUSH1 0xE0 SHL DUP2 MSTORE PUSH1 0x1 PUSH1 0x1 PUSH1 0xA0 SHL SUB DUP11 AND PUSH1 0x4 DUP3 ADD MSTORE SWAP6 DUP7 SWAP3 SWAP1 SWAP2 DUP4 SWAP2 AND GAS STATICCALL SWAP3 DUP4 ISZERO PUSH2 0x6FB JUMPI SWAP3 PUSH2 0xEA2 SWAP3 PUSH2 0xE9C SWAP3 PUSH2 0xEA7 SWAP7 SWAP6 DUP14 SWAP4 PUSH2 0x1078 JUMPI JUMPDEST POP PUSH2 0xE96 SWAP2 PUSH2 0xE90 SWAP2 PUSH2 0x19AB JUMP JUMPDEST SWAP2 PUSH2 0x19D4 JUMP JUMPDEST SWAP1 PUSH2 0x19AB JUMP JUMPDEST SWAP4 PUSH2 0x19D4 JUMP JUMPDEST PUSH2 0x19AB JUMP JUMPDEST SWAP1 DUP2 ISZERO PUSH2 0x1064 JUMPI DIV DUP5 DUP2 LT PUSH2 0x105C JUMPI JUMPDEST POP PUSH1 0x1 PUSH1 0x1 PUSH1 0xA0 SHL SUB DUP2 DUP2 AND SWAP1 DUP5 AND LT SWAP4 PUSH1 0x1 DUP6 SUB PUSH2 0x1041 JUMPI PUSH5 0x1000276A4 SWAP7 JUMPDEST PUSH1 0x1 PUSH1 0xFF SHL DUP3 EQ PUSH2 0x102D JUMPI PUSH1 0x40 DUP1 MLOAD PUSH1 0x1 PUSH1 0x1 PUSH1 0xA0 SHL SUB SWAP3 DUP4 AND PUSH1 0x20 DUP3 ADD DUP2 SWAP1 MSTORE DUP2 DUP4 ADD DUP10 SWAP1 MSTORE DUP8 DUP5 AND PUSH1 0x60 DUP4 ADD MSTORE SWAP3 DUP6 AND PUSH1 0x80 DUP3 ADD MSTORE PUSH1 0xA0 DUP2 ADD DUP7 SWAP1 MSTORE CALLER PUSH1 0xC0 DUP3 ADD MSTORE PUSH1 0x1 PUSH1 0xE0 DUP1 DUP4 ADD SWAP2 SWAP1 SWAP2 MSTORE DUP2 MSTORE SWAP8 SWAP9 PUSH2 0xF5D SWAP9 SWAP2 SWAP3 SWAP1 PUSH2 0xF3B DUP4 PUSH2 0x1657 JUMP JUMPDEST DUP11 DUP5 MLOAD DUP1 SWAP12 DUP2 SWAP6 DUP3 SWAP5 PUSH4 0x2515961 PUSH1 0xE3 SHL DUP5 MSTORE DUP14 DUP11 DUP7 SUB SWAP1 ADDRESS PUSH1 0x4 DUP8 ADD PUSH2 0x16C0 JUMP JUMPDEST SUB SWAP3 GAS CALL SWAP6 DUP7 ISZERO PUSH2 0x1022 JUMPI PUSH32 0xED1A51B9740A2824E026A65B28E087347EF688D1217FE8B53E01F358B2340228 SWAP7 PUSH2 0x120 SWAP7 DUP10 SWAP3 DUP11 SWAP3 PUSH2 0xFFE JUMPI JUMPDEST POP PUSH2 0xFF6 JUMPI POP SWAP2 JUMPDEST PUSH1 0x40 DUP1 MLOAD CALLER DUP2 MSTORE PUSH1 0xE0 PUSH1 0x20 DUP3 ADD DUP2 SWAP1 MSTORE PUSH1 0xB SWAP1 DUP3 ADD MSTORE PUSH11 0x199B185CDA155B9DDA5B99 PUSH1 0xAA SHL PUSH2 0x100 DUP3 ADD MSTORE PUSH1 0x1 PUSH1 0x1 PUSH1 0xA0 SHL SUB SWAP7 DUP8 AND SWAP2 DUP2 ADD SWAP2 SWAP1 SWAP2 MSTORE SWAP5 AND PUSH1 0x60 DUP6 ADD MSTORE PUSH1 0x80 DUP5 ADD MSTORE PUSH1 0xA0 DUP4 ADD MSTORE PUSH1 0xC0 DUP3 ADD MSTORE LOG1 DUP1 RETURN JUMPDEST SWAP1 POP SWAP2 PUSH2 0xF9F JUMP JUMPDEST SWAP1 SWAP3 POP PUSH2 0x101A SWAP2 POP PUSH1 0x40 RETURNDATASIZE PUSH1 0x40 GT PUSH2 0xAF0 JUMPI PUSH2 0xADD DUP2 DUP4 PUSH2 0x1674 JUMP JUMPDEST SWAP1 SWAP2 CODESIZE PUSH2 0xF97 JUMP JUMPDEST PUSH1 0x40 MLOAD RETURNDATASIZE DUP10 DUP3 RETURNDATACOPY RETURNDATASIZE SWAP1 REVERT JUMPDEST PUSH4 0x4E487B71 PUSH1 0xE0 SHL DUP8 MSTORE PUSH1 0x11 PUSH1 0x4 MSTORE PUSH1 0x24 DUP8 REVERT JUMPDEST PUSH20 0xFFFD8963EFD1FC6A506488495D951D5263988D25 SWAP7 PUSH2 0xED8 JUMP JUMPDEST SWAP4 POP CODESIZE PUSH2 0xEB7 JUMP JUMPDEST PUSH4 0x4E487B71 PUSH1 0xE0 SHL DUP8 MSTORE PUSH1 0x12 PUSH1 0x4 MSTORE PUSH1 0x24 DUP8 REVERT JUMPDEST PUSH2 0xE90 SWAP2 SWAP4 POP SWAP2 PUSH2 0x10A5 PUSH2 0xE96 SWAP4 PUSH2 0x140 RETURNDATASIZE PUSH2 0x140 GT PUSH2 0x10B7 JUMPI JUMPDEST PUSH2 0x109D DUP2 DUP4 PUSH2 0x1674 JUMP JUMPDEST DUP2 ADD SWAP1 PUSH2 0x1949 JUMP JUMPDEST POP POP POP POP POP POP POP POP POP SWAP4 SWAP2 POP SWAP2 PUSH2 0xE82 JUMP JUMPDEST POP RETURNDATASIZE PUSH2 0x1093 JUMP JUMPDEST SWAP1 SWAP3 POP PUSH1 0x20 DUP2 RETURNDATASIZE PUSH1 0x20 GT PUSH2 0x10EB JUMPI JUMPDEST DUP2 PUSH2 0x10DA PUSH1 0x20 SWAP4 DUP4 PUSH2 0x1674 JUMP JUMPDEST DUP2 ADD SUB SLT PUSH2 0x3E8 JUMPI MLOAD SWAP2 PUSH1 0x24 PUSH2 0xE28 JUMP JUMPDEST RETURNDATASIZE SWAP2 POP PUSH2 0x10CD JUMP JUMPDEST PUSH1 0x24 SWAP3 POP PUSH2 0x1111 SWAP1 PUSH2 0x140 RETURNDATASIZE PUSH2 0x140 GT PUSH2 0x10B7 JUMPI PUSH2 0x109D DUP2 DUP4 PUSH2 0x1674 JUMP JUMPDEST POP POP POP POP POP POP POP POP POP SWAP2 PUSH2 0xDDB JUMP JUMPDEST PUSH1 0x40 MLOAD RETURNDATASIZE DUP11 DUP3 RETURNDATACOPY RETURNDATASIZE SWAP1 REVERT JUMPDEST POP PUSH1 0x20 DUP2 RETURNDATASIZE PUSH1 0x20 GT PUSH2 0x115A JUMPI JUMPDEST DUP2 PUSH2 0x1145 PUSH1 0x20 SWAP4 DUP4 PUSH2 0x1674 JUMP JUMPDEST DUP2 ADD SUB SLT PUSH2 0x1156 JUMPI PUSH1 0x24 SWAP1 MLOAD PUSH2 0xD90 JUMP JUMPDEST DUP7 DUP1 REVERT JUMPDEST RETURNDATASIZE SWAP2 POP PUSH2 0x1138 JUMP JUMPDEST SWAP1 POP PUSH1 0x20 DUP2 RETURNDATASIZE PUSH1 0x20 GT PUSH2 0x118C JUMPI JUMPDEST DUP2 PUSH2 0x117D PUSH1 0x20 SWAP4 DUP4 PUSH2 0x1674 JUMP JUMPDEST DUP2 ADD SUB SLT PUSH2 0xB58 JUMPI MLOAD CODESIZE PUSH2 0xD48 JUMP JUMPDEST RETURNDATASIZE SWAP2 POP PUSH2 0x1170 JUMP JUMPDEST SWAP3 POP CODESIZE PUSH2 0xCFA JUMP JUMPDEST PUSH1 0x40 MLOAD PUSH3 0x461BCD PUSH1 0xE5 SHL DUP2 MSTORE PUSH1 0x20 PUSH1 0x4 DUP3 ADD MSTORE PUSH1 0x10 PUSH1 0x24 DUP3 ADD MSTORE PUSH16 0x6E6F2064656274206F6E204161766521 PUSH1 0x80 SHL PUSH1 0x44 DUP3 ADD MSTORE PUSH1 0x64 SWAP1 REVERT JUMPDEST SWAP2 POP CODESIZE PUSH2 0xCEC JUMP JUMPDEST SWAP1 POP PUSH2 0x1203 SWAP2 SWAP3 POP PUSH2 0x120 RETURNDATASIZE PUSH2 0x120 GT PUSH2 0x1212 JUMPI JUMPDEST PUSH2 0x11FB DUP2 DUP4 PUSH2 0x1674 JUMP JUMPDEST DUP2 ADD SWAP1 PUSH2 0x174E JUMP JUMPDEST POP POP POP POP POP POP SWAP3 SWAP2 POP CODESIZE PUSH2 0xCE1 JUMP JUMPDEST POP RETURNDATASIZE PUSH2 0x11F1 JUMP JUMPDEST PUSH1 0x40 MLOAD PUSH3 0x461BCD PUSH1 0xE5 SHL DUP2 MSTORE PUSH1 0x20 PUSH1 0x4 DUP3 ADD MSTORE PUSH1 0x1B PUSH1 0x24 DUP3 ADD MSTORE PUSH32 0x617065206173736574206973206E6F7420636F6C6C61746572616C0000000000 PUSH1 0x44 DUP3 ADD MSTORE PUSH1 0x64 SWAP1 REVERT JUMPDEST PUSH1 0x40 MLOAD PUSH3 0x461BCD PUSH1 0xE5 SHL DUP2 MSTORE PUSH1 0x20 PUSH1 0x4 DUP3 ADD MSTORE PUSH1 0x16 PUSH1 0x24 DUP3 ADD MSTORE PUSH22 0x6170652061737365742062616C616E6365206973203 PUSH1 0x54 SHL PUSH1 0x44 DUP3 ADD MSTORE PUSH1 0x64 SWAP1 REVERT JUMPDEST SWAP1 POP PUSH2 0x12B9 SWAP2 POP PUSH2 0x120 RETURNDATASIZE PUSH2 0x120 GT PUSH2 0x1212 JUMPI PUSH2 0x11FB DUP2 DUP4 PUSH2 0x1674 JUMP JUMPDEST SWAP8 SWAP7 POP POP POP POP POP POP POP CODESIZE PUSH2 0xC8E JUMP JUMPDEST POP PUSH1 0x2 DUP3 EQ PUSH2 0xC30 JUMP JUMPDEST PUSH1 0x40 MLOAD PUSH3 0x461BCD PUSH1 0xE5 SHL DUP2 MSTORE PUSH1 0x20 PUSH1 0x4 DUP3 ADD MSTORE PUSH1 0x25 PUSH1 0x24 DUP3 ADD MSTORE PUSH32 0x726570617920616D6F756E742073686F756C6420626520677265617465722074 PUSH1 0x44 DUP3 ADD MSTORE PUSH5 0x68616E203 PUSH1 0xDC SHL PUSH1 0x64 DUP3 ADD MSTORE PUSH1 0x84 SWAP1 REVERT JUMPDEST POP CALLVALUE PUSH2 0x7CE JUMPI PUSH1 0x20 CALLDATASIZE PUSH1 0x3 NOT ADD SLT PUSH2 0x7CE JUMPI PUSH2 0x1E0 PUSH2 0x134A PUSH2 0x1345 PUSH2 0x14E8 JUMP JUMPDEST PUSH2 0x1B21 JUMP JUMPDEST PUSH1 0x40 MLOAD SWAP1 DUP1 MLOAD MLOAD DUP3 MSTORE PUSH1 0x1 PUSH1 0x1 PUSH1 0x80 SHL SUB DUP1 PUSH1 0x20 DUP4 ADD MLOAD AND PUSH1 0x20 DUP5 ADD MSTORE DUP1 PUSH1 0x40 DUP4 ADD MLOAD AND PUSH1 0x40 DUP5 ADD MSTORE DUP1 PUSH1 0x60 DUP4 ADD MLOAD AND PUSH1 0x60 DUP5 ADD MSTORE DUP1 PUSH1 0x80 DUP4 ADD MLOAD AND PUSH1 0x80 DUP5 ADD MSTORE DUP1 PUSH1 0xA0 DUP4 ADD MLOAD AND PUSH1 0xA0 DUP5 ADD MSTORE PUSH5 0xFFFFFFFFFF PUSH1 0xC0 DUP4 ADD MLOAD AND PUSH1 0xC0 DUP5 ADD MSTORE PUSH2 0xFFFF PUSH1 0xE0 DUP4 ADD MLOAD AND PUSH1 0xE0 DUP5 ADD MSTORE PUSH1 0x1 DUP1 PUSH1 0xA0 SHL SUB PUSH2 0x100 DUP2 DUP2 DUP6 ADD MLOAD AND SWAP1 DUP6 ADD MSTORE PUSH2 0x120 DUP2 DUP2 DUP6 ADD MLOAD AND SWAP1 DUP6 ADD MSTORE PUSH2 0x140 DUP2 DUP2 DUP6 ADD MLOAD AND SWAP1 DUP6 ADD MSTORE PUSH2 0x160 SWAP1 DUP2 DUP5 ADD MLOAD AND SWAP1 DUP5 ADD MSTORE PUSH2 0x180 DUP2 DUP2 DUP5 ADD MLOAD AND SWAP1 DUP5 ADD MSTORE PUSH2 0x1A0 DUP2 DUP2 DUP5 ADD MLOAD AND SWAP1 DUP5 ADD MSTORE PUSH2 0x1C0 DUP1 SWAP3 ADD MLOAD AND SWAP1 DUP3 ADD MSTORE RETURN JUMPDEST POP CALLVALUE PUSH2 0x7CE JUMPI DUP1 PUSH1 0x3 NOT CALLDATASIZE ADD SLT PUSH2 0x7CE JUMPI PUSH1 0x40 MLOAD PUSH32 0x0 PUSH1 0x1 PUSH1 0x1 PUSH1 0xA0 SHL SUB AND DUP2 MSTORE PUSH1 0x20 SWAP1 RETURN JUMPDEST POP CALLVALUE PUSH2 0x7CE JUMPI PUSH1 0x40 CALLDATASIZE PUSH1 0x3 NOT ADD SLT PUSH2 0x7CE JUMPI PUSH2 0x1478 PUSH2 0x14E8 JUMP JUMPDEST PUSH1 0x24 CALLDATALOAD SWAP2 PUSH1 0x1 PUSH1 0x1 PUSH1 0xA0 SHL SUB SWAP2 SWAP1 DUP3 DUP5 AND DUP5 SUB PUSH2 0x7CE JUMPI POP PUSH1 0x20 SWAP3 PUSH2 0x149C SWAP2 PUSH2 0x17B1 JUMP JUMPDEST PUSH1 0x40 MLOAD SWAP2 AND DUP2 MSTORE RETURN JUMPDEST SWAP1 POP CALLVALUE PUSH2 0x35E JUMPI DUP2 PUSH1 0x3 NOT CALLDATASIZE ADD SLT PUSH2 0x35E JUMPI PUSH32 0x0 PUSH1 0x1 PUSH1 0x1 PUSH1 0xA0 SHL SUB AND DUP2 MSTORE PUSH1 0x20 SWAP1 RETURN JUMPDEST PUSH1 0x4 CALLDATALOAD SWAP1 PUSH1 0x1 PUSH1 0x1 PUSH1 0xA0 SHL SUB DUP3 AND DUP3 SUB PUSH2 0x39B JUMPI JUMP JUMPDEST CALLDATALOAD SWAP1 PUSH1 0x1 PUSH1 0x1 PUSH1 0xA0 SHL SUB DUP3 AND DUP3 SUB PUSH2 0x39B JUMPI JUMP JUMPDEST PUSH1 0x80 SWAP1 PUSH1 0x3 NOT ADD SLT PUSH2 0x39B JUMPI PUSH1 0x1 PUSH1 0x1 PUSH1 0xA0 SHL SUB SWAP1 PUSH1 0x4 CALLDATALOAD DUP3 DUP2 AND DUP2 SUB PUSH2 0x39B JUMPI SWAP2 PUSH1 0x24 CALLDATALOAD SWAP1 DUP2 AND DUP2 SUB PUSH2 0x39B JUMPI SWAP1 PUSH1 0x44 CALLDATALOAD SWAP1 PUSH1 0x64 CALLDATALOAD SWAP1 JUMP JUMPDEST SWAP1 PUSH1 0x4 DUP3 LT ISZERO PUSH2 0x1562 JUMPI PUSH1 0x3 PUSH1 0xA DUP1 DUP5 DIV SWAP4 MOD MUL SWAP1 JUMP JUMPDEST PUSH4 0x4E487B71 PUSH1 0xE0 SHL PUSH1 0x0 MSTORE PUSH1 0x32 PUSH1 0x4 MSTORE PUSH1 0x24 PUSH1 0x0 REVERT JUMPDEST ISZERO PUSH2 0x157F JUMPI JUMP JUMPDEST PUSH1 0x40 MLOAD PUSH3 0x461BCD PUSH1 0xE5 SHL DUP2 MSTORE PUSH1 0x20 PUSH1 0x4 DUP3 ADD MSTORE PUSH1 0x41 PUSH1 0x24 DUP3 ADD MSTORE PUSH32 0x696E746572657374526174654D6F6465206D757374206265203120666F722073 PUSH1 0x44 DUP3 ADD MSTORE PUSH32 0x7461626C652072617465206F72203220666F72207661726961626C6520726174 PUSH1 0x64 DUP3 ADD MSTORE PUSH1 0x65 PUSH1 0xF8 SHL PUSH1 0x84 DUP3 ADD MSTORE PUSH1 0xA4 SWAP1 REVERT JUMPDEST PUSH8 0xFFFFFFFFFFFFFFFF DUP2 GT PUSH2 0x1608 JUMPI PUSH1 0x40 MSTORE JUMP JUMPDEST PUSH4 0x4E487B71 PUSH1 0xE0 SHL PUSH1 0x0 MSTORE PUSH1 0x41 PUSH1 0x4 MSTORE PUSH1 0x24 PUSH1 0x0 REVERT JUMPDEST PUSH2 0x1E0 DUP2 ADD SWAP1 DUP2 LT PUSH8 0xFFFFFFFFFFFFFFFF DUP3 GT OR PUSH2 0x1608 JUMPI PUSH1 0x40 MSTORE JUMP JUMPDEST PUSH1 0x20 DUP2 ADD SWAP1 DUP2 LT PUSH8 0xFFFFFFFFFFFFFFFF DUP3 GT OR PUSH2 0x1608 JUMPI PUSH1 0x40 MSTORE JUMP JUMPDEST PUSH2 0x100 DUP2 ADD SWAP1 DUP2 LT PUSH8 0xFFFFFFFFFFFFFFFF DUP3 GT OR PUSH2 0x1608 JUMPI PUSH1 0x40 MSTORE JUMP JUMPDEST SWAP1 PUSH1 0x1F DUP1 NOT SWAP2 ADD AND DUP2 ADD SWAP1 DUP2 LT PUSH8 0xFFFFFFFFFFFFFFFF DUP3 GT OR PUSH2 0x1608 JUMPI PUSH1 0x40 MSTORE JUMP JUMPDEST MLOAD SWAP1 PUSH1 0x1 PUSH1 0x1 PUSH1 0xA0 SHL SUB DUP3 AND DUP3 SUB PUSH2 0x39B JUMPI JUMP JUMPDEST SWAP2 SWAP1 DUP3 PUSH1 0x40 SWAP2 SUB SLT PUSH2 0x39B JUMPI PUSH1 0x20 DUP3 MLOAD SWAP3 ADD MLOAD SWAP1 JUMP JUMPDEST SWAP4 SWAP1 SWAP2 SWAP6 SWAP5 SWAP3 PUSH1 0x1 DUP1 PUSH1 0xA0 SHL SUB DUP1 SWAP4 AND DUP6 MSTORE PUSH1 0x20 SWAP7 ISZERO ISZERO DUP8 DUP7 ADD MSTORE PUSH1 0x40 DUP6 ADD MSTORE AND PUSH1 0x60 DUP4 ADD MSTORE PUSH1 0xA0 PUSH1 0x80 DUP4 ADD MSTORE DUP1 MLOAD SWAP1 DUP2 PUSH1 0xA0 DUP5 ADD MSTORE PUSH1 0x0 JUMPDEST DUP3 DUP2 LT PUSH2 0x171B JUMPI POP POP PUSH1 0xC0 SWAP3 SWAP4 POP PUSH1 0x0 DUP4 DUP3 DUP5 ADD ADD MSTORE PUSH1 0x1F DUP1 NOT SWAP2 ADD AND ADD ADD SWAP1 JUMP JUMPDEST DUP2 DUP2 ADD DUP7 ADD MLOAD DUP5 DUP3 ADD PUSH1 0xC0 ADD MSTORE DUP6 ADD PUSH2 0x16F9 JUMP JUMPDEST MLOAD SWAP1 PUSH5 0xFFFFFFFFFF DUP3 AND DUP3 SUB PUSH2 0x39B JUMPI JUMP JUMPDEST MLOAD SWAP1 DUP2 ISZERO ISZERO DUP3 SUB PUSH2 0x39B JUMPI JUMP JUMPDEST SWAP1 DUP2 PUSH2 0x120 SWAP2 SUB SLT PUSH2 0x39B JUMPI DUP1 MLOAD SWAP2 PUSH1 0x20 DUP3 ADD MLOAD SWAP2 PUSH1 0x40 DUP2 ADD MLOAD SWAP2 PUSH1 0x60 DUP3 ADD MLOAD SWAP2 PUSH1 0x80 DUP2 ADD MLOAD SWAP2 PUSH1 0xA0 DUP3 ADD MLOAD SWAP2 PUSH1 0xC0 DUP2 ADD MLOAD SWAP2 PUSH2 0x179A PUSH2 0x100 PUSH2 0x1793 PUSH1 0xE0 DUP6 ADD PUSH2 0x172F JUMP JUMPDEST SWAP4 ADD PUSH2 0x1741 JUMP JUMPDEST SWAP1 JUMP JUMPDEST MLOAD SWAP1 PUSH1 0x1 PUSH1 0x1 PUSH1 0x80 SHL SUB DUP3 AND DUP3 SUB PUSH2 0x39B JUMPI JUMP JUMPDEST PUSH1 0x0 SWAP3 DUP4 SWAP3 DUP4 SWAP2 SWAP1 DUP3 JUMPDEST PUSH1 0x4 DUP1 DUP3 LT ISZERO PUSH2 0x1933 JUMPI PUSH2 0x17CE DUP3 PUSH2 0x154B JUMP JUMPDEST SWAP1 SLOAD SWAP2 PUSH1 0x40 SWAP2 PUSH3 0xFFFFFF DUP4 MLOAD SWAP5 PUSH4 0xB4C7741 PUSH1 0xE1 SHL DUP7 MSTORE PUSH1 0x1 DUP1 PUSH1 0xA0 SHL SUB SWAP3 DUP4 DUP13 AND DUP6 DUP9 ADD MSTORE DUP4 DUP10 AND PUSH1 0x24 DUP9 ADD MSTORE PUSH1 0x3 SHL SHR AND PUSH1 0x44 DUP6 ADD MSTORE PUSH1 0x20 SWAP4 DUP5 DUP2 PUSH1 0x64 DUP2 PUSH20 0x1F98431C8AD98523631AE4A59F267346EA31F984 GAS STATICCALL SWAP1 DUP2 ISZERO PUSH2 0x1929 JUMPI DUP12 SWAP2 PUSH2 0x18F4 JUMPI JUMPDEST POP AND SWAP3 DUP4 ISZERO PUSH2 0x18EB JUMPI DUP1 DUP4 MLOAD DUP1 SWAP4 PUSH4 0xD343281 PUSH1 0xE1 SHL DUP3 MSTORE DUP2 DUP8 GAS STATICCALL SWAP3 DUP4 ISZERO PUSH2 0x18E2 JUMPI POP DUP10 SWAP3 PUSH2 0x18A8 JUMPI JUMPDEST POP POP PUSH1 0x1 PUSH1 0x1 PUSH1 0x80 SHL SUB DUP1 DUP3 AND SWAP1 DUP8 AND LT PUSH2 0x189C JUMPI JUMPDEST POP POP JUMPDEST PUSH1 0x0 NOT DUP2 EQ PUSH2 0x1888 JUMPI PUSH1 0x1 ADD PUSH2 0x17BB JUMP JUMPDEST PUSH4 0x4E487B71 PUSH1 0xE0 SHL DUP7 MSTORE PUSH1 0x11 PUSH1 0x4 MSTORE PUSH1 0x24 DUP7 REVERT JUMPDEST SWAP1 SWAP8 POP SWAP4 POP CODESIZE DUP1 PUSH2 0x1874 JUMP JUMPDEST SWAP1 DUP1 SWAP3 POP DUP2 RETURNDATASIZE DUP4 GT PUSH2 0x18DB JUMPI JUMPDEST PUSH2 0x18BF DUP2 DUP4 PUSH2 0x1674 JUMP JUMPDEST DUP2 ADD SUB SLT PUSH2 0x18D7 JUMPI PUSH2 0x18D0 SWAP1 PUSH2 0x179D JUMP JUMPDEST CODESIZE DUP1 PUSH2 0x185E JUMP JUMPDEST DUP8 DUP1 REVERT JUMPDEST POP RETURNDATASIZE PUSH2 0x18B5 JUMP JUMPDEST MLOAD RETURNDATASIZE DUP12 DUP3 RETURNDATACOPY RETURNDATASIZE SWAP1 REVERT JUMPDEST POP POP POP POP PUSH2 0x1877 JUMP JUMPDEST SWAP1 POP DUP5 DUP2 DUP2 RETURNDATASIZE DUP4 GT PUSH2 0x1922 JUMPI JUMPDEST PUSH2 0x190B DUP2 DUP4 PUSH2 0x1674 JUMP JUMPDEST DUP2 ADD SUB SLT PUSH2 0x706 JUMPI PUSH2 0x191C SWAP1 PUSH2 0x1696 JUMP JUMPDEST CODESIZE PUSH2 0x1833 JUMP JUMPDEST POP RETURNDATASIZE PUSH2 0x1901 JUMP JUMPDEST DUP5 MLOAD RETURNDATASIZE DUP14 DUP3 RETURNDATACOPY RETURNDATASIZE SWAP1 REVERT JUMPDEST POP POP POP SWAP3 POP POP POP JUMP JUMPDEST CALLDATALOAD SWAP1 DUP2 ISZERO ISZERO DUP3 SUB PUSH2 0x39B JUMPI JUMP JUMPDEST SWAP2 SWAP1 DUP3 PUSH2 0x140 SWAP2 SUB SLT PUSH2 0x39B JUMPI DUP2 MLOAD SWAP2 PUSH1 0x20 DUP2 ADD MLOAD SWAP2 PUSH1 0x40 DUP3 ADD MLOAD SWAP2 PUSH1 0x60 DUP2 ADD MLOAD SWAP2 PUSH1 0x80 DUP3 ADD MLOAD SWAP2 PUSH2 0x197D PUSH1 0xA0 DUP3 ADD PUSH2 0x1741 JUMP JUMPDEST SWAP2 PUSH2 0x198A PUSH1 0xC0 DUP4 ADD PUSH2 0x1741 JUMP JUMPDEST SWAP2 PUSH2 0x1997 PUSH1 0xE0 DUP3 ADD PUSH2 0x1741 JUMP JUMPDEST SWAP2 PUSH2 0x179A PUSH2 0x120 PUSH2 0x1793 PUSH2 0x100 DUP6 ADD PUSH2 0x1741 JUMP JUMPDEST DUP2 DUP2 MUL SWAP3 SWAP2 DUP2 ISZERO SWAP2 DUP5 DIV EQ OR ISZERO PUSH2 0x19BE JUMPI JUMP JUMPDEST PUSH4 0x4E487B71 PUSH1 0xE0 SHL PUSH1 0x0 MSTORE PUSH1 0x11 PUSH1 0x4 MSTORE PUSH1 0x24 PUSH1 0x0 REVERT JUMPDEST PUSH1 0x4D DUP2 GT PUSH2 0x19BE JUMPI PUSH1 0xA EXP SWAP1 JUMP JUMPDEST PUSH1 0x40 MLOAD PUSH4 0x26B1D5F PUSH1 0xE0 SHL DUP2 MSTORE PUSH1 0x1 PUSH1 0x1 PUSH1 0xA0 SHL SUB SWAP1 PUSH1 0x20 DUP2 PUSH1 0x4 DUP2 PUSH32 0x0 DUP7 AND GAS STATICCALL SWAP1 DUP2 ISZERO PUSH2 0x1A6D JUMPI PUSH1 0x0 SWAP2 PUSH2 0x1A36 JUMPI POP AND SWAP1 JUMP JUMPDEST SWAP1 PUSH1 0x20 DUP3 RETURNDATASIZE DUP3 GT PUSH2 0x1A65 JUMPI JUMPDEST DUP2 PUSH2 0x1A4F PUSH1 0x20 SWAP4 DUP4 PUSH2 0x1674 JUMP JUMPDEST DUP2 ADD SUB SLT PUSH2 0x7CE JUMPI POP PUSH2 0x1A61 SWAP1 PUSH2 0x1696 JUMP JUMPDEST AND SWAP1 JUMP JUMPDEST RETURNDATASIZE SWAP2 POP PUSH2 0x1A42 JUMP JUMPDEST PUSH1 0x40 MLOAD RETURNDATASIZE PUSH1 0x0 DUP3 RETURNDATACOPY RETURNDATASIZE SWAP1 REVERT JUMPDEST PUSH1 0x40 MLOAD PUSH4 0x1F94A275 PUSH1 0xE3 SHL DUP2 MSTORE PUSH1 0x1 PUSH1 0x1 PUSH1 0xA0 SHL SUB SWAP1 PUSH1 0x20 DUP2 PUSH1 0x4 DUP2 PUSH32 0x0 DUP7 AND GAS STATICCALL SWAP1 DUP2 ISZERO PUSH2 0x1A6D JUMPI PUSH1 0x0 SWAP2 PUSH2 0x1A36 JUMPI POP AND SWAP1 JUMP JUMPDEST PUSH1 0x40 MLOAD PUSH4 0xE860ACCB PUSH1 0xE0 SHL DUP2 MSTORE PUSH1 0x1 PUSH1 0x1 PUSH1 0xA0 SHL SUB SWAP1 PUSH1 0x20 DUP2 PUSH1 0x4 DUP2 PUSH32 0x0 DUP7 AND GAS STATICCALL SWAP1 DUP2 ISZERO PUSH2 0x1A6D JUMPI PUSH1 0x0 SWAP2 PUSH2 0x1A36 JUMPI POP AND SWAP1 JUMP JUMPDEST PUSH1 0x40 SWAP1 DUP2 MLOAD PUSH2 0x1B2F DUP2 PUSH2 0x161E JUMP JUMPDEST DUP3 MLOAD SWAP2 PUSH2 0x1B3B DUP4 PUSH2 0x163B JUMP JUMPDEST PUSH1 0x0 SWAP3 DUP4 DUP2 MSTORE DUP3 MSTORE DUP3 PUSH1 0x20 DUP4 ADD MSTORE DUP3 DUP5 DUP4 ADD MSTORE DUP3 PUSH1 0x60 DUP4 ADD MSTORE DUP3 PUSH1 0x80 DUP4 ADD MSTORE DUP3 PUSH1 0xA0 DUP4 ADD MSTORE DUP3 PUSH1 0xC0 DUP4 ADD MSTORE DUP3 PUSH1 0xE0 DUP4 ADD MSTORE PUSH2 0x100 DUP4 DUP2 DUP5 ADD MSTORE PUSH2 0x120 DUP5 DUP2 DUP6 ADD MSTORE PUSH2 0x140 DUP6 DUP2 DUP7 ADD MSTORE PUSH2 0x160 SWAP1 DUP7 DUP3 DUP8 ADD MSTORE PUSH2 0x180 SWAP3 DUP8 DUP5 DUP9 ADD MSTORE PUSH2 0x1A0 SWAP5 DUP9 DUP7 DUP10 ADD MSTORE DUP9 PUSH2 0x1C0 DUP1 SWAP10 ADD MSTORE PUSH1 0x1 DUP1 PUSH1 0xA0 SHL SUB SWAP9 DUP10 PUSH2 0x1BB8 PUSH2 0x19E2 JUMP JUMPDEST AND DUP12 MLOAD SWAP11 DUP12 SWAP10 PUSH4 0x35EA6A75 PUSH1 0xE0 SHL DUP12 MSTORE AND PUSH1 0x4 DUP11 ADD MSTORE DUP9 PUSH1 0x24 PUSH2 0x1E0 SWAP13 DUP14 SWAP4 GAS STATICCALL SWAP11 DUP12 ISZERO PUSH2 0x1D45 JUMPI DUP2 SWAP12 PUSH2 0x1BF5 JUMPI JUMPDEST POP POP POP POP POP POP POP POP POP POP POP SWAP1 JUMP JUMPDEST SWAP1 SWAP2 SWAP3 SWAP4 SWAP5 SWAP6 SWAP7 SWAP8 DUP11 DUP2 SWAP11 SWAP12 SWAP13 POP RETURNDATASIZE DUP14 GT PUSH2 0x1D3E JUMPI JUMPDEST PUSH2 0x1C15 DUP2 DUP4 PUSH2 0x1674 JUMP JUMPDEST DUP2 ADD SUB SWAP11 DUP12 SLT PUSH2 0x35E JUMPI PUSH1 0x20 DUP2 MLOAD SWAP12 PUSH2 0x1C2D DUP14 PUSH2 0x161E JUMP JUMPDEST SLT PUSH2 0x35E JUMPI DUP1 MLOAD PUSH2 0x1C3D DUP2 PUSH2 0x163B JUMP JUMPDEST DUP10 MLOAD DUP2 MSTORE DUP12 MSTORE PUSH2 0x1C4F PUSH1 0x20 DUP11 ADD PUSH2 0x179D JUMP JUMPDEST PUSH1 0x20 DUP13 ADD MSTORE PUSH2 0x1C5F DUP2 DUP11 ADD PUSH2 0x179D JUMP JUMPDEST SWAP1 DUP12 ADD MSTORE PUSH2 0x1C6F PUSH1 0x60 DUP10 ADD PUSH2 0x179D JUMP JUMPDEST PUSH1 0x60 DUP12 ADD MSTORE PUSH2 0x1C80 PUSH1 0x80 DUP10 ADD PUSH2 0x179D JUMP JUMPDEST PUSH1 0x80 DUP12 ADD MSTORE PUSH2 0x1C91 PUSH1 0xA0 DUP10 ADD PUSH2 0x179D JUMP JUMPDEST PUSH1 0xA0 DUP12 ADD MSTORE PUSH2 0x1CA2 PUSH1 0xC0 DUP10 ADD PUSH2 0x172F JUMP JUMPDEST PUSH1 0xC0 DUP12 ADD MSTORE PUSH1 0xE0 DUP9 ADD MLOAD SWAP1 PUSH2 0xFFFF DUP3 AND DUP3 SUB PUSH2 0x7CE JUMPI POP SWAP2 PUSH2 0x1D2A SWAP8 SWAP6 SWAP4 SWAP2 DUP10 SWAP8 SWAP6 SWAP4 PUSH1 0xE0 DUP13 ADD MSTORE PUSH2 0x1CD5 DUP2 DUP9 ADD PUSH2 0x1696 JUMP JUMPDEST SWAP1 DUP12 ADD MSTORE PUSH2 0x1CE4 DUP2 DUP8 ADD PUSH2 0x1696 JUMP JUMPDEST SWAP1 DUP11 ADD MSTORE PUSH2 0x1CF3 DUP2 DUP7 ADD PUSH2 0x1696 JUMP JUMPDEST SWAP1 DUP10 ADD MSTORE PUSH2 0x1D02 DUP2 DUP6 ADD PUSH2 0x1696 JUMP JUMPDEST SWAP1 DUP9 ADD MSTORE PUSH2 0x1D11 DUP2 DUP5 ADD PUSH2 0x179D JUMP JUMPDEST SWAP1 DUP8 ADD MSTORE PUSH2 0x1D20 DUP2 DUP4 ADD PUSH2 0x179D JUMP JUMPDEST SWAP1 DUP7 ADD MSTORE ADD PUSH2 0x179D JUMP JUMPDEST SWAP1 DUP3 ADD MSTORE CODESIZE DUP1 DUP1 DUP1 DUP1 DUP1 DUP1 DUP1 DUP1 DUP1 DUP1 PUSH2 0x1BE7 JUMP JUMPDEST POP RETURNDATASIZE PUSH2 0x1C0B JUMP JUMPDEST MLOAD SWAP1 RETURNDATASIZE SWAP1 DUP3 RETURNDATACOPY RETURNDATASIZE SWAP1 REVERT INVALID LOG2 PUSH5 0x6970667358 0x22 SLT KECCAK256 PUSH2 0xB221 PUSH13 0x3012F25F2107D611FADF8A8C16 0x4A 0x21 GAS DUP16 PUSH5 0x4AD7E6A814 DUP15 PUSH26 0x33A64A64736F6C63430008140033000000000000000000000000 "},"methodIdentifiers":{"ADDRESSES_PROVIDER()":"0542975c","LENDING_POOL()":"b4dcfc77","UNISWAP_ROUTER()":"d8264920","UNISWAP_ROUTER_ADDRESS()":"79b36943","factory()":"c45a0155","flashApe(address,address,uint256,uint256)":"b3f7a166","flashUnwind(address,address,uint256,uint256)":"9b6604d2","getAaveAssetReserveData(address)":"923daa2a","getBestPool(address,address)":"63b78f6d","uniswapV3SwapCallback(int256,int256,bytes)":"fa461e33","v3Fees(uint256)":"a11b4528"}}}}}