{"contracts/libraries/ReserveConfiguration.sol":{"ReserveConfiguration":{"abi":[{"inputs":[],"name":"DEBT_CEILING_DECIMALS","outputs":[{"internalType":"uint256","name":"","type":"uint256"}],"stateMutability":"view","type":"function"},{"inputs":[],"name":"MAX_RESERVES_COUNT","outputs":[{"internalType":"uint16","name":"","type":"uint16"}],"stateMutability":"view","type":"function"}],"evm":{"bytecode":{"linkReferences":{},"object":"6080806040523461001957609b908161001f823930815050f35b600080fdfe6080806040526004361015601257600080fd5b600090813560e01c908163280d5de914604c57506331b561ba14603457600080fd5b80600319360112604957602060405160808152f35b80fd5b90508160031936011260615780600260209252f35b5080fdfea26469706673582212209c8acb45407f6a90dc3006a5d66a8597abc89dc3327f25b2175072d46e460d7664736f6c63430008140033","opcodes":"PUSH1 0x80 DUP1 PUSH1 0x40 MSTORE CALLVALUE PUSH2 0x19 JUMPI PUSH1 0x9B SWAP1 DUP2 PUSH2 0x1F DUP3 CODECOPY ADDRESS DUP2 POP POP RETURN JUMPDEST PUSH1 0x0 DUP1 REVERT INVALID PUSH1 0x80 DUP1 PUSH1 0x40 MSTORE PUSH1 0x4 CALLDATASIZE LT ISZERO PUSH1 0x12 JUMPI PUSH1 0x0 DUP1 REVERT JUMPDEST PUSH1 0x0 SWAP1 DUP2 CALLDATALOAD PUSH1 0xE0 SHR SWAP1 DUP2 PUSH4 0x280D5DE9 EQ PUSH1 0x4C JUMPI POP PUSH4 0x31B561BA EQ PUSH1 0x34 JUMPI PUSH1 0x0 DUP1 REVERT JUMPDEST DUP1 PUSH1 0x3 NOT CALLDATASIZE ADD SLT PUSH1 0x49 JUMPI PUSH1 0x20 PUSH1 0x40 MLOAD PUSH1 0x80 DUP2 MSTORE RETURN JUMPDEST DUP1 REVERT JUMPDEST SWAP1 POP DUP2 PUSH1 0x3 NOT CALLDATASIZE ADD SLT PUSH1 0x61 JUMPI DUP1 PUSH1 0x2 PUSH1 0x20 SWAP3 MSTORE RETURN JUMPDEST POP DUP1 REVERT INVALID LOG2 PUSH5 0x6970667358 0x22 SLT KECCAK256 SWAP13 DUP11 0xCB GASLIMIT BLOCKHASH PUSH32 0x6A90DC3006A5D66A8597ABC89DC3327F25B2175072D46E460D7664736F6C6343 STOP ADDMOD EQ STOP CALLER "},"methodIdentifiers":{"DEBT_CEILING_DECIMALS()":"280d5de9","MAX_RESERVES_COUNT()":"31b561ba"}}}}}