{"contracts/libraries/Errors.sol":{"Errors":{"abi":[{"inputs":[],"name":"ACL_ADMIN_CANNOT_BE_ZERO","outputs":[{"internalType":"string","name":"","type":"string"}],"stateMutability":"view","type":"function"},{"inputs":[],"name":"ADDRESSES_PROVIDER_ALREADY_ADDED","outputs":[{"internalType":"string","name":"","type":"string"}],"stateMutability":"view","type":"function"},{"inputs":[],"name":"ADDRESSES_PROVIDER_NOT_REGISTERED","outputs":[{"internalType":"string","name":"","type":"string"}],"stateMutability":"view","type":"function"},{"inputs":[],"name":"AMOUNT_BIGGER_THAN_MAX_LOAN_SIZE_STABLE","outputs":[{"internalType":"string","name":"","type":"string"}],"stateMutability":"view","type":"function"},{"inputs":[],"name":"ASSET_NOT_BORROWABLE_IN_ISOLATION","outputs":[{"internalType":"string","name":"","type":"string"}],"stateMutability":"view","type":"function"},{"inputs":[],"name":"ASSET_NOT_LISTED","outputs":[{"internalType":"string","name":"","type":"string"}],"stateMutability":"view","type":"function"},{"inputs":[],"name":"BORROWING_NOT_ENABLED","outputs":[{"internalType":"string","name":"","type":"string"}],"stateMutability":"view","type":"function"},{"inputs":[],"name":"BORROW_CAP_EXCEEDED","outputs":[{"internalType":"string","name":"","type":"string"}],"stateMutability":"view","type":"function"},{"inputs":[],"name":"BRIDGE_PROTOCOL_FEE_INVALID","outputs":[{"internalType":"string","name":"","type":"string"}],"stateMutability":"view","type":"function"},{"inputs":[],"name":"CALLER_MUST_BE_POOL","outputs":[{"internalType":"string","name":"","type":"string"}],"stateMutability":"view","type":"function"},{"inputs":[],"name":"CALLER_NOT_ASSET_LISTING_OR_POOL_ADMIN","outputs":[{"internalType":"string","name":"","type":"string"}],"stateMutability":"view","type":"function"},{"inputs":[],"name":"CALLER_NOT_ATOKEN","outputs":[{"internalType":"string","name":"","type":"string"}],"stateMutability":"view","type":"function"},{"inputs":[],"name":"CALLER_NOT_BRIDGE","outputs":[{"internalType":"string","name":"","type":"string"}],"stateMutability":"view","type":"function"},{"inputs":[],"name":"CALLER_NOT_EMERGENCY_ADMIN","outputs":[{"internalType":"string","name":"","type":"string"}],"stateMutability":"view","type":"function"},{"inputs":[],"name":"CALLER_NOT_POOL_ADMIN","outputs":[{"internalType":"string","name":"","type":"string"}],"stateMutability":"view","type":"function"},{"inputs":[],"name":"CALLER_NOT_POOL_CONFIGURATOR","outputs":[{"internalType":"string","name":"","type":"string"}],"stateMutability":"view","type":"function"},{"inputs":[],"name":"CALLER_NOT_POOL_OR_EMERGENCY_ADMIN","outputs":[{"internalType":"string","name":"","type":"string"}],"stateMutability":"view","type":"function"},{"inputs":[],"name":"CALLER_NOT_RISK_OR_POOL_ADMIN","outputs":[{"internalType":"string","name":"","type":"string"}],"stateMutability":"view","type":"function"},{"inputs":[],"name":"COLLATERAL_BALANCE_IS_ZERO","outputs":[{"internalType":"string","name":"","type":"string"}],"stateMutability":"view","type":"function"},{"inputs":[],"name":"COLLATERAL_CANNOT_BE_LIQUIDATED","outputs":[{"internalType":"string","name":"","type":"string"}],"stateMutability":"view","type":"function"},{"inputs":[],"name":"COLLATERAL_CANNOT_COVER_NEW_BORROW","outputs":[{"internalType":"string","name":"","type":"string"}],"stateMutability":"view","type":"function"},{"inputs":[],"name":"COLLATERAL_SAME_AS_BORROWING_CURRENCY","outputs":[{"internalType":"string","name":"","type":"string"}],"stateMutability":"view","type":"function"},{"inputs":[],"name":"DEBT_CEILING_EXCEEDED","outputs":[{"internalType":"string","name":"","type":"string"}],"stateMutability":"view","type":"function"},{"inputs":[],"name":"DEBT_CEILING_NOT_ZERO","outputs":[{"internalType":"string","name":"","type":"string"}],"stateMutability":"view","type":"function"},{"inputs":[],"name":"EMODE_CATEGORY_RESERVED","outputs":[{"internalType":"string","name":"","type":"string"}],"stateMutability":"view","type":"function"},{"inputs":[],"name":"FLASHLOAN_DISABLED","outputs":[{"internalType":"string","name":"","type":"string"}],"stateMutability":"view","type":"function"},{"inputs":[],"name":"FLASHLOAN_PREMIUM_INVALID","outputs":[{"internalType":"string","name":"","type":"string"}],"stateMutability":"view","type":"function"},{"inputs":[],"name":"HEALTH_FACTOR_LOWER_THAN_LIQUIDATION_THRESHOLD","outputs":[{"internalType":"string","name":"","type":"string"}],"stateMutability":"view","type":"function"},{"inputs":[],"name":"HEALTH_FACTOR_NOT_BELOW_THRESHOLD","outputs":[{"internalType":"string","name":"","type":"string"}],"stateMutability":"view","type":"function"},{"inputs":[],"name":"INCONSISTENT_EMODE_CATEGORY","outputs":[{"internalType":"string","name":"","type":"string"}],"stateMutability":"view","type":"function"},{"inputs":[],"name":"INCONSISTENT_FLASHLOAN_PARAMS","outputs":[{"internalType":"string","name":"","type":"string"}],"stateMutability":"view","type":"function"},{"inputs":[],"name":"INCONSISTENT_PARAMS_LENGTH","outputs":[{"internalType":"string","name":"","type":"string"}],"stateMutability":"view","type":"function"},{"inputs":[],"name":"INTEREST_RATE_REBALANCE_CONDITIONS_NOT_MET","outputs":[{"internalType":"string","name":"","type":"string"}],"stateMutability":"view","type":"function"},{"inputs":[],"name":"INVALID_ADDRESSES_PROVIDER","outputs":[{"internalType":"string","name":"","type":"string"}],"stateMutability":"view","type":"function"},{"inputs":[],"name":"INVALID_ADDRESSES_PROVIDER_ID","outputs":[{"internalType":"string","name":"","type":"string"}],"stateMutability":"view","type":"function"},{"inputs":[],"name":"INVALID_AMOUNT","outputs":[{"internalType":"string","name":"","type":"string"}],"stateMutability":"view","type":"function"},{"inputs":[],"name":"INVALID_BORROW_CAP","outputs":[{"internalType":"string","name":"","type":"string"}],"stateMutability":"view","type":"function"},{"inputs":[],"name":"INVALID_BURN_AMOUNT","outputs":[{"internalType":"string","name":"","type":"string"}],"stateMutability":"view","type":"function"},{"inputs":[],"name":"INVALID_DEBT_CEILING","outputs":[{"internalType":"string","name":"","type":"string"}],"stateMutability":"view","type":"function"},{"inputs":[],"name":"INVALID_DECIMALS","outputs":[{"internalType":"string","name":"","type":"string"}],"stateMutability":"view","type":"function"},{"inputs":[],"name":"INVALID_EMODE_CATEGORY","outputs":[{"internalType":"string","name":"","type":"string"}],"stateMutability":"view","type":"function"},{"inputs":[],"name":"INVALID_EMODE_CATEGORY_ASSIGNMENT","outputs":[{"internalType":"string","name":"","type":"string"}],"stateMutability":"view","type":"function"},{"inputs":[],"name":"INVALID_EMODE_CATEGORY_PARAMS","outputs":[{"internalType":"string","name":"","type":"string"}],"stateMutability":"view","type":"function"},{"inputs":[],"name":"INVALID_EXPIRATION","outputs":[{"internalType":"string","name":"","type":"string"}],"stateMutability":"view","type":"function"},{"inputs":[],"name":"INVALID_FLASHLOAN_EXECUTOR_RETURN","outputs":[{"internalType":"string","name":"","type":"string"}],"stateMutability":"view","type":"function"},{"inputs":[],"name":"INVALID_INTEREST_RATE_MODE_SELECTED","outputs":[{"internalType":"string","name":"","type":"string"}],"stateMutability":"view","type":"function"},{"inputs":[],"name":"INVALID_LIQUIDATION_PROTOCOL_FEE","outputs":[{"internalType":"string","name":"","type":"string"}],"stateMutability":"view","type":"function"},{"inputs":[],"name":"INVALID_LIQ_BONUS","outputs":[{"internalType":"string","name":"","type":"string"}],"stateMutability":"view","type":"function"},{"inputs":[],"name":"INVALID_LIQ_THRESHOLD","outputs":[{"internalType":"string","name":"","type":"string"}],"stateMutability":"view","type":"function"},{"inputs":[],"name":"INVALID_LTV","outputs":[{"internalType":"string","name":"","type":"string"}],"stateMutability":"view","type":"function"},{"inputs":[],"name":"INVALID_MINT_AMOUNT","outputs":[{"internalType":"string","name":"","type":"string"}],"stateMutability":"view","type":"function"},{"inputs":[],"name":"INVALID_OPTIMAL_STABLE_TO_TOTAL_DEBT_RATIO","outputs":[{"internalType":"string","name":"","type":"string"}],"stateMutability":"view","type":"function"},{"inputs":[],"name":"INVALID_OPTIMAL_USAGE_RATIO","outputs":[{"internalType":"string","name":"","type":"string"}],"stateMutability":"view","type":"function"},{"inputs":[],"name":"INVALID_RESERVE_FACTOR","outputs":[{"internalType":"string","name":"","type":"string"}],"stateMutability":"view","type":"function"},{"inputs":[],"name":"INVALID_RESERVE_INDEX","outputs":[{"internalType":"string","name":"","type":"string"}],"stateMutability":"view","type":"function"},{"inputs":[],"name":"INVALID_RESERVE_PARAMS","outputs":[{"internalType":"string","name":"","type":"string"}],"stateMutability":"view","type":"function"},{"inputs":[],"name":"INVALID_SIGNATURE","outputs":[{"internalType":"string","name":"","type":"string"}],"stateMutability":"view","type":"function"},{"inputs":[],"name":"INVALID_SUPPLY_CAP","outputs":[{"internalType":"string","name":"","type":"string"}],"stateMutability":"view","type":"function"},{"inputs":[],"name":"INVALID_UNBACKED_MINT_CAP","outputs":[{"internalType":"string","name":"","type":"string"}],"stateMutability":"view","type":"function"},{"inputs":[],"name":"LTV_VALIDATION_FAILED","outputs":[{"internalType":"string","name":"","type":"string"}],"stateMutability":"view","type":"function"},{"inputs":[],"name":"NOT_CONTRACT","outputs":[{"internalType":"string","name":"","type":"string"}],"stateMutability":"view","type":"function"},{"inputs":[],"name":"NOT_ENOUGH_AVAILABLE_USER_BALANCE","outputs":[{"internalType":"string","name":"","type":"string"}],"stateMutability":"view","type":"function"},{"inputs":[],"name":"NO_DEBT_OF_SELECTED_TYPE","outputs":[{"internalType":"string","name":"","type":"string"}],"stateMutability":"view","type":"function"},{"inputs":[],"name":"NO_EXPLICIT_AMOUNT_TO_REPAY_ON_BEHALF","outputs":[{"internalType":"string","name":"","type":"string"}],"stateMutability":"view","type":"function"},{"inputs":[],"name":"NO_MORE_RESERVES_ALLOWED","outputs":[{"internalType":"string","name":"","type":"string"}],"stateMutability":"view","type":"function"},{"inputs":[],"name":"NO_OUTSTANDING_STABLE_DEBT","outputs":[{"internalType":"string","name":"","type":"string"}],"stateMutability":"view","type":"function"},{"inputs":[],"name":"NO_OUTSTANDING_VARIABLE_DEBT","outputs":[{"internalType":"string","name":"","type":"string"}],"stateMutability":"view","type":"function"},{"inputs":[],"name":"OPERATION_NOT_SUPPORTED","outputs":[{"internalType":"string","name":"","type":"string"}],"stateMutability":"view","type":"function"},{"inputs":[],"name":"POOL_ADDRESSES_DO_NOT_MATCH","outputs":[{"internalType":"string","name":"","type":"string"}],"stateMutability":"view","type":"function"},{"inputs":[],"name":"PRICE_ORACLE_SENTINEL_CHECK_FAILED","outputs":[{"internalType":"string","name":"","type":"string"}],"stateMutability":"view","type":"function"},{"inputs":[],"name":"RESERVE_ALREADY_ADDED","outputs":[{"internalType":"string","name":"","type":"string"}],"stateMutability":"view","type":"function"},{"inputs":[],"name":"RESERVE_ALREADY_INITIALIZED","outputs":[{"internalType":"string","name":"","type":"string"}],"stateMutability":"view","type":"function"},{"inputs":[],"name":"RESERVE_DEBT_NOT_ZERO","outputs":[{"internalType":"string","name":"","type":"string"}],"stateMutability":"view","type":"function"},{"inputs":[],"name":"RESERVE_FROZEN","outputs":[{"internalType":"string","name":"","type":"string"}],"stateMutability":"view","type":"function"},{"inputs":[],"name":"RESERVE_INACTIVE","outputs":[{"internalType":"string","name":"","type":"string"}],"stateMutability":"view","type":"function"},{"inputs":[],"name":"RESERVE_LIQUIDITY_NOT_ZERO","outputs":[{"internalType":"string","name":"","type":"string"}],"stateMutability":"view","type":"function"},{"inputs":[],"name":"RESERVE_PAUSED","outputs":[{"internalType":"string","name":"","type":"string"}],"stateMutability":"view","type":"function"},{"inputs":[],"name":"SILOED_BORROWING_VIOLATION","outputs":[{"internalType":"string","name":"","type":"string"}],"stateMutability":"view","type":"function"},{"inputs":[],"name":"SPECIFIED_CURRENCY_NOT_BORROWED_BY_USER","outputs":[{"internalType":"string","name":"","type":"string"}],"stateMutability":"view","type":"function"},{"inputs":[],"name":"STABLE_BORROWING_ENABLED","outputs":[{"internalType":"string","name":"","type":"string"}],"stateMutability":"view","type":"function"},{"inputs":[],"name":"STABLE_BORROWING_NOT_ENABLED","outputs":[{"internalType":"string","name":"","type":"string"}],"stateMutability":"view","type":"function"},{"inputs":[],"name":"STABLE_DEBT_NOT_ZERO","outputs":[{"internalType":"string","name":"","type":"string"}],"stateMutability":"view","type":"function"},{"inputs":[],"name":"SUPPLY_CAP_EXCEEDED","outputs":[{"internalType":"string","name":"","type":"string"}],"stateMutability":"view","type":"function"},{"inputs":[],"name":"UNBACKED_MINT_CAP_EXCEEDED","outputs":[{"internalType":"string","name":"","type":"string"}],"stateMutability":"view","type":"function"},{"inputs":[],"name":"UNDERLYING_BALANCE_ZERO","outputs":[{"internalType":"string","name":"","type":"string"}],"stateMutability":"view","type":"function"},{"inputs":[],"name":"UNDERLYING_CANNOT_BE_RESCUED","outputs":[{"internalType":"string","name":"","type":"string"}],"stateMutability":"view","type":"function"},{"inputs":[],"name":"UNDERLYING_CLAIMABLE_RIGHTS_NOT_ZERO","outputs":[{"internalType":"string","name":"","type":"string"}],"stateMutability":"view","type":"function"},{"inputs":[],"name":"USER_IN_ISOLATION_MODE_OR_LTV_ZERO","outputs":[{"internalType":"string","name":"","type":"string"}],"stateMutability":"view","type":"function"},{"inputs":[],"name":"VARIABLE_DEBT_SUPPLY_NOT_ZERO","outputs":[{"internalType":"string","name":"","type":"string"}],"stateMutability":"view","type":"function"},{"inputs":[],"name":"ZERO_ADDRESS_NOT_VALID","outputs":[{"internalType":"string","name":"","type":"string"}],"stateMutability":"view","type":"function"}],"evm":{"bytecode":{"linkReferences":{},"object":"6080806040523461001a576115049081610020823930815050f35b600080fdfe604060808152600436101561001357600080fd5b600090813560e01c8063084dfa0d146113f957806311d7b006146113cc57806312dcade81461139e57806314dcfbbc14611370578063198d6a6b146113425780631abbb0011461131457806322a73446146112e657806326bbd053146112b857806326e7b3121461128b5780632926c9711461125d5780632c8e3b4c146112305780632eed17e814611202578063335763de146111d4578063366eb54d146111a65780633793078214611178578063471df6851461114a57806347ba93d81461111c57806347cf1523146110ee578063480702ae146110c0578063485c8ff6146110935780634d86f393146110655780634e01e3c1146110375780634e3aed37146110095780634ef999ff14610fdb5780634f77647b14610fae5780635126745014610f8057806352ba9dbe14610f525780635d9c76c014610f2457806360c3de8014610ef757806361c111d214610ec957806365a83bab14610e9b57806365e7ef4c14610e6d5780636b3f7cc714610e3f5780636cd3cfbc14610e11578063712f536a14610de357806373dea5e314610db557806374459b1414610d87578063747fa55614610d5957806376ae8fca14610d2b5780637aa0767e14610cfd5780637fea6f3614610ccf5780638596aad514610ca1578063895f7dc814610c7357806389c5d45f14610c455780638a34400014610c175780638aa3ca4c14610be95780638b8b98d714610bbb5780638eda46bd14610b8d5780638f7722b214610b5f57806394f9fd8a14610b31578063952633c514610b035780639527e9d914610ad557806399ce53f314610aa7578063a2797c8014610a79578063a2e976c614610a4b578063a3402a3814610a1d578063a4868dca146109ef578063a8c97853146109c1578063ab883ca014610993578063abd351b114610965578063ac75323614610938578063b05100541461090a578063b4a45730146108dc578063b5e79366146108af578063b68774e914610881578063b7f5e22414610853578063b87041c214610825578063bad8308c146107f7578063c08a1146146107c9578063c86380821461079b578063c899301a1461076d578063cd23367c1461073f578063d14bb17a14610711578063d1cd8b1d146106e3578063d6f9fcde146106b5578063d9adda8514610687578063dc191bd914610659578063dcc56db61461062b578063dd1dd95f146105fd578063de24948c146105cf578063e02f07ee146105a2578063e3fa20f514610574578063e4dd8b7414610546578063e981483a14610518578063f07f6785146104ea578063f10727db146104bc578063f479ea111461048e578063fa163a8314610460578063fae82791146104325763fd1828ff146103fd57600080fd5b8160031936011261042e5761042a90610414611427565b9061373560f01b60208301525191829182611485565b0390f35b5080fd5b508160031936011261042e5761042a9061044a611427565b9061191b60f11b60208301525191829182611485565b508160031936011261042e5761042a90610478611427565b90611b1b60f11b60208301525191829182611485565b508160031936011261042e5761042a906104a6611427565b9061189b60f11b60208301525191829182611485565b508160031936011261042e5761042a906104d4611427565b90611a9b60f11b60208301525191829182611485565b508160031936011261042e5761042a90610502611427565b9061066760f31b60208301525191829182611485565b508160031936011261042e5761042a90610530611427565b9061039360f41b60208301525191829182611485565b508160031936011261042e5761042a9061055e611427565b9061383160f01b60208301525191829182611485565b508160031936011261042e5761042a9061058c611427565b9061199b60f11b60208301525191829182611485565b508160031936011261042e5761042a906105ba611461565b90603760f81b60208301525191829182611485565b508160031936011261042e5761042a906105e7611427565b9061383960f01b60208301525191829182611485565b508160031936011261042e5761042a90610615611427565b90610d8d60f21b60208301525191829182611485565b508160031936011261042e5761042a90610643611427565b9061373360f01b60208301525191829182611485565b508160031936011261042e5761042a90610671611427565b9061333960f01b60208301525191829182611485565b508160031936011261042e5761042a9061069f611427565b9061363160f01b60208301525191829182611485565b508160031936011261042e5761042a906106cd611427565b906106c760f31b60208301525191829182611485565b508160031936011261042e5761042a906106fb611427565b90610dcd60f21b60208301525191829182611485565b508160031936011261042e5761042a90610729611427565b9061373760f01b60208301525191829182611485565b508160031936011261042e5761042a90610757611427565b90611c1960f11b60208301525191829182611485565b508160031936011261042e5761042a90610785611427565b90610e0d60f21b60208301525191829182611485565b508160031936011261042e5761042a906107b3611427565b9061353960f01b60208301525191829182611485565b508160031936011261042e5761042a906107e1611427565b906106e760f31b60208301525191829182611485565b508160031936011261042e5761042a9061080f611427565b90611b9b60f11b60208301525191829182611485565b508160031936011261042e5761042a9061083d611427565b9061353760f01b60208301525191829182611485565b508160031936011261042e5761042a9061086b611427565b9061199960f11b60208301525191829182611485565b508160031936011261042e5761042a90610899611427565b9061323960f01b60208301525191829182611485565b508160031936011261042e5761042a906108c7611461565b90600d60fa1b60208301525191829182611485565b508160031936011261042e5761042a906108f4611427565b90611a1960f11b60208301525191829182611485565b508160031936011261042e5761042a90610922611427565b9061353160f01b60208301525191829182611485565b508160031936011261042e5761042a90610950611461565b90603160f81b60208301525191829182611485565b508160031936011261042e5761042a9061097d611427565b90610c8d60f21b60208301525191829182611485565b508160031936011261042e5761042a906109ab611427565b9061383560f01b60208301525191829182611485565b508160031936011261042e5761042a906109d9611427565b9061373160f01b60208301525191829182611485565b508160031936011261042e5761042a90610a07611427565b9061363760f01b60208301525191829182611485565b508160031936011261042e5761042a90610a35611427565b9061373960f01b60208301525191829182611485565b508160031936011261042e5761042a90610a63611427565b9061313160f01b60208301525191829182611485565b508160031936011261042e5761042a90610a91611427565b9061343360f01b60208301525191829182611485565b508160031936011261042e5761042a90610abf611427565b9061363360f01b60208301525191829182611485565b508160031936011261042e5761042a90610aed611427565b9061363560f01b60208301525191829182611485565b508160031936011261042e5761042a90610b1b611427565b9061343560f01b60208301525191829182611485565b508160031936011261042e5761042a90610b49611427565b90610d4d60f21b60208301525191829182611485565b508160031936011261042e5761042a90610b77611427565b906106a760f31b60208301525191829182611485565b508160031936011261042e5761042a90610ba5611427565b9061037360f41b60208301525191829182611485565b508160031936011261042e5761042a90610bd3611427565b9061038360f41b60208301525191829182611485565b508160031936011261042e5761042a90610c01611427565b9061393160f01b60208301525191829182611485565b508160031936011261042e5761042a90610c2f611427565b9061333760f01b60208301525191829182611485565b508160031936011261042e5761042a90610c5d611427565b9061333360f01b60208301525191829182611485565b508160031936011261042e5761042a90610c8b611427565b90611a1b60f11b60208301525191829182611485565b508160031936011261042e5761042a90610cb9611427565b9061036360f41b60208301525191829182611485565b508160031936011261042e5761042a90610ce7611427565b9061313360f01b60208301525191829182611485565b508160031936011261042e5761042a90610d15611427565b9061191960f11b60208301525191829182611485565b508160031936011261042e5761042a90610d43611427565b9061313560f01b60208301525191829182611485565b508160031936011261042e5761042a90610d71611427565b9061313960f01b60208301525191829182611485565b508160031936011261042e5761042a90610d9f611427565b9061343160f01b60208301525191829182611485565b508160031936011261042e5761042a90610dcd611427565b9061343960f01b60208301525191829182611485565b508160031936011261042e5761042a90610dfb611427565b9061034360f41b60208301525191829182611485565b508160031936011261042e5761042a90610e29611427565b9061064760f31b60208301525191829182611485565b508160031936011261042e5761042a90610e57611427565b90611a9960f11b60208301525191829182611485565b508160031936011261042e5761042a90610e85611427565b9061353560f01b60208301525191829182611485565b508160031936011261042e5761042a90610eb3611427565b9061353360f01b60208301525191829182611485565b508160031936011261042e5761042a90610ee1611427565b9061031360f41b60208301525191829182611485565b508160031936011261042e5761042a90610f0f611461565b90600760fb1b60208301525191829182611485565b508160031936011261042e5761042a90610f3c611427565b9061313760f01b60208301525191829182611485565b508160031936011261042e5761042a90610f6a611427565b9061323760f01b60208301525191829182611485565b508160031936011261042e5761042a90610f98611427565b9061323560f01b60208301525191829182611485565b508160031936011261042e5761042a90610fc6611461565b90601b60f91b60208301525191829182611485565b508160031936011261042e5761042a90610ff3611427565b9061033360f41b60208301525191829182611485565b508160031936011261042e5761042a90611021611427565b9061383360f01b60208301525191829182611485565b508160031936011261042e5761042a9061104f611427565b90610ccd60f21b60208301525191829182611485565b508160031936011261042e5761042a9061107d611427565b9061333160f01b60208301525191829182611485565b508160031936011261042e5761042a906110ab611461565b90601960f91b60208301525191829182611485565b508160031936011261042e5761042a906110d8611427565b90611b1960f11b60208301525191829182611485565b508160031936011261042e5761042a90611106611427565b9061323160f01b60208301525191829182611485565b508160031936011261042e5761042a90611134611427565b90611b9960f11b60208301525191829182611485565b508160031936011261042e5761042a90611162611427565b9061323360f01b60208301525191829182611485565b508160031936011261042e5761042a90611190611427565b9061189960f11b60208301525191829182611485565b508160031936011261042e5761042a906111be611427565b9061333560f01b60208301525191829182611485565b508160031936011261042e5761042a906111ec611427565b9061032360f41b60208301525191829182611485565b508160031936011261042e5761042a9061121a611427565b9061035360f41b60208301525191829182611485565b508160031936011261042e5761042a90611248611461565b90603560f81b60208301525191829182611485565b508160031936011261042e5761042a90611275611427565b90610d0d60f21b60208301525191829182611485565b508160031936011261042e5761042a906112a3611461565b90603360f81b60208301525191829182611485565b508160031936011261042e5761042a906112d0611427565b9061363960f01b60208301525191829182611485565b508160031936011261042e5761042a906112fe611427565b9061343760f01b60208301525191829182611485565b508160031936011261042e5761042a9061132c611427565b9061383760f01b60208301525191829182611485565b508160031936011261042e5761042a9061135a611427565b9061070760f31b60208301525191829182611485565b508160031936011261042e5761042a90611388611427565b90611c1b60f11b60208301525191829182611485565b508160031936011261042e5761042a906113b6611427565b90610c4d60f21b60208301525191829182611485565b508160031936011261042e5761042a906113e4611461565b90603960f81b60208301525191829182611485565b508160031936011261042e5761042a90611411611427565b9061062760f31b60208301525191829182611485565b604051906040820182811067ffffffffffffffff82111761144b5760405260028252565b634e487b7160e01b600052604160045260246000fd5b604051906040820182811067ffffffffffffffff82111761144b5760405260018252565b6020808252825181830181905290939260005b8281106114ba57505060409293506000838284010152601f8019910116010190565b81810186015184820160400152850161149856fea26469706673582212203850b207bc2120a6cada04a5ee34d15a398036128e9c95be3954b5b0c084922064736f6c63430008140033","opcodes":"PUSH1 0x80 DUP1 PUSH1 0x40 MSTORE CALLVALUE PUSH2 0x1A JUMPI PUSH2 0x1504 SWAP1 DUP2 PUSH2 0x20 DUP3 CODECOPY ADDRESS DUP2 POP POP RETURN JUMPDEST PUSH1 0x0 DUP1 REVERT INVALID PUSH1 0x40 PUSH1 0x80 DUP2 MSTORE PUSH1 0x4 CALLDATASIZE LT ISZERO PUSH2 0x13 JUMPI PUSH1 0x0 DUP1 REVERT JUMPDEST PUSH1 0x0 SWAP1 DUP2 CALLDATALOAD PUSH1 0xE0 SHR DUP1 PUSH4 0x84DFA0D EQ PUSH2 0x13F9 JUMPI DUP1 PUSH4 0x11D7B006 EQ PUSH2 0x13CC JUMPI DUP1 PUSH4 0x12DCADE8 EQ PUSH2 0x139E JUMPI DUP1 PUSH4 0x14DCFBBC EQ PUSH2 0x1370 JUMPI DUP1 PUSH4 0x198D6A6B EQ PUSH2 0x1342 JUMPI DUP1 PUSH4 0x1ABBB001 EQ PUSH2 0x1314 JUMPI DUP1 PUSH4 0x22A73446 EQ PUSH2 0x12E6 JUMPI DUP1 PUSH4 0x26BBD053 EQ PUSH2 0x12B8 JUMPI DUP1 PUSH4 0x26E7B312 EQ PUSH2 0x128B JUMPI DUP1 PUSH4 0x2926C971 EQ PUSH2 0x125D JUMPI DUP1 PUSH4 0x2C8E3B4C EQ PUSH2 0x1230 JUMPI DUP1 PUSH4 0x2EED17E8 EQ PUSH2 0x1202 JUMPI DUP1 PUSH4 0x335763DE EQ PUSH2 0x11D4 JUMPI DUP1 PUSH4 0x366EB54D EQ PUSH2 0x11A6 JUMPI DUP1 PUSH4 0x37930782 EQ PUSH2 0x1178 JUMPI DUP1 PUSH4 0x471DF685 EQ PUSH2 0x114A JUMPI DUP1 PUSH4 0x47BA93D8 EQ PUSH2 0x111C JUMPI DUP1 PUSH4 0x47CF1523 EQ PUSH2 0x10EE JUMPI DUP1 PUSH4 0x480702AE EQ PUSH2 0x10C0 JUMPI DUP1 PUSH4 0x485C8FF6 EQ PUSH2 0x1093 JUMPI DUP1 PUSH4 0x4D86F393 EQ PUSH2 0x1065 JUMPI DUP1 PUSH4 0x4E01E3C1 EQ PUSH2 0x1037 JUMPI DUP1 PUSH4 0x4E3AED37 EQ PUSH2 0x1009 JUMPI DUP1 PUSH4 0x4EF999FF EQ PUSH2 0xFDB JUMPI DUP1 PUSH4 0x4F77647B EQ PUSH2 0xFAE JUMPI DUP1 PUSH4 0x51267450 EQ PUSH2 0xF80 JUMPI DUP1 PUSH4 0x52BA9DBE EQ PUSH2 0xF52 JUMPI DUP1 PUSH4 0x5D9C76C0 EQ PUSH2 0xF24 JUMPI DUP1 PUSH4 0x60C3DE80 EQ PUSH2 0xEF7 JUMPI DUP1 PUSH4 0x61C111D2 EQ PUSH2 0xEC9 JUMPI DUP1 PUSH4 0x65A83BAB EQ PUSH2 0xE9B JUMPI DUP1 PUSH4 0x65E7EF4C EQ PUSH2 0xE6D JUMPI DUP1 PUSH4 0x6B3F7CC7 EQ PUSH2 0xE3F JUMPI DUP1 PUSH4 0x6CD3CFBC EQ PUSH2 0xE11 JUMPI DUP1 PUSH4 0x712F536A EQ PUSH2 0xDE3 JUMPI DUP1 PUSH4 0x73DEA5E3 EQ PUSH2 0xDB5 JUMPI DUP1 PUSH4 0x74459B14 EQ PUSH2 0xD87 JUMPI DUP1 PUSH4 0x747FA556 EQ PUSH2 0xD59 JUMPI DUP1 PUSH4 0x76AE8FCA EQ PUSH2 0xD2B JUMPI DUP1 PUSH4 0x7AA0767E EQ PUSH2 0xCFD JUMPI DUP1 PUSH4 0x7FEA6F36 EQ PUSH2 0xCCF JUMPI DUP1 PUSH4 0x8596AAD5 EQ PUSH2 0xCA1 JUMPI DUP1 PUSH4 0x895F7DC8 EQ PUSH2 0xC73 JUMPI DUP1 PUSH4 0x89C5D45F EQ PUSH2 0xC45 JUMPI DUP1 PUSH4 0x8A344000 EQ PUSH2 0xC17 JUMPI DUP1 PUSH4 0x8AA3CA4C EQ PUSH2 0xBE9 JUMPI DUP1 PUSH4 0x8B8B98D7 EQ PUSH2 0xBBB JUMPI DUP1 PUSH4 0x8EDA46BD EQ PUSH2 0xB8D JUMPI DUP1 PUSH4 0x8F7722B2 EQ PUSH2 0xB5F JUMPI DUP1 PUSH4 0x94F9FD8A EQ PUSH2 0xB31 JUMPI DUP1 PUSH4 0x952633C5 EQ PUSH2 0xB03 JUMPI DUP1 PUSH4 0x9527E9D9 EQ PUSH2 0xAD5 JUMPI DUP1 PUSH4 0x99CE53F3 EQ PUSH2 0xAA7 JUMPI DUP1 PUSH4 0xA2797C80 EQ PUSH2 0xA79 JUMPI DUP1 PUSH4 0xA2E976C6 EQ PUSH2 0xA4B JUMPI DUP1 PUSH4 0xA3402A38 EQ PUSH2 0xA1D JUMPI DUP1 PUSH4 0xA4868DCA EQ PUSH2 0x9EF JUMPI DUP1 PUSH4 0xA8C97853 EQ PUSH2 0x9C1 JUMPI DUP1 PUSH4 0xAB883CA0 EQ PUSH2 0x993 JUMPI DUP1 PUSH4 0xABD351B1 EQ PUSH2 0x965 JUMPI DUP1 PUSH4 0xAC753236 EQ PUSH2 0x938 JUMPI DUP1 PUSH4 0xB0510054 EQ PUSH2 0x90A JUMPI DUP1 PUSH4 0xB4A45730 EQ PUSH2 0x8DC JUMPI DUP1 PUSH4 0xB5E79366 EQ PUSH2 0x8AF JUMPI DUP1 PUSH4 0xB68774E9 EQ PUSH2 0x881 JUMPI DUP1 PUSH4 0xB7F5E224 EQ PUSH2 0x853 JUMPI DUP1 PUSH4 0xB87041C2 EQ PUSH2 0x825 JUMPI DUP1 PUSH4 0xBAD8308C EQ PUSH2 0x7F7 JUMPI DUP1 PUSH4 0xC08A1146 EQ PUSH2 0x7C9 JUMPI DUP1 PUSH4 0xC8638082 EQ PUSH2 0x79B JUMPI DUP1 PUSH4 0xC899301A EQ PUSH2 0x76D JUMPI DUP1 PUSH4 0xCD23367C EQ PUSH2 0x73F JUMPI DUP1 PUSH4 0xD14BB17A EQ PUSH2 0x711 JUMPI DUP1 PUSH4 0xD1CD8B1D EQ PUSH2 0x6E3 JUMPI DUP1 PUSH4 0xD6F9FCDE EQ PUSH2 0x6B5 JUMPI DUP1 PUSH4 0xD9ADDA85 EQ PUSH2 0x687 JUMPI DUP1 PUSH4 0xDC191BD9 EQ PUSH2 0x659 JUMPI DUP1 PUSH4 0xDCC56DB6 EQ PUSH2 0x62B JUMPI DUP1 PUSH4 0xDD1DD95F EQ PUSH2 0x5FD JUMPI DUP1 PUSH4 0xDE24948C EQ PUSH2 0x5CF JUMPI DUP1 PUSH4 0xE02F07EE EQ PUSH2 0x5A2 JUMPI DUP1 PUSH4 0xE3FA20F5 EQ PUSH2 0x574 JUMPI DUP1 PUSH4 0xE4DD8B74 EQ PUSH2 0x546 JUMPI DUP1 PUSH4 0xE981483A EQ PUSH2 0x518 JUMPI DUP1 PUSH4 0xF07F6785 EQ PUSH2 0x4EA JUMPI DUP1 PUSH4 0xF10727DB EQ PUSH2 0x4BC JUMPI DUP1 PUSH4 0xF479EA11 EQ PUSH2 0x48E JUMPI DUP1 PUSH4 0xFA163A83 EQ PUSH2 0x460 JUMPI DUP1 PUSH4 0xFAE82791 EQ PUSH2 0x432 JUMPI PUSH4 0xFD1828FF EQ PUSH2 0x3FD JUMPI PUSH1 0x0 DUP1 REVERT JUMPDEST DUP2 PUSH1 0x3 NOT CALLDATASIZE ADD SLT PUSH2 0x42E JUMPI PUSH2 0x42A SWAP1 PUSH2 0x414 PUSH2 0x1427 JUMP JUMPDEST SWAP1 PUSH2 0x3735 PUSH1 0xF0 SHL PUSH1 0x20 DUP4 ADD MSTORE MLOAD SWAP2 DUP3 SWAP2 DUP3 PUSH2 0x1485 JUMP JUMPDEST SUB SWAP1 RETURN JUMPDEST POP DUP1 REVERT JUMPDEST POP DUP2 PUSH1 0x3 NOT CALLDATASIZE ADD SLT PUSH2 0x42E JUMPI PUSH2 0x42A SWAP1 PUSH2 0x44A PUSH2 0x1427 JUMP JUMPDEST SWAP1 PUSH2 0x191B PUSH1 0xF1 SHL PUSH1 0x20 DUP4 ADD MSTORE MLOAD SWAP2 DUP3 SWAP2 DUP3 PUSH2 0x1485 JUMP JUMPDEST POP DUP2 PUSH1 0x3 NOT CALLDATASIZE ADD SLT PUSH2 0x42E JUMPI PUSH2 0x42A SWAP1 PUSH2 0x478 PUSH2 0x1427 JUMP JUMPDEST SWAP1 PUSH2 0x1B1B PUSH1 0xF1 SHL PUSH1 0x20 DUP4 ADD MSTORE MLOAD SWAP2 DUP3 SWAP2 DUP3 PUSH2 0x1485 JUMP JUMPDEST POP DUP2 PUSH1 0x3 NOT CALLDATASIZE ADD SLT PUSH2 0x42E JUMPI PUSH2 0x42A SWAP1 PUSH2 0x4A6 PUSH2 0x1427 JUMP JUMPDEST SWAP1 PUSH2 0x189B PUSH1 0xF1 SHL PUSH1 0x20 DUP4 ADD MSTORE MLOAD SWAP2 DUP3 SWAP2 DUP3 PUSH2 0x1485 JUMP JUMPDEST POP DUP2 PUSH1 0x3 NOT CALLDATASIZE ADD SLT PUSH2 0x42E JUMPI PUSH2 0x42A SWAP1 PUSH2 0x4D4 PUSH2 0x1427 JUMP JUMPDEST SWAP1 PUSH2 0x1A9B PUSH1 0xF1 SHL PUSH1 0x20 DUP4 ADD MSTORE MLOAD SWAP2 DUP3 SWAP2 DUP3 PUSH2 0x1485 JUMP JUMPDEST POP DUP2 PUSH1 0x3 NOT CALLDATASIZE ADD SLT PUSH2 0x42E JUMPI PUSH2 0x42A SWAP1 PUSH2 0x502 PUSH2 0x1427 JUMP JUMPDEST SWAP1 PUSH2 0x667 PUSH1 0xF3 SHL PUSH1 0x20 DUP4 ADD MSTORE MLOAD SWAP2 DUP3 SWAP2 DUP3 PUSH2 0x1485 JUMP JUMPDEST POP DUP2 PUSH1 0x3 NOT CALLDATASIZE ADD SLT PUSH2 0x42E JUMPI PUSH2 0x42A SWAP1 PUSH2 0x530 PUSH2 0x1427 JUMP JUMPDEST SWAP1 PUSH2 0x393 PUSH1 0xF4 SHL PUSH1 0x20 DUP4 ADD MSTORE MLOAD SWAP2 DUP3 SWAP2 DUP3 PUSH2 0x1485 JUMP JUMPDEST POP DUP2 PUSH1 0x3 NOT CALLDATASIZE ADD SLT PUSH2 0x42E JUMPI PUSH2 0x42A SWAP1 PUSH2 0x55E PUSH2 0x1427 JUMP JUMPDEST SWAP1 PUSH2 0x3831 PUSH1 0xF0 SHL PUSH1 0x20 DUP4 ADD MSTORE MLOAD SWAP2 DUP3 SWAP2 DUP3 PUSH2 0x1485 JUMP JUMPDEST POP DUP2 PUSH1 0x3 NOT CALLDATASIZE ADD SLT PUSH2 0x42E JUMPI PUSH2 0x42A SWAP1 PUSH2 0x58C PUSH2 0x1427 JUMP JUMPDEST SWAP1 PUSH2 0x199B PUSH1 0xF1 SHL PUSH1 0x20 DUP4 ADD MSTORE MLOAD SWAP2 DUP3 SWAP2 DUP3 PUSH2 0x1485 JUMP JUMPDEST POP DUP2 PUSH1 0x3 NOT CALLDATASIZE ADD SLT PUSH2 0x42E JUMPI PUSH2 0x42A SWAP1 PUSH2 0x5BA PUSH2 0x1461 JUMP JUMPDEST SWAP1 PUSH1 0x37 PUSH1 0xF8 SHL PUSH1 0x20 DUP4 ADD MSTORE MLOAD SWAP2 DUP3 SWAP2 DUP3 PUSH2 0x1485 JUMP JUMPDEST POP DUP2 PUSH1 0x3 NOT CALLDATASIZE ADD SLT PUSH2 0x42E JUMPI PUSH2 0x42A SWAP1 PUSH2 0x5E7 PUSH2 0x1427 JUMP JUMPDEST SWAP1 PUSH2 0x3839 PUSH1 0xF0 SHL PUSH1 0x20 DUP4 ADD MSTORE MLOAD SWAP2 DUP3 SWAP2 DUP3 PUSH2 0x1485 JUMP JUMPDEST POP DUP2 PUSH1 0x3 NOT CALLDATASIZE ADD SLT PUSH2 0x42E JUMPI PUSH2 0x42A SWAP1 PUSH2 0x615 PUSH2 0x1427 JUMP JUMPDEST SWAP1 PUSH2 0xD8D PUSH1 0xF2 SHL PUSH1 0x20 DUP4 ADD MSTORE MLOAD SWAP2 DUP3 SWAP2 DUP3 PUSH2 0x1485 JUMP JUMPDEST POP DUP2 PUSH1 0x3 NOT CALLDATASIZE ADD SLT PUSH2 0x42E JUMPI PUSH2 0x42A SWAP1 PUSH2 0x643 PUSH2 0x1427 JUMP JUMPDEST SWAP1 PUSH2 0x3733 PUSH1 0xF0 SHL PUSH1 0x20 DUP4 ADD MSTORE MLOAD SWAP2 DUP3 SWAP2 DUP3 PUSH2 0x1485 JUMP JUMPDEST POP DUP2 PUSH1 0x3 NOT CALLDATASIZE ADD SLT PUSH2 0x42E JUMPI PUSH2 0x42A SWAP1 PUSH2 0x671 PUSH2 0x1427 JUMP JUMPDEST SWAP1 PUSH2 0x3339 PUSH1 0xF0 SHL PUSH1 0x20 DUP4 ADD MSTORE MLOAD SWAP2 DUP3 SWAP2 DUP3 PUSH2 0x1485 JUMP JUMPDEST POP DUP2 PUSH1 0x3 NOT CALLDATASIZE ADD SLT PUSH2 0x42E JUMPI PUSH2 0x42A SWAP1 PUSH2 0x69F PUSH2 0x1427 JUMP JUMPDEST SWAP1 PUSH2 0x3631 PUSH1 0xF0 SHL PUSH1 0x20 DUP4 ADD MSTORE MLOAD SWAP2 DUP3 SWAP2 DUP3 PUSH2 0x1485 JUMP JUMPDEST POP DUP2 PUSH1 0x3 NOT CALLDATASIZE ADD SLT PUSH2 0x42E JUMPI PUSH2 0x42A SWAP1 PUSH2 0x6CD PUSH2 0x1427 JUMP JUMPDEST SWAP1 PUSH2 0x6C7 PUSH1 0xF3 SHL PUSH1 0x20 DUP4 ADD MSTORE MLOAD SWAP2 DUP3 SWAP2 DUP3 PUSH2 0x1485 JUMP JUMPDEST POP DUP2 PUSH1 0x3 NOT CALLDATASIZE ADD SLT PUSH2 0x42E JUMPI PUSH2 0x42A SWAP1 PUSH2 0x6FB PUSH2 0x1427 JUMP JUMPDEST SWAP1 PUSH2 0xDCD PUSH1 0xF2 SHL PUSH1 0x20 DUP4 ADD MSTORE MLOAD SWAP2 DUP3 SWAP2 DUP3 PUSH2 0x1485 JUMP JUMPDEST POP DUP2 PUSH1 0x3 NOT CALLDATASIZE ADD SLT PUSH2 0x42E JUMPI PUSH2 0x42A SWAP1 PUSH2 0x729 PUSH2 0x1427 JUMP JUMPDEST SWAP1 PUSH2 0x3737 PUSH1 0xF0 SHL PUSH1 0x20 DUP4 ADD MSTORE MLOAD SWAP2 DUP3 SWAP2 DUP3 PUSH2 0x1485 JUMP JUMPDEST POP DUP2 PUSH1 0x3 NOT CALLDATASIZE ADD SLT PUSH2 0x42E JUMPI PUSH2 0x42A SWAP1 PUSH2 0x757 PUSH2 0x1427 JUMP JUMPDEST SWAP1 PUSH2 0x1C19 PUSH1 0xF1 SHL PUSH1 0x20 DUP4 ADD MSTORE MLOAD SWAP2 DUP3 SWAP2 DUP3 PUSH2 0x1485 JUMP JUMPDEST POP DUP2 PUSH1 0x3 NOT CALLDATASIZE ADD SLT PUSH2 0x42E JUMPI PUSH2 0x42A SWAP1 PUSH2 0x785 PUSH2 0x1427 JUMP JUMPDEST SWAP1 PUSH2 0xE0D PUSH1 0xF2 SHL PUSH1 0x20 DUP4 ADD MSTORE MLOAD SWAP2 DUP3 SWAP2 DUP3 PUSH2 0x1485 JUMP JUMPDEST POP DUP2 PUSH1 0x3 NOT CALLDATASIZE ADD SLT PUSH2 0x42E JUMPI PUSH2 0x42A SWAP1 PUSH2 0x7B3 PUSH2 0x1427 JUMP JUMPDEST SWAP1 PUSH2 0x3539 PUSH1 0xF0 SHL PUSH1 0x20 DUP4 ADD MSTORE MLOAD SWAP2 DUP3 SWAP2 DUP3 PUSH2 0x1485 JUMP JUMPDEST POP DUP2 PUSH1 0x3 NOT CALLDATASIZE ADD SLT PUSH2 0x42E JUMPI PUSH2 0x42A SWAP1 PUSH2 0x7E1 PUSH2 0x1427 JUMP JUMPDEST SWAP1 PUSH2 0x6E7 PUSH1 0xF3 SHL PUSH1 0x20 DUP4 ADD MSTORE MLOAD SWAP2 DUP3 SWAP2 DUP3 PUSH2 0x1485 JUMP JUMPDEST POP DUP2 PUSH1 0x3 NOT CALLDATASIZE ADD SLT PUSH2 0x42E JUMPI PUSH2 0x42A SWAP1 PUSH2 0x80F PUSH2 0x1427 JUMP JUMPDEST SWAP1 PUSH2 0x1B9B PUSH1 0xF1 SHL PUSH1 0x20 DUP4 ADD MSTORE MLOAD SWAP2 DUP3 SWAP2 DUP3 PUSH2 0x1485 JUMP JUMPDEST POP DUP2 PUSH1 0x3 NOT CALLDATASIZE ADD SLT PUSH2 0x42E JUMPI PUSH2 0x42A SWAP1 PUSH2 0x83D PUSH2 0x1427 JUMP JUMPDEST SWAP1 PUSH2 0x3537 PUSH1 0xF0 SHL PUSH1 0x20 DUP4 ADD MSTORE MLOAD SWAP2 DUP3 SWAP2 DUP3 PUSH2 0x1485 JUMP JUMPDEST POP DUP2 PUSH1 0x3 NOT CALLDATASIZE ADD SLT PUSH2 0x42E JUMPI PUSH2 0x42A SWAP1 PUSH2 0x86B PUSH2 0x1427 JUMP JUMPDEST SWAP1 PUSH2 0x1999 PUSH1 0xF1 SHL PUSH1 0x20 DUP4 ADD MSTORE MLOAD SWAP2 DUP3 SWAP2 DUP3 PUSH2 0x1485 JUMP JUMPDEST POP DUP2 PUSH1 0x3 NOT CALLDATASIZE ADD SLT PUSH2 0x42E JUMPI PUSH2 0x42A SWAP1 PUSH2 0x899 PUSH2 0x1427 JUMP JUMPDEST SWAP1 PUSH2 0x3239 PUSH1 0xF0 SHL PUSH1 0x20 DUP4 ADD MSTORE MLOAD SWAP2 DUP3 SWAP2 DUP3 PUSH2 0x1485 JUMP JUMPDEST POP DUP2 PUSH1 0x3 NOT CALLDATASIZE ADD SLT PUSH2 0x42E JUMPI PUSH2 0x42A SWAP1 PUSH2 0x8C7 PUSH2 0x1461 JUMP JUMPDEST SWAP1 PUSH1 0xD PUSH1 0xFA SHL PUSH1 0x20 DUP4 ADD MSTORE MLOAD SWAP2 DUP3 SWAP2 DUP3 PUSH2 0x1485 JUMP JUMPDEST POP DUP2 PUSH1 0x3 NOT CALLDATASIZE ADD SLT PUSH2 0x42E JUMPI PUSH2 0x42A SWAP1 PUSH2 0x8F4 PUSH2 0x1427 JUMP JUMPDEST SWAP1 PUSH2 0x1A19 PUSH1 0xF1 SHL PUSH1 0x20 DUP4 ADD MSTORE MLOAD SWAP2 DUP3 SWAP2 DUP3 PUSH2 0x1485 JUMP JUMPDEST POP DUP2 PUSH1 0x3 NOT CALLDATASIZE ADD SLT PUSH2 0x42E JUMPI PUSH2 0x42A SWAP1 PUSH2 0x922 PUSH2 0x1427 JUMP JUMPDEST SWAP1 PUSH2 0x3531 PUSH1 0xF0 SHL PUSH1 0x20 DUP4 ADD MSTORE MLOAD SWAP2 DUP3 SWAP2 DUP3 PUSH2 0x1485 JUMP JUMPDEST POP DUP2 PUSH1 0x3 NOT CALLDATASIZE ADD SLT PUSH2 0x42E JUMPI PUSH2 0x42A SWAP1 PUSH2 0x950 PUSH2 0x1461 JUMP JUMPDEST SWAP1 PUSH1 0x31 PUSH1 0xF8 SHL PUSH1 0x20 DUP4 ADD MSTORE MLOAD SWAP2 DUP3 SWAP2 DUP3 PUSH2 0x1485 JUMP JUMPDEST POP DUP2 PUSH1 0x3 NOT CALLDATASIZE ADD SLT PUSH2 0x42E JUMPI PUSH2 0x42A SWAP1 PUSH2 0x97D PUSH2 0x1427 JUMP JUMPDEST SWAP1 PUSH2 0xC8D PUSH1 0xF2 SHL PUSH1 0x20 DUP4 ADD MSTORE MLOAD SWAP2 DUP3 SWAP2 DUP3 PUSH2 0x1485 JUMP JUMPDEST POP DUP2 PUSH1 0x3 NOT CALLDATASIZE ADD SLT PUSH2 0x42E JUMPI PUSH2 0x42A SWAP1 PUSH2 0x9AB PUSH2 0x1427 JUMP JUMPDEST SWAP1 PUSH2 0x3835 PUSH1 0xF0 SHL PUSH1 0x20 DUP4 ADD MSTORE MLOAD SWAP2 DUP3 SWAP2 DUP3 PUSH2 0x1485 JUMP JUMPDEST POP DUP2 PUSH1 0x3 NOT CALLDATASIZE ADD SLT PUSH2 0x42E JUMPI PUSH2 0x42A SWAP1 PUSH2 0x9D9 PUSH2 0x1427 JUMP JUMPDEST SWAP1 PUSH2 0x3731 PUSH1 0xF0 SHL PUSH1 0x20 DUP4 ADD MSTORE MLOAD SWAP2 DUP3 SWAP2 DUP3 PUSH2 0x1485 JUMP JUMPDEST POP DUP2 PUSH1 0x3 NOT CALLDATASIZE ADD SLT PUSH2 0x42E JUMPI PUSH2 0x42A SWAP1 PUSH2 0xA07 PUSH2 0x1427 JUMP JUMPDEST SWAP1 PUSH2 0x3637 PUSH1 0xF0 SHL PUSH1 0x20 DUP4 ADD MSTORE MLOAD SWAP2 DUP3 SWAP2 DUP3 PUSH2 0x1485 JUMP JUMPDEST POP DUP2 PUSH1 0x3 NOT CALLDATASIZE ADD SLT PUSH2 0x42E JUMPI PUSH2 0x42A SWAP1 PUSH2 0xA35 PUSH2 0x1427 JUMP JUMPDEST SWAP1 PUSH2 0x3739 PUSH1 0xF0 SHL PUSH1 0x20 DUP4 ADD MSTORE MLOAD SWAP2 DUP3 SWAP2 DUP3 PUSH2 0x1485 JUMP JUMPDEST POP DUP2 PUSH1 0x3 NOT CALLDATASIZE ADD SLT PUSH2 0x42E JUMPI PUSH2 0x42A SWAP1 PUSH2 0xA63 PUSH2 0x1427 JUMP JUMPDEST SWAP1 PUSH2 0x3131 PUSH1 0xF0 SHL PUSH1 0x20 DUP4 ADD MSTORE MLOAD SWAP2 DUP3 SWAP2 DUP3 PUSH2 0x1485 JUMP JUMPDEST POP DUP2 PUSH1 0x3 NOT CALLDATASIZE ADD SLT PUSH2 0x42E JUMPI PUSH2 0x42A SWAP1 PUSH2 0xA91 PUSH2 0x1427 JUMP JUMPDEST SWAP1 PUSH2 0x3433 PUSH1 0xF0 SHL PUSH1 0x20 DUP4 ADD MSTORE MLOAD SWAP2 DUP3 SWAP2 DUP3 PUSH2 0x1485 JUMP JUMPDEST POP DUP2 PUSH1 0x3 NOT CALLDATASIZE ADD SLT PUSH2 0x42E JUMPI PUSH2 0x42A SWAP1 PUSH2 0xABF PUSH2 0x1427 JUMP JUMPDEST SWAP1 PUSH2 0x3633 PUSH1 0xF0 SHL PUSH1 0x20 DUP4 ADD MSTORE MLOAD SWAP2 DUP3 SWAP2 DUP3 PUSH2 0x1485 JUMP JUMPDEST POP DUP2 PUSH1 0x3 NOT CALLDATASIZE ADD SLT PUSH2 0x42E JUMPI PUSH2 0x42A SWAP1 PUSH2 0xAED PUSH2 0x1427 JUMP JUMPDEST SWAP1 PUSH2 0x3635 PUSH1 0xF0 SHL PUSH1 0x20 DUP4 ADD MSTORE MLOAD SWAP2 DUP3 SWAP2 DUP3 PUSH2 0x1485 JUMP JUMPDEST POP DUP2 PUSH1 0x3 NOT CALLDATASIZE ADD SLT PUSH2 0x42E JUMPI PUSH2 0x42A SWAP1 PUSH2 0xB1B PUSH2 0x1427 JUMP JUMPDEST SWAP1 PUSH2 0x3435 PUSH1 0xF0 SHL PUSH1 0x20 DUP4 ADD MSTORE MLOAD SWAP2 DUP3 SWAP2 DUP3 PUSH2 0x1485 JUMP JUMPDEST POP DUP2 PUSH1 0x3 NOT CALLDATASIZE ADD SLT PUSH2 0x42E JUMPI PUSH2 0x42A SWAP1 PUSH2 0xB49 PUSH2 0x1427 JUMP JUMPDEST SWAP1 PUSH2 0xD4D PUSH1 0xF2 SHL PUSH1 0x20 DUP4 ADD MSTORE MLOAD SWAP2 DUP3 SWAP2 DUP3 PUSH2 0x1485 JUMP JUMPDEST POP DUP2 PUSH1 0x3 NOT CALLDATASIZE ADD SLT PUSH2 0x42E JUMPI PUSH2 0x42A SWAP1 PUSH2 0xB77 PUSH2 0x1427 JUMP JUMPDEST SWAP1 PUSH2 0x6A7 PUSH1 0xF3 SHL PUSH1 0x20 DUP4 ADD MSTORE MLOAD SWAP2 DUP3 SWAP2 DUP3 PUSH2 0x1485 JUMP JUMPDEST POP DUP2 PUSH1 0x3 NOT CALLDATASIZE ADD SLT PUSH2 0x42E JUMPI PUSH2 0x42A SWAP1 PUSH2 0xBA5 PUSH2 0x1427 JUMP JUMPDEST SWAP1 PUSH2 0x373 PUSH1 0xF4 SHL PUSH1 0x20 DUP4 ADD MSTORE MLOAD SWAP2 DUP3 SWAP2 DUP3 PUSH2 0x1485 JUMP JUMPDEST POP DUP2 PUSH1 0x3 NOT CALLDATASIZE ADD SLT PUSH2 0x42E JUMPI PUSH2 0x42A SWAP1 PUSH2 0xBD3 PUSH2 0x1427 JUMP JUMPDEST SWAP1 PUSH2 0x383 PUSH1 0xF4 SHL PUSH1 0x20 DUP4 ADD MSTORE MLOAD SWAP2 DUP3 SWAP2 DUP3 PUSH2 0x1485 JUMP JUMPDEST POP DUP2 PUSH1 0x3 NOT CALLDATASIZE ADD SLT PUSH2 0x42E JUMPI PUSH2 0x42A SWAP1 PUSH2 0xC01 PUSH2 0x1427 JUMP JUMPDEST SWAP1 PUSH2 0x3931 PUSH1 0xF0 SHL PUSH1 0x20 DUP4 ADD MSTORE MLOAD SWAP2 DUP3 SWAP2 DUP3 PUSH2 0x1485 JUMP JUMPDEST POP DUP2 PUSH1 0x3 NOT CALLDATASIZE ADD SLT PUSH2 0x42E JUMPI PUSH2 0x42A SWAP1 PUSH2 0xC2F PUSH2 0x1427 JUMP JUMPDEST SWAP1 PUSH2 0x3337 PUSH1 0xF0 SHL PUSH1 0x20 DUP4 ADD MSTORE MLOAD SWAP2 DUP3 SWAP2 DUP3 PUSH2 0x1485 JUMP JUMPDEST POP DUP2 PUSH1 0x3 NOT CALLDATASIZE ADD SLT PUSH2 0x42E JUMPI PUSH2 0x42A SWAP1 PUSH2 0xC5D PUSH2 0x1427 JUMP JUMPDEST SWAP1 PUSH2 0x3333 PUSH1 0xF0 SHL PUSH1 0x20 DUP4 ADD MSTORE MLOAD SWAP2 DUP3 SWAP2 DUP3 PUSH2 0x1485 JUMP JUMPDEST POP DUP2 PUSH1 0x3 NOT CALLDATASIZE ADD SLT PUSH2 0x42E JUMPI PUSH2 0x42A SWAP1 PUSH2 0xC8B PUSH2 0x1427 JUMP JUMPDEST SWAP1 PUSH2 0x1A1B PUSH1 0xF1 SHL PUSH1 0x20 DUP4 ADD MSTORE MLOAD SWAP2 DUP3 SWAP2 DUP3 PUSH2 0x1485 JUMP JUMPDEST POP DUP2 PUSH1 0x3 NOT CALLDATASIZE ADD SLT PUSH2 0x42E JUMPI PUSH2 0x42A SWAP1 PUSH2 0xCB9 PUSH2 0x1427 JUMP JUMPDEST SWAP1 PUSH2 0x363 PUSH1 0xF4 SHL PUSH1 0x20 DUP4 ADD MSTORE MLOAD SWAP2 DUP3 SWAP2 DUP3 PUSH2 0x1485 JUMP JUMPDEST POP DUP2 PUSH1 0x3 NOT CALLDATASIZE ADD SLT PUSH2 0x42E JUMPI PUSH2 0x42A SWAP1 PUSH2 0xCE7 PUSH2 0x1427 JUMP JUMPDEST SWAP1 PUSH2 0x3133 PUSH1 0xF0 SHL PUSH1 0x20 DUP4 ADD MSTORE MLOAD SWAP2 DUP3 SWAP2 DUP3 PUSH2 0x1485 JUMP JUMPDEST POP DUP2 PUSH1 0x3 NOT CALLDATASIZE ADD SLT PUSH2 0x42E JUMPI PUSH2 0x42A SWAP1 PUSH2 0xD15 PUSH2 0x1427 JUMP JUMPDEST SWAP1 PUSH2 0x1919 PUSH1 0xF1 SHL PUSH1 0x20 DUP4 ADD MSTORE MLOAD SWAP2 DUP3 SWAP2 DUP3 PUSH2 0x1485 JUMP JUMPDEST POP DUP2 PUSH1 0x3 NOT CALLDATASIZE ADD SLT PUSH2 0x42E JUMPI PUSH2 0x42A SWAP1 PUSH2 0xD43 PUSH2 0x1427 JUMP JUMPDEST SWAP1 PUSH2 0x3135 PUSH1 0xF0 SHL PUSH1 0x20 DUP4 ADD MSTORE MLOAD SWAP2 DUP3 SWAP2 DUP3 PUSH2 0x1485 JUMP JUMPDEST POP DUP2 PUSH1 0x3 NOT CALLDATASIZE ADD SLT PUSH2 0x42E JUMPI PUSH2 0x42A SWAP1 PUSH2 0xD71 PUSH2 0x1427 JUMP JUMPDEST SWAP1 PUSH2 0x3139 PUSH1 0xF0 SHL PUSH1 0x20 DUP4 ADD MSTORE MLOAD SWAP2 DUP3 SWAP2 DUP3 PUSH2 0x1485 JUMP JUMPDEST POP DUP2 PUSH1 0x3 NOT CALLDATASIZE ADD SLT PUSH2 0x42E JUMPI PUSH2 0x42A SWAP1 PUSH2 0xD9F PUSH2 0x1427 JUMP JUMPDEST SWAP1 PUSH2 0x3431 PUSH1 0xF0 SHL PUSH1 0x20 DUP4 ADD MSTORE MLOAD SWAP2 DUP3 SWAP2 DUP3 PUSH2 0x1485 JUMP JUMPDEST POP DUP2 PUSH1 0x3 NOT CALLDATASIZE ADD SLT PUSH2 0x42E JUMPI PUSH2 0x42A SWAP1 PUSH2 0xDCD PUSH2 0x1427 JUMP JUMPDEST SWAP1 PUSH2 0x3439 PUSH1 0xF0 SHL PUSH1 0x20 DUP4 ADD MSTORE MLOAD SWAP2 DUP3 SWAP2 DUP3 PUSH2 0x1485 JUMP JUMPDEST POP DUP2 PUSH1 0x3 NOT CALLDATASIZE ADD SLT PUSH2 0x42E JUMPI PUSH2 0x42A SWAP1 PUSH2 0xDFB PUSH2 0x1427 JUMP JUMPDEST SWAP1 PUSH2 0x343 PUSH1 0xF4 SHL PUSH1 0x20 DUP4 ADD MSTORE MLOAD SWAP2 DUP3 SWAP2 DUP3 PUSH2 0x1485 JUMP JUMPDEST POP DUP2 PUSH1 0x3 NOT CALLDATASIZE ADD SLT PUSH2 0x42E JUMPI PUSH2 0x42A SWAP1 PUSH2 0xE29 PUSH2 0x1427 JUMP JUMPDEST SWAP1 PUSH2 0x647 PUSH1 0xF3 SHL PUSH1 0x20 DUP4 ADD MSTORE MLOAD SWAP2 DUP3 SWAP2 DUP3 PUSH2 0x1485 JUMP JUMPDEST POP DUP2 PUSH1 0x3 NOT CALLDATASIZE ADD SLT PUSH2 0x42E JUMPI PUSH2 0x42A SWAP1 PUSH2 0xE57 PUSH2 0x1427 JUMP JUMPDEST SWAP1 PUSH2 0x1A99 PUSH1 0xF1 SHL PUSH1 0x20 DUP4 ADD MSTORE MLOAD SWAP2 DUP3 SWAP2 DUP3 PUSH2 0x1485 JUMP JUMPDEST POP DUP2 PUSH1 0x3 NOT CALLDATASIZE ADD SLT PUSH2 0x42E JUMPI PUSH2 0x42A SWAP1 PUSH2 0xE85 PUSH2 0x1427 JUMP JUMPDEST SWAP1 PUSH2 0x3535 PUSH1 0xF0 SHL PUSH1 0x20 DUP4 ADD MSTORE MLOAD SWAP2 DUP3 SWAP2 DUP3 PUSH2 0x1485 JUMP JUMPDEST POP DUP2 PUSH1 0x3 NOT CALLDATASIZE ADD SLT PUSH2 0x42E JUMPI PUSH2 0x42A SWAP1 PUSH2 0xEB3 PUSH2 0x1427 JUMP JUMPDEST SWAP1 PUSH2 0x3533 PUSH1 0xF0 SHL PUSH1 0x20 DUP4 ADD MSTORE MLOAD SWAP2 DUP3 SWAP2 DUP3 PUSH2 0x1485 JUMP JUMPDEST POP DUP2 PUSH1 0x3 NOT CALLDATASIZE ADD SLT PUSH2 0x42E JUMPI PUSH2 0x42A SWAP1 PUSH2 0xEE1 PUSH2 0x1427 JUMP JUMPDEST SWAP1 PUSH2 0x313 PUSH1 0xF4 SHL PUSH1 0x20 DUP4 ADD MSTORE MLOAD SWAP2 DUP3 SWAP2 DUP3 PUSH2 0x1485 JUMP JUMPDEST POP DUP2 PUSH1 0x3 NOT CALLDATASIZE ADD SLT PUSH2 0x42E JUMPI PUSH2 0x42A SWAP1 PUSH2 0xF0F PUSH2 0x1461 JUMP JUMPDEST SWAP1 PUSH1 0x7 PUSH1 0xFB SHL PUSH1 0x20 DUP4 ADD MSTORE MLOAD SWAP2 DUP3 SWAP2 DUP3 PUSH2 0x1485 JUMP JUMPDEST POP DUP2 PUSH1 0x3 NOT CALLDATASIZE ADD SLT PUSH2 0x42E JUMPI PUSH2 0x42A SWAP1 PUSH2 0xF3C PUSH2 0x1427 JUMP JUMPDEST SWAP1 PUSH2 0x3137 PUSH1 0xF0 SHL PUSH1 0x20 DUP4 ADD MSTORE MLOAD SWAP2 DUP3 SWAP2 DUP3 PUSH2 0x1485 JUMP JUMPDEST POP DUP2 PUSH1 0x3 NOT CALLDATASIZE ADD SLT PUSH2 0x42E JUMPI PUSH2 0x42A SWAP1 PUSH2 0xF6A PUSH2 0x1427 JUMP JUMPDEST SWAP1 PUSH2 0x3237 PUSH1 0xF0 SHL PUSH1 0x20 DUP4 ADD MSTORE MLOAD SWAP2 DUP3 SWAP2 DUP3 PUSH2 0x1485 JUMP JUMPDEST POP DUP2 PUSH1 0x3 NOT CALLDATASIZE ADD SLT PUSH2 0x42E JUMPI PUSH2 0x42A SWAP1 PUSH2 0xF98 PUSH2 0x1427 JUMP JUMPDEST SWAP1 PUSH2 0x3235 PUSH1 0xF0 SHL PUSH1 0x20 DUP4 ADD MSTORE MLOAD SWAP2 DUP3 SWAP2 DUP3 PUSH2 0x1485 JUMP JUMPDEST POP DUP2 PUSH1 0x3 NOT CALLDATASIZE ADD SLT PUSH2 0x42E JUMPI PUSH2 0x42A SWAP1 PUSH2 0xFC6 PUSH2 0x1461 JUMP JUMPDEST SWAP1 PUSH1 0x1B PUSH1 0xF9 SHL PUSH1 0x20 DUP4 ADD MSTORE MLOAD SWAP2 DUP3 SWAP2 DUP3 PUSH2 0x1485 JUMP JUMPDEST POP DUP2 PUSH1 0x3 NOT CALLDATASIZE ADD SLT PUSH2 0x42E JUMPI PUSH2 0x42A SWAP1 PUSH2 0xFF3 PUSH2 0x1427 JUMP JUMPDEST SWAP1 PUSH2 0x333 PUSH1 0xF4 SHL PUSH1 0x20 DUP4 ADD MSTORE MLOAD SWAP2 DUP3 SWAP2 DUP3 PUSH2 0x1485 JUMP JUMPDEST POP DUP2 PUSH1 0x3 NOT CALLDATASIZE ADD SLT PUSH2 0x42E JUMPI PUSH2 0x42A SWAP1 PUSH2 0x1021 PUSH2 0x1427 JUMP JUMPDEST SWAP1 PUSH2 0x3833 PUSH1 0xF0 SHL PUSH1 0x20 DUP4 ADD MSTORE MLOAD SWAP2 DUP3 SWAP2 DUP3 PUSH2 0x1485 JUMP JUMPDEST POP DUP2 PUSH1 0x3 NOT CALLDATASIZE ADD SLT PUSH2 0x42E JUMPI PUSH2 0x42A SWAP1 PUSH2 0x104F PUSH2 0x1427 JUMP JUMPDEST SWAP1 PUSH2 0xCCD PUSH1 0xF2 SHL PUSH1 0x20 DUP4 ADD MSTORE MLOAD SWAP2 DUP3 SWAP2 DUP3 PUSH2 0x1485 JUMP JUMPDEST POP DUP2 PUSH1 0x3 NOT CALLDATASIZE ADD SLT PUSH2 0x42E JUMPI PUSH2 0x42A SWAP1 PUSH2 0x107D PUSH2 0x1427 JUMP JUMPDEST SWAP1 PUSH2 0x3331 PUSH1 0xF0 SHL PUSH1 0x20 DUP4 ADD MSTORE MLOAD SWAP2 DUP3 SWAP2 DUP3 PUSH2 0x1485 JUMP JUMPDEST POP DUP2 PUSH1 0x3 NOT CALLDATASIZE ADD SLT PUSH2 0x42E JUMPI PUSH2 0x42A SWAP1 PUSH2 0x10AB PUSH2 0x1461 JUMP JUMPDEST SWAP1 PUSH1 0x19 PUSH1 0xF9 SHL PUSH1 0x20 DUP4 ADD MSTORE MLOAD SWAP2 DUP3 SWAP2 DUP3 PUSH2 0x1485 JUMP JUMPDEST POP DUP2 PUSH1 0x3 NOT CALLDATASIZE ADD SLT PUSH2 0x42E JUMPI PUSH2 0x42A SWAP1 PUSH2 0x10D8 PUSH2 0x1427 JUMP JUMPDEST SWAP1 PUSH2 0x1B19 PUSH1 0xF1 SHL PUSH1 0x20 DUP4 ADD MSTORE MLOAD SWAP2 DUP3 SWAP2 DUP3 PUSH2 0x1485 JUMP JUMPDEST POP DUP2 PUSH1 0x3 NOT CALLDATASIZE ADD SLT PUSH2 0x42E JUMPI PUSH2 0x42A SWAP1 PUSH2 0x1106 PUSH2 0x1427 JUMP JUMPDEST SWAP1 PUSH2 0x3231 PUSH1 0xF0 SHL PUSH1 0x20 DUP4 ADD MSTORE MLOAD SWAP2 DUP3 SWAP2 DUP3 PUSH2 0x1485 JUMP JUMPDEST POP DUP2 PUSH1 0x3 NOT CALLDATASIZE ADD SLT PUSH2 0x42E JUMPI PUSH2 0x42A SWAP1 PUSH2 0x1134 PUSH2 0x1427 JUMP JUMPDEST SWAP1 PUSH2 0x1B99 PUSH1 0xF1 SHL PUSH1 0x20 DUP4 ADD MSTORE MLOAD SWAP2 DUP3 SWAP2 DUP3 PUSH2 0x1485 JUMP JUMPDEST POP DUP2 PUSH1 0x3 NOT CALLDATASIZE ADD SLT PUSH2 0x42E JUMPI PUSH2 0x42A SWAP1 PUSH2 0x1162 PUSH2 0x1427 JUMP JUMPDEST SWAP1 PUSH2 0x3233 PUSH1 0xF0 SHL PUSH1 0x20 DUP4 ADD MSTORE MLOAD SWAP2 DUP3 SWAP2 DUP3 PUSH2 0x1485 JUMP JUMPDEST POP DUP2 PUSH1 0x3 NOT CALLDATASIZE ADD SLT PUSH2 0x42E JUMPI PUSH2 0x42A SWAP1 PUSH2 0x1190 PUSH2 0x1427 JUMP JUMPDEST SWAP1 PUSH2 0x1899 PUSH1 0xF1 SHL PUSH1 0x20 DUP4 ADD MSTORE MLOAD SWAP2 DUP3 SWAP2 DUP3 PUSH2 0x1485 JUMP JUMPDEST POP DUP2 PUSH1 0x3 NOT CALLDATASIZE ADD SLT PUSH2 0x42E JUMPI PUSH2 0x42A SWAP1 PUSH2 0x11BE PUSH2 0x1427 JUMP JUMPDEST SWAP1 PUSH2 0x3335 PUSH1 0xF0 SHL PUSH1 0x20 DUP4 ADD MSTORE MLOAD SWAP2 DUP3 SWAP2 DUP3 PUSH2 0x1485 JUMP JUMPDEST POP DUP2 PUSH1 0x3 NOT CALLDATASIZE ADD SLT PUSH2 0x42E JUMPI PUSH2 0x42A SWAP1 PUSH2 0x11EC PUSH2 0x1427 JUMP JUMPDEST SWAP1 PUSH2 0x323 PUSH1 0xF4 SHL PUSH1 0x20 DUP4 ADD MSTORE MLOAD SWAP2 DUP3 SWAP2 DUP3 PUSH2 0x1485 JUMP JUMPDEST POP DUP2 PUSH1 0x3 NOT CALLDATASIZE ADD SLT PUSH2 0x42E JUMPI PUSH2 0x42A SWAP1 PUSH2 0x121A PUSH2 0x1427 JUMP JUMPDEST SWAP1 PUSH2 0x353 PUSH1 0xF4 SHL PUSH1 0x20 DUP4 ADD MSTORE MLOAD SWAP2 DUP3 SWAP2 DUP3 PUSH2 0x1485 JUMP JUMPDEST POP DUP2 PUSH1 0x3 NOT CALLDATASIZE ADD SLT PUSH2 0x42E JUMPI PUSH2 0x42A SWAP1 PUSH2 0x1248 PUSH2 0x1461 JUMP JUMPDEST SWAP1 PUSH1 0x35 PUSH1 0xF8 SHL PUSH1 0x20 DUP4 ADD MSTORE MLOAD SWAP2 DUP3 SWAP2 DUP3 PUSH2 0x1485 JUMP JUMPDEST POP DUP2 PUSH1 0x3 NOT CALLDATASIZE ADD SLT PUSH2 0x42E JUMPI PUSH2 0x42A SWAP1 PUSH2 0x1275 PUSH2 0x1427 JUMP JUMPDEST SWAP1 PUSH2 0xD0D PUSH1 0xF2 SHL PUSH1 0x20 DUP4 ADD MSTORE MLOAD SWAP2 DUP3 SWAP2 DUP3 PUSH2 0x1485 JUMP JUMPDEST POP DUP2 PUSH1 0x3 NOT CALLDATASIZE ADD SLT PUSH2 0x42E JUMPI PUSH2 0x42A SWAP1 PUSH2 0x12A3 PUSH2 0x1461 JUMP JUMPDEST SWAP1 PUSH1 0x33 PUSH1 0xF8 SHL PUSH1 0x20 DUP4 ADD MSTORE MLOAD SWAP2 DUP3 SWAP2 DUP3 PUSH2 0x1485 JUMP JUMPDEST POP DUP2 PUSH1 0x3 NOT CALLDATASIZE ADD SLT PUSH2 0x42E JUMPI PUSH2 0x42A SWAP1 PUSH2 0x12D0 PUSH2 0x1427 JUMP JUMPDEST SWAP1 PUSH2 0x3639 PUSH1 0xF0 SHL PUSH1 0x20 DUP4 ADD MSTORE MLOAD SWAP2 DUP3 SWAP2 DUP3 PUSH2 0x1485 JUMP JUMPDEST POP DUP2 PUSH1 0x3 NOT CALLDATASIZE ADD SLT PUSH2 0x42E JUMPI PUSH2 0x42A SWAP1 PUSH2 0x12FE PUSH2 0x1427 JUMP JUMPDEST SWAP1 PUSH2 0x3437 PUSH1 0xF0 SHL PUSH1 0x20 DUP4 ADD MSTORE MLOAD SWAP2 DUP3 SWAP2 DUP3 PUSH2 0x1485 JUMP JUMPDEST POP DUP2 PUSH1 0x3 NOT CALLDATASIZE ADD SLT PUSH2 0x42E JUMPI PUSH2 0x42A SWAP1 PUSH2 0x132C PUSH2 0x1427 JUMP JUMPDEST SWAP1 PUSH2 0x3837 PUSH1 0xF0 SHL PUSH1 0x20 DUP4 ADD MSTORE MLOAD SWAP2 DUP3 SWAP2 DUP3 PUSH2 0x1485 JUMP JUMPDEST POP DUP2 PUSH1 0x3 NOT CALLDATASIZE ADD SLT PUSH2 0x42E JUMPI PUSH2 0x42A SWAP1 PUSH2 0x135A PUSH2 0x1427 JUMP JUMPDEST SWAP1 PUSH2 0x707 PUSH1 0xF3 SHL PUSH1 0x20 DUP4 ADD MSTORE MLOAD SWAP2 DUP3 SWAP2 DUP3 PUSH2 0x1485 JUMP JUMPDEST POP DUP2 PUSH1 0x3 NOT CALLDATASIZE ADD SLT PUSH2 0x42E JUMPI PUSH2 0x42A SWAP1 PUSH2 0x1388 PUSH2 0x1427 JUMP JUMPDEST SWAP1 PUSH2 0x1C1B PUSH1 0xF1 SHL PUSH1 0x20 DUP4 ADD MSTORE MLOAD SWAP2 DUP3 SWAP2 DUP3 PUSH2 0x1485 JUMP JUMPDEST POP DUP2 PUSH1 0x3 NOT CALLDATASIZE ADD SLT PUSH2 0x42E JUMPI PUSH2 0x42A SWAP1 PUSH2 0x13B6 PUSH2 0x1427 JUMP JUMPDEST SWAP1 PUSH2 0xC4D PUSH1 0xF2 SHL PUSH1 0x20 DUP4 ADD MSTORE MLOAD SWAP2 DUP3 SWAP2 DUP3 PUSH2 0x1485 JUMP JUMPDEST POP DUP2 PUSH1 0x3 NOT CALLDATASIZE ADD SLT PUSH2 0x42E JUMPI PUSH2 0x42A SWAP1 PUSH2 0x13E4 PUSH2 0x1461 JUMP JUMPDEST SWAP1 PUSH1 0x39 PUSH1 0xF8 SHL PUSH1 0x20 DUP4 ADD MSTORE MLOAD SWAP2 DUP3 SWAP2 DUP3 PUSH2 0x1485 JUMP JUMPDEST POP DUP2 PUSH1 0x3 NOT CALLDATASIZE ADD SLT PUSH2 0x42E JUMPI PUSH2 0x42A SWAP1 PUSH2 0x1411 PUSH2 0x1427 JUMP JUMPDEST SWAP1 PUSH2 0x627 PUSH1 0xF3 SHL PUSH1 0x20 DUP4 ADD MSTORE MLOAD SWAP2 DUP3 SWAP2 DUP3 PUSH2 0x1485 JUMP JUMPDEST PUSH1 0x40 MLOAD SWAP1 PUSH1 0x40 DUP3 ADD DUP3 DUP2 LT PUSH8 0xFFFFFFFFFFFFFFFF DUP3 GT OR PUSH2 0x144B JUMPI PUSH1 0x40 MSTORE PUSH1 0x2 DUP3 MSTORE JUMP JUMPDEST PUSH4 0x4E487B71 PUSH1 0xE0 SHL PUSH1 0x0 MSTORE PUSH1 0x41 PUSH1 0x4 MSTORE PUSH1 0x24 PUSH1 0x0 REVERT JUMPDEST PUSH1 0x40 MLOAD SWAP1 PUSH1 0x40 DUP3 ADD DUP3 DUP2 LT PUSH8 0xFFFFFFFFFFFFFFFF DUP3 GT OR PUSH2 0x144B JUMPI PUSH1 0x40 MSTORE PUSH1 0x1 DUP3 MSTORE JUMP JUMPDEST PUSH1 0x20 DUP1 DUP3 MSTORE DUP3 MLOAD DUP2 DUP4 ADD DUP2 SWAP1 MSTORE SWAP1 SWAP4 SWAP3 PUSH1 0x0 JUMPDEST DUP3 DUP2 LT PUSH2 0x14BA JUMPI POP POP PUSH1 0x40 SWAP3 SWAP4 POP PUSH1 0x0 DUP4 DUP3 DUP5 ADD ADD MSTORE PUSH1 0x1F DUP1 NOT SWAP2 ADD AND ADD ADD SWAP1 JUMP JUMPDEST DUP2 DUP2 ADD DUP7 ADD MLOAD DUP5 DUP3 ADD PUSH1 0x40 ADD MSTORE DUP6 ADD PUSH2 0x1498 JUMP INVALID LOG2 PUSH5 0x6970667358 0x22 SLT KECCAK256 CODESIZE POP 0xB2 SMOD 0xBC 0x21 KECCAK256 0xA6 0xCA 0xDA DIV 0xA5 0xEE CALLVALUE 0xD1 GAS CODECOPY DUP1 CALLDATASIZE SLT DUP15 SWAP13 SWAP6 0xBE CODECOPY SLOAD 0xB5 0xB0 0xC0 DUP5 SWAP3 KECCAK256 PUSH5 0x736F6C6343 STOP ADDMOD EQ STOP CALLER "},"methodIdentifiers":{"ACL_ADMIN_CANNOT_BE_ZERO()":"fd1828ff","ADDRESSES_PROVIDER_ALREADY_ADDED()":"14dcfbbc","ADDRESSES_PROVIDER_NOT_REGISTERED()":"e02f07ee","AMOUNT_BIGGER_THAN_MAX_LOAN_SIZE_STABLE()":"f07f6785","ASSET_NOT_BORROWABLE_IN_ISOLATION()":"8596aad5","ASSET_NOT_LISTED()":"cd23367c","BORROWING_NOT_ENABLED()":"4ef999ff","BORROW_CAP_EXCEEDED()":"2eed17e8","BRIDGE_PROTOCOL_FEE_INVALID()":"7aa0767e","CALLER_MUST_BE_POOL()":"471df685","CALLER_NOT_ASSET_LISTING_OR_POOL_ADMIN()":"2c8e3b4c","CALLER_NOT_ATOKEN()":"a2e976c6","CALLER_NOT_BRIDGE()":"4f77647b","CALLER_NOT_EMERGENCY_ADMIN()":"485c8ff6","CALLER_NOT_POOL_ADMIN()":"ac753236","CALLER_NOT_POOL_CONFIGURATOR()":"61c111d2","CALLER_NOT_POOL_OR_EMERGENCY_ADMIN()":"26e7b312","CALLER_NOT_RISK_OR_POOL_ADMIN()":"b5e79366","COLLATERAL_BALANCE_IS_ZERO()":"4e01e3c1","COLLATERAL_CANNOT_BE_LIQUIDATED()":"895f7dc8","COLLATERAL_CANNOT_COVER_NEW_BORROW()":"e3fa20f5","COLLATERAL_SAME_AS_BORROWING_CURRENCY()":"8a344000","DEBT_CEILING_EXCEEDED()":"65a83bab","DEBT_CEILING_NOT_ZERO()":"e4dd8b74","EMODE_CATEGORY_RESERVED()":"f479ea11","FLASHLOAN_DISABLED()":"8aa3ca4c","FLASHLOAN_PREMIUM_INVALID()":"747fa556","HEALTH_FACTOR_LOWER_THAN_LIQUIDATION_THRESHOLD()":"366eb54d","HEALTH_FACTOR_NOT_BELOW_THRESHOLD()":"952633c5","INCONSISTENT_EMODE_CATEGORY()":"8f7722b2","INCONSISTENT_FLASHLOAN_PARAMS()":"73dea5e3","INCONSISTENT_PARAMS_LENGTH()":"bad8308c","INTEREST_RATE_REBALANCE_CONDITIONS_NOT_MET()":"2926c971","INVALID_ADDRESSES_PROVIDER()":"37930782","INVALID_ADDRESSES_PROVIDER_ID()":"60c3de80","INVALID_AMOUNT()":"fae82791","INVALID_BORROW_CAP()":"d6f9fcde","INVALID_BURN_AMOUNT()":"51267450","INVALID_DEBT_CEILING()":"dcc56db6","INVALID_DECIMALS()":"fa163a83","INVALID_EMODE_CATEGORY()":"a8c97853","INVALID_EMODE_CATEGORY_ASSIGNMENT()":"5d9c76c0","INVALID_EMODE_CATEGORY_PARAMS()":"47cf1523","INVALID_EXPIRATION()":"c08a1146","INVALID_FLASHLOAN_EXECUTOR_RETURN()":"7fea6f36","INVALID_INTEREST_RATE_MODE_SELECTED()":"89c5d45f","INVALID_LIQUIDATION_PROTOCOL_FEE()":"8eda46bd","INVALID_LIQ_BONUS()":"9527e9d9","INVALID_LIQ_THRESHOLD()":"dd1dd95f","INVALID_LTV()":"99ce53f3","INVALID_MINT_AMOUNT()":"abd351b1","INVALID_OPTIMAL_STABLE_TO_TOTAL_DEBT_RATIO()":"c899301a","INVALID_OPTIMAL_USAGE_RATIO()":"4e3aed37","INVALID_RESERVE_FACTOR()":"a4868dca","INVALID_RESERVE_INDEX()":"d1cd8b1d","INVALID_RESERVE_PARAMS()":"335763de","INVALID_SIGNATURE()":"a3402a38","INVALID_SUPPLY_CAP()":"26bbd053","INVALID_UNBACKED_MINT_CAP()":"47ba93d8","LTV_VALIDATION_FAILED()":"b87041c2","NOT_CONTRACT()":"11d7b006","NOT_ENOUGH_AVAILABLE_USER_BALANCE()":"b7f5e224","NO_DEBT_OF_SELECTED_TYPE()":"dc191bd9","NO_EXPLICIT_AMOUNT_TO_REPAY_ON_BEHALF()":"712f536a","NO_MORE_RESERVES_ALLOWED()":"76ae8fca","NO_OUTSTANDING_STABLE_DEBT()":"74459b14","NO_OUTSTANDING_VARIABLE_DEBT()":"b4a45730","OPERATION_NOT_SUPPORTED()":"8b8b98d7","POOL_ADDRESSES_DO_NOT_MATCH()":"1abbb001","PRICE_ORACLE_SENTINEL_CHECK_FAILED()":"c8638082","RESERVE_ALREADY_ADDED()":"12dcade8","RESERVE_ALREADY_INITIALIZED()":"d9adda85","RESERVE_DEBT_NOT_ZERO()":"e981483a","RESERVE_FROZEN()":"6cd3cfbc","RESERVE_INACTIVE()":"52ba9dbe","RESERVE_LIQUIDITY_NOT_ZERO()":"084dfa0d","RESERVE_PAUSED()":"b68774e9","SILOED_BORROWING_VIOLATION()":"de24948c","SPECIFIED_CURRENCY_NOT_BORROWED_BY_USER()":"22a73446","STABLE_BORROWING_ENABLED()":"198d6a6b","STABLE_BORROWING_NOT_ENABLED()":"4d86f393","STABLE_DEBT_NOT_ZERO()":"65e7ef4c","SUPPLY_CAP_EXCEEDED()":"b0510054","UNBACKED_MINT_CAP_EXCEEDED()":"6b3f7cc7","UNDERLYING_BALANCE_ZERO()":"a2797c80","UNDERLYING_CANNOT_BE_RESCUED()":"ab883ca0","UNDERLYING_CLAIMABLE_RIGHTS_NOT_ZERO()":"94f9fd8a","USER_IN_ISOLATION_MODE_OR_LTV_ZERO()":"480702ae","VARIABLE_DEBT_SUPPLY_NOT_ZERO()":"f10727db","ZERO_ADDRESS_NOT_VALID()":"d14bb17a"}}}}}