{
  "_format": "hh-sol-artifact-1",
  "contractName": "ReserveConfiguration",
  "sourceName": "contracts/libraries/ReserveConfiguration.sol",
  "abi": [
    {
      "inputs": [],
      "name": "DEBT_CEILING_DECIMALS",
      "outputs": [
        {
          "internalType": "uint256",
          "name": "",
          "type": "uint256"
        }
      ],
      "stateMutability": "view",
      "type": "function"
    },
    {
      "inputs": [],
      "name": "MAX_RESERVES_COUNT",
      "outputs": [
        {
          "internalType": "uint16",
          "name": "",
          "type": "uint16"
        }
      ],
      "stateMutability": "view",
      "type": "function"
    }
  ],
  "bytecode": "0x6080806040523461001957609b908161001f823930815050f35b600080fdfe6080806040526004361015601257600080fd5b600090813560e01c908163280d5de914604c57506331b561ba14603457600080fd5b80600319360112604957602060405160808152f35b80fd5b90508160031936011260615780600260209252f35b5080fdfea26469706673582212209c8acb45407f6a90dc3006a5d66a8597abc89dc3327f25b2175072d46e460d7664736f6c63430008140033",
  "linkReferences": {},
  "deployedLinkReferences": {}
}