{
  "_format": "hh-sol-artifact-1",
  "contractName": "AugustusRegistry",
  "sourceName": "contracts/interfaces/paraswap/AugustusRegistry.sol",
  "abi": [
    {
      "inputs": [],
      "name": "ARBITRUM",
      "outputs": [
        {
          "internalType": "address",
          "name": "",
          "type": "address"
        }
      ],
      "stateMutability": "view",
      "type": "function"
    },
    {
      "inputs": [],
      "name": "AVALANCHE",
      "outputs": [
        {
          "internalType": "address",
          "name": "",
          "type": "address"
        }
      ],
      "stateMutability": "view",
      "type": "function"
    },
    {
      "inputs": [],
      "name": "BASE",
      "outputs": [
        {
          "internalType": "address",
          "name": "",
          "type": "address"
        }
      ],
      "stateMutability": "view",
      "type": "function"
    },
    {
      "inputs": [],
      "name": "BNB",
      "outputs": [
        {
          "internalType": "address",
          "name": "",
          "type": "address"
        }
      ],
      "stateMutability": "view",
      "type": "function"
    },
    {
      "inputs": [],
      "name": "BSC",
      "outputs": [
        {
          "internalType": "address",
          "name": "",
          "type": "address"
        }
      ],
      "stateMutability": "view",
      "type": "function"
    },
    {
      "inputs": [],
      "name": "ETHEREUM",
      "outputs": [
        {
          "internalType": "address",
          "name": "",
          "type": "address"
        }
      ],
      "stateMutability": "view",
      "type": "function"
    },
    {
      "inputs": [],
      "name": "OPTIMISM",
      "outputs": [
        {
          "internalType": "address",
          "name": "",
          "type": "address"
        }
      ],
      "stateMutability": "view",
      "type": "function"
    },
    {
      "inputs": [],
      "name": "POLYGON",
      "outputs": [
        {
          "internalType": "address",
          "name": "",
          "type": "address"
        }
      ],
      "stateMutability": "view",
      "type": "function"
    }
  ],
  "bytecode": "0x6080806040523461001a576101dd9081610020823930815050f35b600080fdfe60806040818152600436101561001457600080fd5b600091823560e01c9081633c130daf1461014f5750806348a237841461014a57806358f7f6d21461014a57806379dd40f914610121578063b01dc0d5146100f8578063c8744dd8146100cf578063ec342ad0146100a65763f7cdf47c1461007a57600080fd5b816003193601126100a2576020905173a68bea62dc4034a689aa0f58a76681433caca6638152f35b5080fd5b50816003193601126100a25760209051737e31b336f9e8ba52ba3c4ac861b033ba90900bb38152f35b50816003193601126100a2576020905173ca35a4866747ff7a604ef7a2a7f246bb870f3ca18152f35b50816003193601126100a2576020905173dc6e2b14260f972ad4e5a31c68294fba7e7207018152f35b50816003193601126100a2576020905173fd1e5821f07f1af812bb7f3102bfd9ffb279513a8152f35b610178565b8390816003193601126100a25780736e7be86000df697facf4396efd2ae2c322165dc360209252f35b60003660031901126101a25760206040517305b4486f643914a818ed93afc07457e9074be2118152f35b600080fdfea264697066735822122072300c7f767f53ffeb8cceb24c062eabe5ddbf8250e5d1ddbcaf0ff765f4597864736f6c63430008140033",
  "linkReferences": {},
  "deployedLinkReferences": {}
}