{
  "_format": "hh-sol-artifact-1",
  "contractName": "AugustusRegistry",
  "sourceName": "contracts/interfaces/paraswap/AugustusRegistry.sol",
  "abi": [
    {
      "inputs": [],
      "name": "ARBITRUM",
      "outputs": [
        {
          "internalType": "address",
          "name": "",
          "type": "address"
        }
      ],
      "stateMutability": "view",
      "type": "function"
    },
    {
      "inputs": [],
      "name": "AVALANCHE",
      "outputs": [
        {
          "internalType": "address",
          "name": "",
          "type": "address"
        }
      ],
      "stateMutability": "view",
      "type": "function"
    },
    {
      "inputs": [],
      "name": "BASE",
      "outputs": [
        {
          "internalType": "address",
          "name": "",
          "type": "address"
        }
      ],
      "stateMutability": "view",
      "type": "function"
    },
    {
      "inputs": [],
      "name": "BNB",
      "outputs": [
        {
          "internalType": "address",
          "name": "",
          "type": "address"
        }
      ],
      "stateMutability": "view",
      "type": "function"
    },
    {
      "inputs": [],
      "name": "BSC",
      "outputs": [
        {
          "internalType": "address",
          "name": "",
          "type": "address"
        }
      ],
      "stateMutability": "view",
      "type": "function"
    },
    {
      "inputs": [],
      "name": "ETHEREUM",
      "outputs": [
        {
          "internalType": "address",
          "name": "",
          "type": "address"
        }
      ],
      "stateMutability": "view",
      "type": "function"
    },
    {
      "inputs": [],
      "name": "OPTIMISM",
      "outputs": [
        {
          "internalType": "address",
          "name": "",
          "type": "address"
        }
      ],
      "stateMutability": "view",
      "type": "function"
    },
    {
      "inputs": [],
      "name": "POLYGON",
      "outputs": [
        {
          "internalType": "address",
          "name": "",
          "type": "address"
        }
      ],
      "stateMutability": "view",
      "type": "function"
    }
  ],
  "bytecode": "0x6102d9610053600b82828239805160001a607314610046577f4e487b7100000000000000000000000000000000000000000000000000000000600052600060045260246000fd5b30600052607381538281f3fe73000000000000000000000000000000000000000030146080604052600436106100925760003560e01c8063b01dc0d511610065578063b01dc0d51461010f578063c8744dd81461012d578063ec342ad01461014b578063f7cdf47c1461016957610092565b80633c130daf1461009757806348a23784146100b557806358f7f6d2146100d357806379dd40f9146100f1575b600080fd5b61009f610187565b6040516100ac9190610288565b60405180910390f35b6100bd61019f565b6040516100ca9190610288565b60405180910390f35b6100db6101b7565b6040516100e89190610288565b60405180910390f35b6100f96101cf565b6040516101069190610288565b60405180910390f35b6101176101e7565b6040516101249190610288565b60405180910390f35b6101356101ff565b6040516101429190610288565b60405180910390f35b610153610217565b6040516101609190610288565b60405180910390f35b61017161022f565b60405161017e9190610288565b60405180910390f35b736e7be86000df697facf4396efd2ae2c322165dc381565b7305b4486f643914a818ed93afc07457e9074be21181565b7305b4486f643914a818ed93afc07457e9074be21181565b73fd1e5821f07f1af812bb7f3102bfd9ffb279513a81565b73dc6e2b14260f972ad4e5a31c68294fba7e72070181565b73ca35a4866747ff7a604ef7a2a7f246bb870f3ca181565b737e31b336f9e8ba52ba3c4ac861b033ba90900bb381565b73a68bea62dc4034a689aa0f58a76681433caca66381565b600073ffffffffffffffffffffffffffffffffffffffff82169050919050565b600061027282610247565b9050919050565b61028281610267565b82525050565b600060208201905061029d6000830184610279565b9291505056fea2646970667358221220ea6680e10b481ebcf697b176bc1c02e92b3ecd66b6d2908d4ff5ecbbbfc0708964736f6c63430008180033",
  "linkReferences": {},
  "deployedLinkReferences": {}
}