{
  "_format": "hh-sol-artifact-1",
  "contractName": "AaveUniswapBase",
  "sourceName": "contracts/AaveUniswapBase.sol",
  "abi": [
    {
      "inputs": [
        {
          "internalType": "address",
          "name": "lendingPoolAddressesProviderAddress",
          "type": "address"
        },
        {
          "internalType": "address",
          "name": "uniswapRouterAddress",
          "type": "address"
        }
      ],
      "stateMutability": "nonpayable",
      "type": "constructor"
    },
    {
      "inputs": [],
      "name": "ADDRESSES_PROVIDER",
      "outputs": [
        {
          "internalType": "contract IPoolAddressesProvider",
          "name": "",
          "type": "address"
        }
      ],
      "stateMutability": "view",
      "type": "function"
    },
    {
      "inputs": [],
      "name": "LENDING_POOL",
      "outputs": [
        {
          "internalType": "contract IPool",
          "name": "",
          "type": "address"
        }
      ],
      "stateMutability": "view",
      "type": "function"
    },
    {
      "inputs": [],
      "name": "UNISWAP_ROUTER",
      "outputs": [
        {
          "internalType": "contract ISwapRouter",
          "name": "",
          "type": "address"
        }
      ],
      "stateMutability": "view",
      "type": "function"
    },
    {
      "inputs": [],
      "name": "UNISWAP_ROUTER_ADDRESS",
      "outputs": [
        {
          "internalType": "address",
          "name": "",
          "type": "address"
        }
      ],
      "stateMutability": "view",
      "type": "function"
    },
    {
      "inputs": [
        {
          "internalType": "address",
          "name": "asset",
          "type": "address"
        }
      ],
      "name": "getAaveAssetReserveData",
      "outputs": [
        {
          "components": [
            {
              "components": [
                {
                  "internalType": "uint256",
                  "name": "data",
                  "type": "uint256"
                }
              ],
              "internalType": "struct DataTypes.ReserveConfigurationMap",
              "name": "configuration",
              "type": "tuple"
            },
            {
              "internalType": "uint128",
              "name": "liquidityIndex",
              "type": "uint128"
            },
            {
              "internalType": "uint128",
              "name": "currentLiquidityRate",
              "type": "uint128"
            },
            {
              "internalType": "uint128",
              "name": "variableBorrowIndex",
              "type": "uint128"
            },
            {
              "internalType": "uint128",
              "name": "currentVariableBorrowRate",
              "type": "uint128"
            },
            {
              "internalType": "uint128",
              "name": "currentStableBorrowRate",
              "type": "uint128"
            },
            {
              "internalType": "uint40",
              "name": "lastUpdateTimestamp",
              "type": "uint40"
            },
            {
              "internalType": "uint16",
              "name": "id",
              "type": "uint16"
            },
            {
              "internalType": "address",
              "name": "aTokenAddress",
              "type": "address"
            },
            {
              "internalType": "address",
              "name": "stableDebtTokenAddress",
              "type": "address"
            },
            {
              "internalType": "address",
              "name": "variableDebtTokenAddress",
              "type": "address"
            },
            {
              "internalType": "address",
              "name": "interestRateStrategyAddress",
              "type": "address"
            },
            {
              "internalType": "uint128",
              "name": "accruedToTreasury",
              "type": "uint128"
            },
            {
              "internalType": "uint128",
              "name": "unbacked",
              "type": "uint128"
            },
            {
              "internalType": "uint128",
              "name": "isolationModeTotalDebt",
              "type": "uint128"
            }
          ],
          "internalType": "struct DataTypes.ReserveData",
          "name": "",
          "type": "tuple"
        }
      ],
      "stateMutability": "view",
      "type": "function"
    }
  ],
  "bytecode": "0x60e060405234801561001057600080fd5b50604051610d06380380610d0683398181016040528101906100329190610138565b8173ffffffffffffffffffffffffffffffffffffffff1660808173ffffffffffffffffffffffffffffffffffffffff16815250508073ffffffffffffffffffffffffffffffffffffffff1660a08173ffffffffffffffffffffffffffffffffffffffff16815250508073ffffffffffffffffffffffffffffffffffffffff1660c08173ffffffffffffffffffffffffffffffffffffffff16815250505050610178565b600080fd5b600073ffffffffffffffffffffffffffffffffffffffff82169050919050565b6000610105826100da565b9050919050565b610115816100fa565b811461012057600080fd5b50565b6000815190506101328161010c565b92915050565b6000806040838503121561014f5761014e6100d5565b5b600061015d85828601610123565b925050602061016e85828601610123565b9150509250929050565b60805160a05160c051610b586101ae600039600061012a0152600061027a01526000818161010601526101e20152610b586000f3fe608060405234801561001057600080fd5b50600436106100575760003560e01c80630542975c1461005c57806379b369431461007a578063923daa2a14610098578063b4dcfc77146100c8578063d8264920146100e6575b600080fd5b610064610104565b604051610071919061049d565b60405180910390f35b610082610128565b60405161008f91906104d9565b60405180910390f35b6100b260048036038101906100ad919061052f565b61014c565b6040516100bf919061073d565b60405180910390f35b6100d06101dd565b6040516100dd919061077a565b60405180910390f35b6100ee610278565b6040516100fb91906107b6565b60405180910390f35b7f000000000000000000000000000000000000000000000000000000000000000081565b7f000000000000000000000000000000000000000000000000000000000000000081565b61015461029c565b61015c6101dd565b73ffffffffffffffffffffffffffffffffffffffff166335ea6a75836040518263ffffffff1660e01b815260040161019491906104d9565b6101e060405180830381865afa1580156101b2573d6000803e3d6000fd5b505050506040513d601f19601f820116820180604052508101906101d69190610ac7565b9050919050565b6000807f000000000000000000000000000000000000000000000000000000000000000073ffffffffffffffffffffffffffffffffffffffff1663026b1d5f6040518163ffffffff1660e01b8152600401602060405180830381865afa15801561024b573d6000803e3d6000fd5b505050506040513d601f19601f8201168201806040525081019061026f9190610af5565b90508091505090565b7f000000000000000000000000000000000000000000000000000000000000000081565b604051806101e001604052806102b061040b565b815260200160006fffffffffffffffffffffffffffffffff16815260200160006fffffffffffffffffffffffffffffffff16815260200160006fffffffffffffffffffffffffffffffff16815260200160006fffffffffffffffffffffffffffffffff16815260200160006fffffffffffffffffffffffffffffffff168152602001600064ffffffffff168152602001600061ffff168152602001600073ffffffffffffffffffffffffffffffffffffffff168152602001600073ffffffffffffffffffffffffffffffffffffffff168152602001600073ffffffffffffffffffffffffffffffffffffffff168152602001600073ffffffffffffffffffffffffffffffffffffffff16815260200160006fffffffffffffffffffffffffffffffff16815260200160006fffffffffffffffffffffffffffffffff16815260200160006fffffffffffffffffffffffffffffffff1681525090565b6040518060200160405280600081525090565b600073ffffffffffffffffffffffffffffffffffffffff82169050919050565b6000819050919050565b600061046361045e6104598461041e565b61043e565b61041e565b9050919050565b600061047582610448565b9050919050565b60006104878261046a565b9050919050565b6104978161047c565b82525050565b60006020820190506104b2600083018461048e565b92915050565b60006104c38261041e565b9050919050565b6104d3816104b8565b82525050565b60006020820190506104ee60008301846104ca565b92915050565b6000604051905090565b600080fd5b61050c816104b8565b811461051757600080fd5b50565b60008135905061052981610503565b92915050565b600060208284031215610545576105446104fe565b5b60006105538482850161051a565b91505092915050565b6000819050919050565b61056f8161055c565b82525050565b60208201600082015161058b6000850182610566565b50505050565b60006fffffffffffffffffffffffffffffffff82169050919050565b6105b681610591565b82525050565b600064ffffffffff82169050919050565b6105d6816105bc565b82525050565b600061ffff82169050919050565b6105f3816105dc565b82525050565b610602816104b8565b82525050565b6101e08201600082015161061f6000850182610575565b50602082015161063260208501826105ad565b50604082015161064560408501826105ad565b50606082015161065860608501826105ad565b50608082015161066b60808501826105ad565b5060a082015161067e60a08501826105ad565b5060c082015161069160c08501826105cd565b5060e08201516106a460e08501826105ea565b506101008201516106b96101008501826105f9565b506101208201516106ce6101208501826105f9565b506101408201516106e36101408501826105f9565b506101608201516106f86101608501826105f9565b5061018082015161070d6101808501826105ad565b506101a08201516107226101a08501826105ad565b506101c08201516107376101c08501826105ad565b50505050565b60006101e0820190506107536000830184610608565b92915050565b60006107648261046a565b9050919050565b61077481610759565b82525050565b600060208201905061078f600083018461076b565b92915050565b60006107a08261046a565b9050919050565b6107b081610795565b82525050565b60006020820190506107cb60008301846107a7565b92915050565b600080fd5b6000601f19601f8301169050919050565b7f4e487b7100000000000000000000000000000000000000000000000000000000600052604160045260246000fd5b61081f826107d6565b810181811067ffffffffffffffff8211171561083e5761083d6107e7565b5b80604052505050565b60006108516104f4565b905061085d8282610816565b919050565b61086b8161055c565b811461087657600080fd5b50565b60008151905061088881610862565b92915050565b6000602082840312156108a4576108a36107d1565b5b6108ae6020610847565b905060006108be84828501610879565b60008301525092915050565b6108d381610591565b81146108de57600080fd5b50565b6000815190506108f0816108ca565b92915050565b6108ff816105bc565b811461090a57600080fd5b50565b60008151905061091c816108f6565b92915050565b61092b816105dc565b811461093657600080fd5b50565b60008151905061094881610922565b92915050565b60008151905061095d81610503565b92915050565b60006101e0828403121561097a576109796107d1565b5b6109856101e0610847565b905060006109958482850161088e565b60008301525060206109a9848285016108e1565b60208301525060406109bd848285016108e1565b60408301525060606109d1848285016108e1565b60608301525060806109e5848285016108e1565b60808301525060a06109f9848285016108e1565b60a08301525060c0610a0d8482850161090d565b60c08301525060e0610a2184828501610939565b60e083015250610100610a368482850161094e565b61010083015250610120610a4c8482850161094e565b61012083015250610140610a628482850161094e565b61014083015250610160610a788482850161094e565b61016083015250610180610a8e848285016108e1565b610180830152506101a0610aa4848285016108e1565b6101a0830152506101c0610aba848285016108e1565b6101c08301525092915050565b60006101e08284031215610ade57610add6104fe565b5b6000610aec84828501610963565b91505092915050565b600060208284031215610b0b57610b0a6104fe565b5b6000610b198482850161094e565b9150509291505056fea2646970667358221220494f882d22d5ee2df4b1d0e3c33195f4ae30e00de1ce4072389568934be4994864736f6c63430008180033",
  "linkReferences": {},
  "deployedLinkReferences": {}
}