{
  "_format": "hh-sol-artifact-1",
  "contractName": "AaveUniswapBase",
  "sourceName": "contracts/AaveUniswapBase.sol",
  "abi": [
    {
      "inputs": [
        {
          "internalType": "address",
          "name": "lendingPoolAddressesProviderAddress",
          "type": "address"
        },
        {
          "internalType": "address",
          "name": "uniswapRouterAddress",
          "type": "address"
        }
      ],
      "stateMutability": "nonpayable",
      "type": "constructor"
    },
    {
      "inputs": [],
      "name": "ADDRESSES_PROVIDER",
      "outputs": [
        {
          "internalType": "contract IPoolAddressesProvider",
          "name": "",
          "type": "address"
        }
      ],
      "stateMutability": "view",
      "type": "function"
    },
    {
      "inputs": [],
      "name": "LENDING_POOL",
      "outputs": [
        {
          "internalType": "contract IPool",
          "name": "",
          "type": "address"
        }
      ],
      "stateMutability": "view",
      "type": "function"
    },
    {
      "inputs": [],
      "name": "UNISWAP_ROUTER",
      "outputs": [
        {
          "internalType": "contract ISwapRouter",
          "name": "",
          "type": "address"
        }
      ],
      "stateMutability": "view",
      "type": "function"
    },
    {
      "inputs": [],
      "name": "UNISWAP_ROUTER_ADDRESS",
      "outputs": [
        {
          "internalType": "address",
          "name": "",
          "type": "address"
        }
      ],
      "stateMutability": "view",
      "type": "function"
    },
    {
      "inputs": [
        {
          "internalType": "address",
          "name": "asset",
          "type": "address"
        }
      ],
      "name": "getAaveAssetReserveData",
      "outputs": [
        {
          "components": [
            {
              "components": [
                {
                  "internalType": "uint256",
                  "name": "data",
                  "type": "uint256"
                }
              ],
              "internalType": "struct DataTypes.ReserveConfigurationMap",
              "name": "configuration",
              "type": "tuple"
            },
            {
              "internalType": "uint128",
              "name": "liquidityIndex",
              "type": "uint128"
            },
            {
              "internalType": "uint128",
              "name": "currentLiquidityRate",
              "type": "uint128"
            },
            {
              "internalType": "uint128",
              "name": "variableBorrowIndex",
              "type": "uint128"
            },
            {
              "internalType": "uint128",
              "name": "currentVariableBorrowRate",
              "type": "uint128"
            },
            {
              "internalType": "uint128",
              "name": "currentStableBorrowRate",
              "type": "uint128"
            },
            {
              "internalType": "uint40",
              "name": "lastUpdateTimestamp",
              "type": "uint40"
            },
            {
              "internalType": "uint16",
              "name": "id",
              "type": "uint16"
            },
            {
              "internalType": "address",
              "name": "aTokenAddress",
              "type": "address"
            },
            {
              "internalType": "address",
              "name": "stableDebtTokenAddress",
              "type": "address"
            },
            {
              "internalType": "address",
              "name": "variableDebtTokenAddress",
              "type": "address"
            },
            {
              "internalType": "address",
              "name": "interestRateStrategyAddress",
              "type": "address"
            },
            {
              "internalType": "uint128",
              "name": "accruedToTreasury",
              "type": "uint128"
            },
            {
              "internalType": "uint128",
              "name": "unbacked",
              "type": "uint128"
            },
            {
              "internalType": "uint128",
              "name": "isolationModeTotalDebt",
              "type": "uint128"
            }
          ],
          "internalType": "struct DataTypes.ReserveData",
          "name": "",
          "type": "tuple"
        }
      ],
      "stateMutability": "view",
      "type": "function"
    }
  ],
  "bytecode": "0x60e03461009957601f61068738819003918201601f19168301916001600160401b0383118484101761009e57808492604094855283398101031261009957610052602061004b836100b4565b92016100b4565b6001600160a01b0391821660805290811660a05260c0526040516105be90816100c9823960805181818161042101526104f8015260a05181606e015260c051816103de0152f35b600080fd5b634e487b7160e01b600052604160045260246000fd5b51906001600160a01b03821682036100995756fe60806040818152600436101561001457600080fd5b60009160e08335811c9182630542975c1461040d5750816379b36943146103c9578163923daa2a146100ce57508063b4dcfc77146100a15763d82649201461005b57600080fd5b3461009d578160031936011261009d57517f00000000000000000000000000000000000000000000000000000000000000006001600160a01b03168152602090f35b5080fd5b503461009d578160031936011261009d576020906100bd6104da565b90516001600160a01b039091168152f35b919050346103c557602091826003193601126103c1576001600160a01b03600435818116949192869186900361009d5784519361010a85610450565b855161011581610483565b8381528552828486015282868601528260608601528260808601528260a08601528260c0860152828286015261010090838287015261012090848288015261014085818901526101609286848a01526101809487868b01526101a09688888c0152886101c0809c0152846101876104da565b169c8c519d8e916335ea6a7560e01b835260048301526101e09e8f91815a91602492fa998a156103b6579961026a575b508b8b9c9d9e509a999a51809d8a515182526001600160801b039c8d818d015116908301528c818c0151169101528c60608c818c0151169101528c60808c818c0151169101528c60a08c818c0151169101528c60c064ffffffffff818c01511691015261ffff818a015116908d0152838189015116908c0152828188015116908b0152818187015116908a0152818501511690880152848184015116908701528381830151169086015201511690820152f35b809199508d803d106103af575b610281818361049f565b810103908d82126103ab578a8d519261029984610450565b126103ab578c516102a981610483565b8151815282526102ba8b8201610574565b8b8301526102c98d8201610574565b8d8301526102d960608201610574565b60608301526102ea60808201610574565b60808301526102fb60a08201610574565b60a083015260c081015164ffffffffff811681036103a75760c08301528981015161ffff811681036103a7578c9d9e9f509b61039891819c9d8c8501526103438582016104c1565b858501526103528682016104c1565b868501526103618782016104c1565b878501526103708982016104c1565b8985015261037f8a8201610574565b8a85015261038e8b8201610574565b8b85015201610574565b8a820152978d9c9b9a996101b7565b8f80fd5b8e80fd5b503d610277565b8d51903d90823e3d90fd5b8380fd5b8280fd5b50503461009d578160031936011261009d57517f00000000000000000000000000000000000000000000000000000000000000006001600160a01b03168152602090f35b84903461009d578160031936011261009d577f00000000000000000000000000000000000000000000000000000000000000006001600160a01b03168152602090f35b6101e0810190811067ffffffffffffffff82111761046d57604052565b634e487b7160e01b600052604160045260246000fd5b6020810190811067ffffffffffffffff82111761046d57604052565b90601f8019910116810190811067ffffffffffffffff82111761046d57604052565b51906001600160a01b03821682036104d557565b600080fd5b60405163026b1d5f60e01b81526001600160a01b03906020816004817f000000000000000000000000000000000000000000000000000000000000000086165afa9081156105685760009161052e57501690565b906020823d8211610560575b816105476020938361049f565b8101031261055d5750610559906104c1565b1690565b80fd5b3d915061053a565b6040513d6000823e3d90fd5b51906001600160801b03821682036104d55756fea26469706673582212207375c56948d7f90651483a4833b866733bdc3804861056e8fefa11ce84285c9064736f6c63430008140033",
  "linkReferences": {},
  "deployedLinkReferences": {}
}